{
  "contractName": "DTXToken",
  "abi": [
    {
      "constant": true,
      "inputs": [],
      "name": "name",
      "outputs": [
        {
          "name": "",
          "type": "string"
        }
      ],
      "payable": false,
      "stateMutability": "view",
      "type": "function"
    },
    {
      "constant": false,
      "inputs": [
        {
          "name": "_spender",
          "type": "address"
        },
        {
          "name": "_amount",
          "type": "uint256"
        }
      ],
      "name": "approve",
      "outputs": [
        {
          "name": "success",
          "type": "bool"
        }
      ],
      "payable": false,
      "stateMutability": "nonpayable",
      "type": "function"
    },
    {
      "constant": true,
      "inputs": [],
      "name": "creationBlock",
      "outputs": [
        {
          "name": "",
          "type": "uint256"
        }
      ],
      "payable": false,
      "stateMutability": "view",
      "type": "function"
    },
    {
      "constant": true,
      "inputs": [],
      "name": "totalSupply",
      "outputs": [
        {
          "name": "",
          "type": "uint256"
        }
      ],
      "payable": false,
      "stateMutability": "view",
      "type": "function"
    },
    {
      "constant": false,
      "inputs": [
        {
          "name": "_from",
          "type": "address"
        },
        {
          "name": "_to",
          "type": "address"
        },
        {
          "name": "_amount",
          "type": "uint256"
        }
      ],
      "name": "transferFrom",
      "outputs": [
        {
          "name": "success",
          "type": "bool"
        }
      ],
      "payable": false,
      "stateMutability": "nonpayable",
      "type": "function"
    },
    {
      "constant": true,
      "inputs": [],
      "name": "decimals",
      "outputs": [
        {
          "name": "",
          "type": "uint8"
        }
      ],
      "payable": false,
      "stateMutability": "view",
      "type": "function"
    },
    {
      "constant": false,
      "inputs": [
        {
          "name": "_newController",
          "type": "address"
        }
      ],
      "name": "changeController",
      "outputs": [],
      "payable": false,
      "stateMutability": "nonpayable",
      "type": "function"
    },
    {
      "constant": true,
      "inputs": [
        {
          "name": "_owner",
          "type": "address"
        },
        {
          "name": "_blockNumber",
          "type": "uint256"
        }
      ],
      "name": "balanceOfAt",
      "outputs": [
        {
          "name": "",
          "type": "uint256"
        }
      ],
      "payable": false,
      "stateMutability": "view",
      "type": "function"
    },
    {
      "constant": true,
      "inputs": [],
      "name": "version",
      "outputs": [
        {
          "name": "",
          "type": "string"
        }
      ],
      "payable": false,
      "stateMutability": "view",
      "type": "function"
    },
    {
      "constant": false,
      "inputs": [
        {
          "name": "_cloneTokenName",
          "type": "string"
        },
        {
          "name": "_cloneDecimalUnits",
          "type": "uint8"
        },
        {
          "name": "_cloneTokenSymbol",
          "type": "string"
        },
        {
          "name": "_snapshotBlock",
          "type": "uint256"
        },
        {
          "name": "_transfersEnabled",
          "type": "bool"
        }
      ],
      "name": "createCloneToken",
      "outputs": [
        {
          "name": "",
          "type": "address"
        }
      ],
      "payable": false,
      "stateMutability": "nonpayable",
      "type": "function"
    },
    {
      "constant": true,
      "inputs": [
        {
          "name": "_owner",
          "type": "address"
        }
      ],
      "name": "balanceOf",
      "outputs": [
        {
          "name": "balance",
          "type": "uint256"
        }
      ],
      "payable": false,
      "stateMutability": "view",
      "type": "function"
    },
    {
      "constant": true,
      "inputs": [],
      "name": "parentToken",
      "outputs": [
        {
          "name": "",
          "type": "address"
        }
      ],
      "payable": false,
      "stateMutability": "view",
      "type": "function"
    },
    {
      "constant": false,
      "inputs": [
        {
          "name": "_owner",
          "type": "address"
        },
        {
          "name": "_amount",
          "type": "uint256"
        }
      ],
      "name": "generateTokens",
      "outputs": [
        {
          "name": "",
          "type": "bool"
        }
      ],
      "payable": false,
      "stateMutability": "nonpayable",
      "type": "function"
    },
    {
      "constant": true,
      "inputs": [],
      "name": "symbol",
      "outputs": [
        {
          "name": "",
          "type": "string"
        }
      ],
      "payable": false,
      "stateMutability": "view",
      "type": "function"
    },
    {
      "constant": true,
      "inputs": [
        {
          "name": "_blockNumber",
          "type": "uint256"
        }
      ],
      "name": "totalSupplyAt",
      "outputs": [
        {
          "name": "",
          "type": "uint256"
        }
      ],
      "payable": false,
      "stateMutability": "view",
      "type": "function"
    },
    {
      "constant": false,
      "inputs": [
        {
          "name": "_to",
          "type": "address"
        },
        {
          "name": "_amount",
          "type": "uint256"
        }
      ],
      "name": "transfer",
      "outputs": [
        {
          "name": "success",
          "type": "bool"
        }
      ],
      "payable": false,
      "stateMutability": "nonpayable",
      "type": "function"
    },
    {
      "constant": true,
      "inputs": [],
      "name": "transfersEnabled",
      "outputs": [
        {
          "name": "",
          "type": "bool"
        }
      ],
      "payable": false,
      "stateMutability": "view",
      "type": "function"
    },
    {
      "constant": true,
      "inputs": [],
      "name": "parentSnapShotBlock",
      "outputs": [
        {
          "name": "",
          "type": "uint256"
        }
      ],
      "payable": false,
      "stateMutability": "view",
      "type": "function"
    },
    {
      "constant": false,
      "inputs": [
        {
          "name": "_spender",
          "type": "address"
        },
        {
          "name": "_amount",
          "type": "uint256"
        },
        {
          "name": "_extraData",
          "type": "bytes"
        }
      ],
      "name": "approveAndCall",
      "outputs": [
        {
          "name": "success",
          "type": "bool"
        }
      ],
      "payable": false,
      "stateMutability": "nonpayable",
      "type": "function"
    },
    {
      "constant": false,
      "inputs": [
        {
          "name": "_owner",
          "type": "address"
        },
        {
          "name": "_amount",
          "type": "uint256"
        }
      ],
      "name": "destroyTokens",
      "outputs": [
        {
          "name": "",
          "type": "bool"
        }
      ],
      "payable": false,
      "stateMutability": "nonpayable",
      "type": "function"
    },
    {
      "constant": true,
      "inputs": [
        {
          "name": "_owner",
          "type": "address"
        },
        {
          "name": "_spender",
          "type": "address"
        }
      ],
      "name": "allowance",
      "outputs": [
        {
          "name": "remaining",
          "type": "uint256"
        }
      ],
      "payable": false,
      "stateMutability": "view",
      "type": "function"
    },
    {
      "constant": false,
      "inputs": [
        {
          "name": "_token",
          "type": "address"
        }
      ],
      "name": "claimTokens",
      "outputs": [],
      "payable": false,
      "stateMutability": "nonpayable",
      "type": "function"
    },
    {
      "constant": true,
      "inputs": [],
      "name": "tokenFactory",
      "outputs": [
        {
          "name": "",
          "type": "address"
        }
      ],
      "payable": false,
      "stateMutability": "view",
      "type": "function"
    },
    {
      "constant": false,
      "inputs": [
        {
          "name": "_transfersEnabled",
          "type": "bool"
        }
      ],
      "name": "enableTransfers",
      "outputs": [],
      "payable": false,
      "stateMutability": "nonpayable",
      "type": "function"
    },
    {
      "constant": true,
      "inputs": [],
      "name": "controller",
      "outputs": [
        {
          "name": "",
          "type": "address"
        }
      ],
      "payable": false,
      "stateMutability": "view",
      "type": "function"
    },
    {
      "inputs": [
        {
          "name": "_tokenFactory",
          "type": "address"
        }
      ],
      "payable": false,
      "stateMutability": "nonpayable",
      "type": "constructor"
    },
    {
      "payable": true,
      "stateMutability": "payable",
      "type": "fallback"
    },
    {
      "anonymous": false,
      "inputs": [
        {
          "indexed": true,
          "name": "_token",
          "type": "address"
        },
        {
          "indexed": true,
          "name": "_controller",
          "type": "address"
        },
        {
          "indexed": false,
          "name": "_amount",
          "type": "uint256"
        }
      ],
      "name": "ClaimedTokens",
      "type": "event"
    },
    {
      "anonymous": false,
      "inputs": [
        {
          "indexed": true,
          "name": "_from",
          "type": "address"
        },
        {
          "indexed": true,
          "name": "_to",
          "type": "address"
        },
        {
          "indexed": false,
          "name": "_amount",
          "type": "uint256"
        }
      ],
      "name": "Transfer",
      "type": "event"
    },
    {
      "anonymous": false,
      "inputs": [
        {
          "indexed": true,
          "name": "_cloneToken",
          "type": "address"
        },
        {
          "indexed": false,
          "name": "_snapshotBlock",
          "type": "uint256"
        }
      ],
      "name": "NewCloneToken",
      "type": "event"
    },
    {
      "anonymous": false,
      "inputs": [
        {
          "indexed": true,
          "name": "_owner",
          "type": "address"
        },
        {
          "indexed": true,
          "name": "_spender",
          "type": "address"
        },
        {
          "indexed": false,
          "name": "_amount",
          "type": "uint256"
        }
      ],
      "name": "Approval",
      "type": "event"
    }
  ],
  "bytecode": "0x60c0604052600760808190527f4d4d545f302e320000000000000000000000000000000000000000000000000060a090815262000040916004919062000184565b503480156200004e57600080fd5b5060405160208062001b3183398101604081815291518282018352601382527f446154612065586368616e676520546f6b656e0000000000000000000000000060208084019182528451808601909552600385527f44545800000000000000000000000000000000000000000000000000000000009085015260008054600160a060020a03191633178155600b8054600160a060020a0385166101000261010060a860020a031990911617905583519294859491938493601292916001916200011a9183919062000184565b506002805460ff191660ff851617905581516200013f90600390602085019062000184565b5060058054600160a060020a031916600160a060020a039790971696909617909555505050600655600b805460ff191691151591909117905550504360075562000229565b828054600181600116156101000203166002900490600052602060002090601f016020900481019282601f10620001c757805160ff1916838001178555620001f7565b82800160010185558215620001f7579182015b82811115620001f7578251825591602001919060010190620001da565b506200020592915062000209565b5090565b6200022691905b8082111562000205576000815560010162000210565b90565b6118f880620002396000396000f30060806040526004361061012f5763ffffffff60e060020a60003504166306fdde0381146101ef578063095ea7b31461027957806317634514146102b157806318160ddd146102d857806323b872dd146102ed578063313ce567146103175780633cebb823146103425780634ee2cd7e1461036357806354fd4d50146103875780636638c0871461039c57806370a082311461045f57806380a5400114610480578063827f32c01461049557806395d89b41146104b9578063981b24d0146104ce578063a9059cbb146104e6578063bef97c871461050a578063c5bcc4f11461051f578063cae9ca5114610534578063d3ce77fe1461059d578063dd62ed3e146105c1578063df8de3e7146105e8578063e77772fe14610609578063f41e60c51461061e578063f77c479114610638575b60005461014490600160a060020a031661064d565b151561014f57600080fd5b600054604080517ff48c30540000000000000000000000000000000000000000000000000000000081523360048201529051600160a060020a039092169163f48c3054913491602480830192602092919082900301818588803b1580156101b557600080fd5b505af11580156101c9573d6000803e3d6000fd5b50505050506040513d60208110156101e057600080fd5b505115156101ed57600080fd5b005b3480156101fb57600080fd5b5061020461067a565b6040805160208082528351818301528351919283929083019185019080838360005b8381101561023e578181015183820152602001610226565b50505050905090810190601f16801561026b5780820380516001836020036101000a031916815260200191505b509250505060405180910390f35b34801561028557600080fd5b5061029d600160a060020a0360043516602435610707565b604080519115158252519081900360200190f35b3480156102bd57600080fd5b506102c6610885565b60408051918252519081900360200190f35b3480156102e457600080fd5b506102c661088b565b3480156102f957600080fd5b5061029d600160a060020a036004358116906024351660443561089c565b34801561032357600080fd5b5061032c610933565b6040805160ff9092168252519081900360200190f35b34801561034e57600080fd5b506101ed600160a060020a036004351661093c565b34801561036f57600080fd5b506102c6600160a060020a0360043516602435610982565b34801561039357600080fd5b50610204610acf565b3480156103a857600080fd5b506040805160206004803580820135601f810184900484028501840190955284845261044394369492936024939284019190819084018382808284375050604080516020601f818a01358b0180359182018390048302840183018552818452989b60ff8b35169b909a909994019750919550918201935091508190840183828082843750949750508435955050505050602001351515610b2a565b60408051600160a060020a039092168252519081900360200190f35b34801561046b57600080fd5b506102c6600160a060020a0360043516610d84565b34801561048c57600080fd5b50610443610d98565b3480156104a157600080fd5b5061029d600160a060020a0360043516602435610da7565b3480156104c557600080fd5b50610204610e73565b3480156104da57600080fd5b506102c6600435610ece565b3480156104f257600080fd5b5061029d600160a060020a0360043516602435610fc2565b34801561051657600080fd5b5061029d610fe1565b34801561052b57600080fd5b506102c6610fea565b34801561054057600080fd5b50604080516020600460443581810135601f810184900484028501840190955284845261029d948235600160a060020a0316946024803595369594606494920191908190840183828082843750949750610ff09650505050505050565b3480156105a957600080fd5b5061029d600160a060020a036004351660243561110b565b3480156105cd57600080fd5b506102c6600160a060020a03600435811690602435166111d3565b3480156105f457600080fd5b506101ed600160a060020a03600435166111fe565b34801561061557600080fd5b506104436113e5565b34801561062a57600080fd5b506101ed60043515156113f9565b34801561064457600080fd5b50610443611423565b600080600160a060020a03831615156106695760009150610674565b823b90506000811191505b50919050565b60018054604080516020600284861615610100026000190190941693909304601f810184900484028201840190925281815292918301828280156106ff5780601f106106d4576101008083540402835291602001916106ff565b820191906000526020600020905b8154815290600101906020018083116106e257829003601f168201915b505050505081565b600b5460009060ff16151561071b57600080fd5b8115806107495750336000908152600960209081526040808320600160a060020a0387168452909152902054155b151561075457600080fd5b60005461076990600160a060020a031661064d565b1561081d5760008054604080517fda682aeb000000000000000000000000000000000000000000000000000000008152336004820152600160a060020a038781166024830152604482018790529151919092169263da682aeb92606480820193602093909283900390910190829087803b1580156107e657600080fd5b505af11580156107fa573d6000803e3d6000fd5b505050506040513d602081101561081057600080fd5b5051151561081d57600080fd5b336000818152600960209081526040808320600160a060020a03881680855290835292819020869055805186815290519293927f8c5be1e5ebec7d5bd14f71427d1e84f3dd0314c0f7b2291e5b200ac8c7c3b925929181900390910190a35060015b92915050565b60075481565b600061089643610ece565b90505b90565b60008054600160a060020a0316331461091e57600b5460ff1615156108c057600080fd5b600160a060020a03841660009081526009602090815260408083203384529091529020548211156108f35750600061092c565b600160a060020a03841660009081526009602090815260408083203384529091529020805483900390555b610929848484611432565b90505b9392505050565b60025460ff1681565b600054600160a060020a0316331461095357600080fd5b6000805473ffffffffffffffffffffffffffffffffffffffff1916600160a060020a0392909216919091179055565b600160a060020a03821660009081526008602052604081205415806109de5750600160a060020a0383166000908152600860205260408120805484929081106109c757fe5b6000918252602090912001546001608060020a0316115b15610aa657600554600160a060020a031615610a9e57600554600654600160a060020a0390911690634ee2cd7e908590610a19908690611624565b6040518363ffffffff1660e060020a0281526004018083600160a060020a0316600160a060020a0316815260200182815260200192505050602060405180830381600087803b158015610a6b57600080fd5b505af1158015610a7f573d6000803e3d6000fd5b505050506040513d6020811015610a9557600080fd5b5051905061087f565b50600061087f565b600160a060020a0383166000908152600860205260409020610ac8908361163a565b905061087f565b6004805460408051602060026001851615610100026000190190941693909304601f810184900484028201840190925281815292918301828280156106ff5780601f106106d4576101008083540402835291602001916106ff565b600080831515610b38574393505b600b546040517f5b7b72c100000000000000000000000000000000000000000000000000000000815230600482018181526024830188905260ff8a16606484015286151560a484015260c0604484019081528b5160c48501528b51610100909504600160a060020a031694635b7b72c1948a938e938e938e938d939291608482019160e40190602089019080838360005b83811015610be1578181015183820152602001610bc9565b50505050905090810190601f168015610c0e5780820380516001836020036101000a031916815260200191505b50838103825285518152855160209182019187019080838360005b83811015610c41578181015183820152602001610c29565b50505050905090810190601f168015610c6e5780820380516001836020036101000a031916815260200191505b5098505050505050505050602060405180830381600087803b158015610c9357600080fd5b505af1158015610ca7573d6000803e3d6000fd5b505050506040513d6020811015610cbd57600080fd5b5051604080517f3cebb8230000000000000000000000000000000000000000000000000000000081523360048201529051919250600160a060020a03831691633cebb8239160248082019260009290919082900301818387803b158015610d2357600080fd5b505af1158015610d37573d6000803e3d6000fd5b5050604080518781529051600160a060020a03851693507f086c875b377f900b07ce03575813022f05dd10ed7640b5282cf6d3c3fc352ade92509081900360200190a29695505050505050565b6000610d908243610982565b90505b919050565b600554600160a060020a031681565b6000805481908190600160a060020a03163314610dc357600080fd5b610dcb61088b565b9150838201821115610ddc57600080fd5b610de585610d84565b9050838101811115610df657600080fd5b610e03600a858401611799565b600160a060020a0385166000908152600860205260409020610e2790828601611799565b604080518581529051600160a060020a038716916000917fddf252ad1be2c89b69c2b068fc378daa952ba7f163c4a11628f55a4df523b3ef9181900360200190a3506001949350505050565b6003805460408051602060026001851615610100026000190190941693909304601f810184900484028201840190925281815292918301828280156106ff5780601f106106d4576101008083540402835291602001916106ff565b600a546000901580610f03575081600a6000815481101515610eec57fe5b6000918252602090912001546001608060020a0316115b15610fb057600554600160a060020a031615610fa857600554600654600160a060020a039091169063981b24d090610f3c908590611624565b6040518263ffffffff1660e060020a02815260040180828152602001915050602060405180830381600087803b158015610f7557600080fd5b505af1158015610f89573d6000803e3d6000fd5b505050506040513d6020811015610f9f57600080fd5b50519050610d93565b506000610d93565b610fbb600a8361163a565b9050610d93565b600b5460009060ff161515610fd657600080fd5b61092c338484611432565b600b5460ff1681565b60065481565b6000610ffc8484610707565b151561100757600080fd5b6040517f8f4ffcb10000000000000000000000000000000000000000000000000000000081523360048201818152602483018690523060448401819052608060648501908152865160848601528651600160a060020a038a1695638f4ffcb195948a94938a939192909160a490910190602085019080838360005b8381101561109a578181015183820152602001611082565b50505050905090810190601f1680156110c75780820380516001836020036101000a031916815260200191505b5095505050505050600060405180830381600087803b1580156110e957600080fd5b505af11580156110fd573d6000803e3d6000fd5b506001979650505050505050565b6000805481908190600160a060020a0316331461112757600080fd5b61112f61088b565b91508382101561113e57600080fd5b61114785610d84565b90508381101561115657600080fd5b611163600a858403611799565b600160a060020a038516600090815260086020526040902061118790858303611799565b604080518581529051600091600160a060020a038816917fddf252ad1be2c89b69c2b068fc378daa952ba7f163c4a11628f55a4df523b3ef9181900360200190a3506001949350505050565b600160a060020a03918216600090815260096020908152604080832093909416825291909152205490565b600080548190600160a060020a0316331461121857600080fd5b600160a060020a03831615156112695760008054604051600160a060020a0390911691303180156108fc02929091818181858888f19350505050158015611263573d6000803e3d6000fd5b506113e0565b604080517f70a082310000000000000000000000000000000000000000000000000000000081523060048201529051849350600160a060020a038416916370a082319160248083019260209291908290030181600087803b1580156112cd57600080fd5b505af11580156112e1573d6000803e3d6000fd5b505050506040513d60208110156112f757600080fd5b505160008054604080517fa9059cbb000000000000000000000000000000000000000000000000000000008152600160a060020a0392831660048201526024810185905290519394509085169263a9059cbb92604480840193602093929083900390910190829087803b15801561136d57600080fd5b505af1158015611381573d6000803e3d6000fd5b505050506040513d602081101561139757600080fd5b5050600054604080518381529051600160a060020a03928316928616917ff931edb47c50b4b4104c187b5814a9aef5f709e17e2ecf9617e860cacade929c919081900360200190a35b505050565b600b546101009004600160a060020a031681565b600054600160a060020a0316331461141057600080fd5b600b805460ff1916911515919091179055565b600054600160a060020a031681565b60008080831515611446576001925061161b565b600654431161145457600080fd5b600160a060020a038516158015906114755750600160a060020a0385163014155b151561148057600080fd5b61148a8643610982565b91508382101561149d576000925061161b565b6000546114b290600160a060020a031661064d565b156115685760008054604080517f4a393149000000000000000000000000000000000000000000000000000000008152600160a060020a038a8116600483015289811660248301526044820189905291519190921692634a39314992606480820193602093909283900390910190829087803b15801561153157600080fd5b505af1158015611545573d6000803e3d6000fd5b505050506040513d602081101561155b57600080fd5b5051151561156857600080fd5b600160a060020a038616600090815260086020526040902061158c90858403611799565b6115968543610982565b90508381018111156115a757600080fd5b600160a060020a03851660009081526008602052604090206115cb90828601611799565b84600160a060020a031686600160a060020a03167fddf252ad1be2c89b69c2b068fc378daa952ba7f163c4a11628f55a4df523b3ef866040518082815260200191505060405180910390a3600192505b50509392505050565b6000818310611633578161092c565b5090919050565b6000806000808580549050600014156116565760009350611790565b85548690600019810190811061166857fe5b6000918252602090912001546001608060020a031685106116c55785548690600019810190811061169557fe5b60009182526020909120015470010000000000000000000000000000000090046001608060020a03169350611790565b8560008154811015156116d457fe5b6000918252602090912001546001608060020a03168510156116f95760009350611790565b8554600093506000190191505b8282111561175657600260018385010104905084868281548110151561172857fe5b6000918252602090912001546001608060020a03161161174a57809250611751565b6001810391505b611706565b858381548110151561176457fe5b60009182526020909120015470010000000000000000000000000000000090046001608060020a031693505b50505092915050565b8154600090819015806117d2575083544390859060001981019081106117bb57fe5b6000918252602090912001546001608060020a0316105b1561184457835484906117e8826001830161188f565b815481106117f257fe5b600091825260209091200180546001608060020a03858116700100000000000000000000000000000000024382166fffffffffffffffffffffffffffffffff1990931692909217161781559150611889565b83548490600019810190811061185657fe5b600091825260209091200180546001608060020a0380861670010000000000000000000000000000000002911617815590505b50505050565b8154818355818111156113e0576000838152602090206113e091810190830161089991905b808211156118c857600081556001016118b4565b50905600a165627a7a72305820e44db1a9ba90c63a123430ebe419e1178fb1aca0cb8554c2397f1b49705122de0029",
  "source": "pragma solidity ^0.4.19;\n\nimport \"./external/MiniMeToken.sol\";\n\n\ncontract DTXToken is MiniMeToken {\n\n  function DTXToken(address _tokenFactory) public MiniMeToken (\n    _tokenFactory,\n    0x0,                    // no parent token\n    0,                      // no snapshot block number from parent\n    \"DaTa eXchange Token\", // Token name\n    18,                     // Decimals\n    \"DTX\",                 // Symbol\n    true                   // Enable transfers\n    )\n  {}\n\n}\n",
  "sourcePath": "/Users/thomas/Projecten/bridge/erc20-bridge/contracts/DTXToken.sol",
  "compiler": {
    "name": "solc",
    "version": "0.4.24+commit.e67f0147.Emscripten.clang"
  },
  "schemaVersion": "2.0.1",
  "updatedAt": "2018-07-31T13:31:05.267Z"
}