{
  "contractName": "ForeignERC777Bridge",
  "abi": [
    {
      "constant": true,
      "inputs": [
        {
          "name": "",
          "type": "address"
        }
      ],
      "name": "tokenMap",
      "outputs": [
        {
          "name": "",
          "type": "address"
        }
      ],
      "payable": false,
      "stateMutability": "view",
      "type": "function"
    },
    {
      "constant": true,
      "inputs": [
        {
          "name": "",
          "type": "bytes32"
        }
      ],
      "name": "withdrawRequests",
      "outputs": [
        {
          "name": "",
          "type": "uint8"
        }
      ],
      "payable": false,
      "stateMutability": "view",
      "type": "function"
    },
    {
      "constant": true,
      "inputs": [
        {
          "name": "",
          "type": "bytes32"
        }
      ],
      "name": "mintRequests",
      "outputs": [
        {
          "name": "",
          "type": "uint8"
        }
      ],
      "payable": false,
      "stateMutability": "view",
      "type": "function"
    },
    {
      "constant": true,
      "inputs": [],
      "name": "validatorCount",
      "outputs": [
        {
          "name": "",
          "type": "uint256"
        }
      ],
      "payable": false,
      "stateMutability": "view",
      "type": "function"
    },
    {
      "constant": false,
      "inputs": [
        {
          "name": "_validator",
          "type": "address"
        }
      ],
      "name": "removeValidator",
      "outputs": [],
      "payable": false,
      "stateMutability": "nonpayable",
      "type": "function"
    },
    {
      "constant": true,
      "inputs": [
        {
          "name": "",
          "type": "bytes32"
        }
      ],
      "name": "mintRequestsDone",
      "outputs": [
        {
          "name": "",
          "type": "bool"
        }
      ],
      "payable": false,
      "stateMutability": "view",
      "type": "function"
    },
    {
      "constant": false,
      "inputs": [
        {
          "name": "_validator",
          "type": "address"
        }
      ],
      "name": "addValidator",
      "outputs": [],
      "payable": false,
      "stateMutability": "nonpayable",
      "type": "function"
    },
    {
      "constant": true,
      "inputs": [
        {
          "name": "",
          "type": "bytes32"
        }
      ],
      "name": "signRequestsDone",
      "outputs": [
        {
          "name": "",
          "type": "bool"
        }
      ],
      "payable": false,
      "stateMutability": "view",
      "type": "function"
    },
    {
      "constant": true,
      "inputs": [],
      "name": "owner",
      "outputs": [
        {
          "name": "",
          "type": "address"
        }
      ],
      "payable": false,
      "stateMutability": "view",
      "type": "function"
    },
    {
      "constant": false,
      "inputs": [
        {
          "name": "_requiredValidators",
          "type": "uint8"
        }
      ],
      "name": "setRequiredValidators",
      "outputs": [],
      "payable": false,
      "stateMutability": "nonpayable",
      "type": "function"
    },
    {
      "constant": false,
      "inputs": [
        {
          "name": "newOwner",
          "type": "address"
        }
      ],
      "name": "transferOwnership",
      "outputs": [],
      "payable": false,
      "stateMutability": "nonpayable",
      "type": "function"
    },
    {
      "constant": true,
      "inputs": [
        {
          "name": "",
          "type": "address"
        }
      ],
      "name": "validators",
      "outputs": [
        {
          "name": "",
          "type": "bool"
        }
      ],
      "payable": false,
      "stateMutability": "view",
      "type": "function"
    },
    {
      "constant": true,
      "inputs": [
        {
          "name": "_validator",
          "type": "address"
        }
      ],
      "name": "isValidator",
      "outputs": [
        {
          "name": "",
          "type": "bool"
        }
      ],
      "payable": false,
      "stateMutability": "view",
      "type": "function"
    },
    {
      "inputs": [
        {
          "name": "_requiredValidators",
          "type": "uint8"
        },
        {
          "name": "_initialValidators",
          "type": "address[]"
        }
      ],
      "payable": false,
      "stateMutability": "nonpayable",
      "type": "constructor"
    },
    {
      "anonymous": false,
      "inputs": [
        {
          "indexed": false,
          "name": "_to",
          "type": "address"
        },
        {
          "indexed": false,
          "name": "_amount",
          "type": "uint256"
        },
        {
          "indexed": false,
          "name": "_withdrawhash",
          "type": "bytes32"
        }
      ],
      "name": "WithdrawRequest",
      "type": "event"
    },
    {
      "anonymous": false,
      "inputs": [
        {
          "indexed": false,
          "name": "_mainToken",
          "type": "address"
        },
        {
          "indexed": false,
          "name": "_sideToken",
          "type": "address"
        }
      ],
      "name": "TokenAdded",
      "type": "event"
    },
    {
      "anonymous": false,
      "inputs": [
        {
          "indexed": false,
          "name": "_mintRequestsHash",
          "type": "bytes32"
        },
        {
          "indexed": false,
          "name": "_transactionHash",
          "type": "bytes32"
        },
        {
          "indexed": false,
          "name": "_mainToken",
          "type": "address"
        },
        {
          "indexed": false,
          "name": "_recipient",
          "type": "address"
        },
        {
          "indexed": false,
          "name": "_amount",
          "type": "uint256"
        },
        {
          "indexed": false,
          "name": "_requiredSignatures",
          "type": "uint8"
        },
        {
          "indexed": false,
          "name": "_signatureCount",
          "type": "uint8"
        },
        {
          "indexed": false,
          "name": "_signRequestHash",
          "type": "bytes32"
        }
      ],
      "name": "MintRequestSigned",
      "type": "event"
    },
    {
      "anonymous": false,
      "inputs": [
        {
          "indexed": false,
          "name": "_mintRequestsHash",
          "type": "bytes32"
        },
        {
          "indexed": false,
          "name": "_transactionHash",
          "type": "bytes32"
        },
        {
          "indexed": false,
          "name": "_mainToken",
          "type": "address"
        },
        {
          "indexed": false,
          "name": "_recipient",
          "type": "address"
        },
        {
          "indexed": false,
          "name": "_amount",
          "type": "uint256"
        }
      ],
      "name": "MintRequestExecuted",
      "type": "event"
    },
    {
      "anonymous": false,
      "inputs": [
        {
          "indexed": false,
          "name": "_withdrawRequestsHash",
          "type": "bytes32"
        },
        {
          "indexed": false,
          "name": "_transactionHash",
          "type": "bytes32"
        },
        {
          "indexed": false,
          "name": "_mainToken",
          "type": "address"
        },
        {
          "indexed": false,
          "name": "_recipient",
          "type": "address"
        },
        {
          "indexed": false,
          "name": "_amount",
          "type": "uint256"
        },
        {
          "indexed": false,
          "name": "_withdrawBlock",
          "type": "uint256"
        },
        {
          "indexed": false,
          "name": "_signer",
          "type": "address"
        },
        {
          "indexed": false,
          "name": "_v",
          "type": "uint8"
        },
        {
          "indexed": false,
          "name": "_r",
          "type": "bytes32"
        },
        {
          "indexed": false,
          "name": "_s",
          "type": "bytes32"
        }
      ],
      "name": "WithdrawRequestSigned",
      "type": "event"
    },
    {
      "anonymous": false,
      "inputs": [
        {
          "indexed": false,
          "name": "_withdrawRequestsHash",
          "type": "bytes32"
        },
        {
          "indexed": false,
          "name": "_reward",
          "type": "uint256"
        },
        {
          "indexed": false,
          "name": "_v",
          "type": "uint8"
        },
        {
          "indexed": false,
          "name": "_r",
          "type": "bytes32"
        },
        {
          "indexed": false,
          "name": "_s",
          "type": "bytes32"
        }
      ],
      "name": "WithdrawRequestRewardSigned",
      "type": "event"
    },
    {
      "anonymous": false,
      "inputs": [
        {
          "indexed": false,
          "name": "validator",
          "type": "address"
        }
      ],
      "name": "ValidatorAdded",
      "type": "event"
    },
    {
      "anonymous": false,
      "inputs": [
        {
          "indexed": false,
          "name": "validator",
          "type": "address"
        }
      ],
      "name": "ValidatorRemoved",
      "type": "event"
    },
    {
      "anonymous": false,
      "inputs": [
        {
          "indexed": true,
          "name": "previousOwner",
          "type": "address"
        },
        {
          "indexed": true,
          "name": "newOwner",
          "type": "address"
        }
      ],
      "name": "OwnershipTransferred",
      "type": "event"
    },
    {
      "constant": false,
      "inputs": [
        {
          "name": "_mainToken",
          "type": "address"
        }
      ],
      "name": "registerToken",
      "outputs": [],
      "payable": false,
      "stateMutability": "nonpayable",
      "type": "function"
    },
    {
      "constant": false,
      "inputs": [
        {
          "name": "_transactionHash",
          "type": "bytes32"
        },
        {
          "name": "_mainToken",
          "type": "address"
        },
        {
          "name": "_recipient",
          "type": "address"
        },
        {
          "name": "_amount",
          "type": "uint256"
        },
        {
          "name": "_v",
          "type": "uint8"
        },
        {
          "name": "_r",
          "type": "bytes32"
        },
        {
          "name": "_s",
          "type": "bytes32"
        }
      ],
      "name": "signMintRequest",
      "outputs": [],
      "payable": false,
      "stateMutability": "nonpayable",
      "type": "function"
    },
    {
      "constant": false,
      "inputs": [
        {
          "name": "_transactionHash",
          "type": "bytes32"
        },
        {
          "name": "_mainToken",
          "type": "address"
        },
        {
          "name": "_recipient",
          "type": "address"
        },
        {
          "name": "_amount",
          "type": "uint256"
        },
        {
          "name": "_withdrawBlock",
          "type": "uint256"
        },
        {
          "name": "_v",
          "type": "uint8"
        },
        {
          "name": "_r",
          "type": "bytes32"
        },
        {
          "name": "_s",
          "type": "bytes32"
        }
      ],
      "name": "signWithdrawRequest",
      "outputs": [],
      "payable": false,
      "stateMutability": "nonpayable",
      "type": "function"
    },
    {
      "constant": false,
      "inputs": [
        {
          "name": "_withdrawRequestsHash",
          "type": "bytes32"
        },
        {
          "name": "_reward",
          "type": "uint256"
        },
        {
          "name": "_v",
          "type": "uint8"
        },
        {
          "name": "_r",
          "type": "bytes32"
        },
        {
          "name": "_s",
          "type": "bytes32"
        }
      ],
      "name": "signWithdrawRequestReward",
      "outputs": [],
      "payable": false,
      "stateMutability": "nonpayable",
      "type": "function"
    }
  ],
  "bytecode": "0x60606040526000805460a060020a60ff021916815560015534156200002357600080fd5b60405162002e1038038062002e10833981016040528080519190602001805160008054600160a060020a03191633600160a060020a0316178155920191839150829060ff831615156200007557600080fd5b8260ff16825110156200008757600080fd5b5060005b81518110156200013657620000c4828281518110620000a657fe5b9060200190602002015164010000000062000e3b6200016082021704565b158015620000f257506000828281518110620000dc57fe5b90602001906020020151600160a060020a031614155b1515620000fe57600080fd5b6200012d8282815181106200010f57fe5b90602001906020020151640100000000620006626200018382021704565b6001016200008b565b6200014f8364010000000062000d176200023682021704565b8151600155506200029a9350505050565b600160a060020a031660009081526002602052604090205460ff16151560011490565b60005433600160a060020a039081169116146200019f57600080fd5b600160a060020a03811660009081526002602052604090205460ff16151560011415620001c857fe5b600160a060020a03811660009081526002602052604090819020805460ff191660019081179091558054810190557fe366c1c0452ed8eec96861e9e54141ebff23c9ec89fe27b996b45f5ec388498790829051600160a060020a03909116815260200160405180910390a150565b60005433600160a060020a039081169116146200025257600080fd5b60015460ff82169010156200026657600080fd5b6000805460ff909216740100000000000000000000000000000000000000000260a060020a60ff0219909216919091179055565b612b6680620002aa6000396000f300606060405260043610620000e85763ffffffff60e060020a6000350416624aca6e8114620000ed578063026508d1146200012b57806309824a80146200015a5780630d39e46d146200017e5780630f43a677146200019757806340a141ff14620001bf57806348093a6114620001e15780634d238c8e146200020e5780635bfdc21714620002305780636b40d32c14620002495780638da5cb5b1462000283578063a2d8b3d91462000299578063aa752db914620002d6578063d2ddc50914620002fe578063f2fde38b146200031a578063fa52c7d8146200033c578063facd743b146200035e575b600080fd5b3415620000f957600080fd5b6200010f600160a060020a036004351662000380565b604051600160a060020a03909116815260200160405180910390f35b34156200013757600080fd5b620001446004356200039b565b60405160ff909116815260200160405180910390f35b34156200016657600080fd5b6200017c600160a060020a0360043516620003b0565b005b34156200018a57600080fd5b620001446004356200057c565b3415620001a357600080fd5b620001ad62000591565b60405190815260200160405180910390f35b3415620001cb57600080fd5b6200017c600160a060020a036004351662000597565b3415620001ed57600080fd5b620001fa6004356200064d565b604051901515815260200160405180910390f35b34156200021a57600080fd5b6200017c600160a060020a036004351662000662565b34156200023c57600080fd5b620001fa60043562000715565b34156200025557600080fd5b6200017c600435600160a060020a036024358116906044351660643560ff6084351660a43560c4356200072a565b34156200028f57600080fd5b6200010f62000b22565b3415620002a557600080fd5b6200017c600435600160a060020a036024358116906044351660643560843560ff60a4351660c43560e43562000b31565b3415620002e257600080fd5b6200017c60043560243560ff6044351660643560843562000cb2565b34156200030a57600080fd5b6200017c60ff6004351662000d17565b34156200032657600080fd5b6200017c600160a060020a036004351662000d89565b34156200034857600080fd5b620001fa600160a060020a036004351662000e26565b34156200036a57600080fd5b620001fa600160a060020a036004351662000e3b565b600860205260009081526040902054600160a060020a031681565b60066020526000908152604090205460ff1681565b6000805433600160a060020a03908116911614620003cd57600080fd5b600160a060020a038083166000908152600860205260409020541615620003f057fe5b3082600160a060020a031663313ce5676040518163ffffffff1660e060020a028152600401602060405180830381600087803b15156200042f57600080fd5b5af115156200043d57600080fd5b5050506040518051905060ff166200045462000e5e565b600160a060020a0390921682526060820152608060208201819052600d908201527f4272696467656420546f6b656e0000000000000000000000000000000000000060a082015260c060408083018290526004918301919091527f42544f4b0000000000000000000000000000000000000000000000000000000060e08301526101009091019051809103906000f0801515620004f057600080fd5b600160a060020a0383811660009081526008602052604090819020805473ffffffffffffffffffffffffffffffffffffffff1916928416929092179091559091507fdffbd9ded1c09446f09377de547142dcce7dc541c8b0b028142b1eba7026b9e7908390839051600160a060020a039283168152911660208201526040908101905180910390a15050565b60036020526000908152604090205460ff1681565b60015481565b60005433600160a060020a03908116911614620005b357600080fd5b6000546001547401000000000000000000000000000000000000000090910460ff169011620005e157600080fd5b600160a060020a03811660009081526002602052604090819020805460ff19169055600180546000190190557fe1434e25d6611e0db941968fdc97811c982ac1602e951637d206f5fdda9dd8f190829051600160a060020a03909116815260200160405180910390a150565b60046020526000908152604090205460ff1681565b60005433600160a060020a039081169116146200067e57600080fd5b600160a060020a03811660009081526002602052604090205460ff16151560011415620006a757fe5b600160a060020a03811660009081526002602052604090819020805460ff191660019081179091558054810190557fe366c1c0452ed8eec96861e9e54141ebff23c9ec89fe27b996b45f5ec388498790829051600160a060020a03909116815260200160405180910390a150565b60056020526000908152604090205460ff1681565b6000806002898989896040519384526c01000000000000000000000000600160a060020a0393841681026020808701919091529290931690920260348401526048830191909152606890910190604051808303816000865af115156200078f57600080fd5b505060405180519050915060028233604051918252600160a060020a03166c0100000000000000000000000002602080830191909152603490910190604051808303816000865af11515620007e357600080fd5b5050604051805160008181526005602052604090205490925060ff1615156001141590506200080e57fe5b60008181526005602052604090819020805460ff1916600190811790915562000899918490889088908890516000815260200160405260405193845260ff9092166020808501919091526040808501929092526060840192909252608090920191516020810390808403906000865af115156200088a57600080fd5b50506020604051035162000e3b565b1515620008a257fe5b6000828152600360205260408120805460ff198116600160ff92831601821617918290559154740100000000000000000000000000000000000000009004821691161015620009ab57600080548382526003602052604091829020547fee1beca1bb3e8214fb36c0fbf3158f614f4cd6c0ae3ccc2c2677ad6ea3af56519285928d928d928d928d9260ff740100000000000000000000000000000000000000009092048216929116908990519788526020880196909652600160a060020a03948516604080890191909152939094166060870152608086019190915260ff90811660a086015290911660c084015260e0830191909152610100909101905180910390a162000b17565b60008281526004602052604090205460ff16151560011415620009ca57fe5b600160a060020a03808916600090815260086020526040902054161515620009ee57fe5b6000828152600460209081526040808320805460ff19166001179055600160a060020a03808c168452600890925291829020547f2044011f3778ccb7a2f0837530cd9496e82534210c4514636389063db341931a9285928d9216908b908b90519485526020850193909352600160a060020a0391821660408086019190915291166060840152608083019190915260a0909101905180910390a1600160a060020a03808916600090815260086020526040908190205490911690630cad126390899089905160e060020a63ffffffff8516028152600160a060020a03909216600483015260248201526060604482015260006064820181905260a49091019060405180830381600087803b151562000b0557600080fd5b5af1151562000b1357600080fd5b5050505b505050505050505050565b600054600160a060020a031681565b6000806002898989896040516c01000000000000000000000000600160a060020a0395861681028252939094169092026014840152602883015260488201526068016020604051808303816000865af1151562000b8d57600080fd5b50506040518051905091506001828686866040516000815260200160405260405193845260ff9092166020808501919091526040808501929092526060840192909252608090920191516020810390808403906000865af1151562000bf157600080fd5b505060206040510351905062000c078162000e3b565b151562000c1057fe5b7fb82025481ac2a3b54e840dee094ec9cc1ca34cfad2ed18439daaab27cac4223c828b8b8b8b8b878c8c8c604051998a5260208a0198909852600160a060020a039687166040808b019190915295871660608a0152608089019490945260a088019290925290931660c086015260ff90921660e0850152610100840191909152610120830191909152610140909101905180910390a150505050505050505050565b7fc7f60bc9b5f3c5f7ae6a5703d3a0356651abdc374f1a2f5b40506eca3283c2078585858585604051948552602085019390935260ff9091166040808501919091526060840191909152608083019190915260a0909101905180910390a15050505050565b60005433600160a060020a0390811691161462000d3357600080fd5b60015460ff821690101562000d4757600080fd5b6000805460ff909216740100000000000000000000000000000000000000000274ff000000000000000000000000000000000000000019909216919091179055565b60005433600160a060020a0390811691161462000da557600080fd5b600160a060020a038116151562000dbb57600080fd5b600054600160a060020a0380831691167f8be0079c531659141344cd1fd0a4f28419497f9722a3daafe3b4186f6b6457e060405160405180910390a36000805473ffffffffffffffffffffffffffffffffffffffff1916600160a060020a0392909216919091179055565b60076020526000908152604090205460ff1681565b600160a060020a031660009081526002602052604090205460ff16151560011490565b604051611ccb8062000e70833901905600606060405260018054600160a060020a03191673991a1bcb077599290d7305493c9a630c20f8b79817905534156200003657600080fd5b60405162001ccb38038062001ccb833981016040528080519190602001805182019190602001805182019190602001805160008054600160a060020a03191633600160a060020a0316179055915084905083838360028380516200009f9291602001906200029c565b506003828051620000b59291602001906200029c565b5060006005556006805460ff19166001908117909155811015620000d857600080fd5b60048190556200012a60408051908101604052600a81527f4552433230546f6b656e00000000000000000000000000000000000000000000602082015230640100000000620010f7620001a682021704565b6200017760408051908101604052600b81527f455243373737546f6b656e000000000000000000000000000000000000000000602082015230640100000000620010f7620001a682021704565b5050600a8054600160a060020a031916600160a060020a03939093169290921790915550620003419350505050565b6000826040518082805190602001908083835b60208310620001da5780518252601f199092019160209182019101620001b9565b6001836020036101000a0380198251168184511617909252505050919091019250604091505051908190039020600154909150600160a060020a03166329965a1d3083856040517c010000000000000000000000000000000000000000000000000000000063ffffffff8616028152600160a060020a03938416600482015260248101929092529091166044820152606401600060405180830381600087803b15156200028657600080fd5b5af115156200029457600080fd5b505050505050565b828054600181600116156101000203166002900490600052602060002090601f016020900481019282601f10620002df57805160ff19168380011785556200030f565b828001600101855582156200030f579182015b828111156200030f578251825591602001919060010190620002f2565b506200031d92915062000321565b5090565b6200033e91905b808211156200031d576000815560010162000328565b90565b61197a80620003516000396000f3006060604052600436106101245763ffffffff60e060020a60003504166306fdde038114610129578063070c87f9146101b3578063095ea7b3146101c85780630cad1263146101fe57806318160ddd14610263578063190a6aa91461028857806323b872dd1461032f578063313ce56714610357578063556f0dc71461038057806362ad1b831461039357806370a08231146104415780638da5cb5b1461046057806394d008ef1461048f578063959b8c3f146104f457806395d89b41146105135780639bd9bbc614610526578063a3c573eb1461058b578063a9059cbb1461059e578063d0679d34146105c0578063d95b6371146105e2578063dd62ed3e14610607578063f2fde38b1461062c578063f922f2161461064b578063fad8b32a1461065e575b600080fd5b341561013457600080fd5b61013c61067d565b60405160208082528190810183818151815260200191508051906020019080838360005b83811015610178578082015183820152602001610160565b50505050905090810190601f1680156101a55780820380516001836020036101000a031916815260200191505b509250505060405180910390f35b34156101be57600080fd5b6101c6610725565b005b34156101d357600080fd5b6101ea600160a060020a036004351660243561078c565b604051901515815260200160405180910390f35b341561020957600080fd5b6101c660048035600160a060020a03169060248035919060649060443590810190830135806020601f8201819004810201604051908101604052818152929190602084018383808284375094965061080a95505050505050565b341561026e57600080fd5b610276610832565b60405190815260200160405180910390f35b341561029357600080fd5b6101c660048035600160a060020a03169060248035919060649060443590810190830135806020601f8201819004810201604051908101604052818152929190602084018383808284378201915050505050509190803590602001908201803590602001908080601f01602080910402602001604051908101604052818152929190602084018383808284375094965061083895505050505050565b341561033a57600080fd5b6101ea600160a060020a0360043581169060243516604435610a42565b341561036257600080fd5b61036a610b24565b60405160ff909116815260200160405180910390f35b341561038b57600080fd5b610276610b3e565b341561039e57600080fd5b6101c6600160a060020a036004803582169160248035909116916044359160849060643590810190830135806020601f8201819004810201604051908101604052818152929190602084018383808284378201915050505050509190803590602001908201803590602001908080601f016020809104026020016040519081016040528181529291906020840183838082843750949650610b4495505050505050565b341561044c57600080fd5b610276600160a060020a0360043516610b70565b341561046b57600080fd5b610473610b8b565b604051600160a060020a03909116815260200160405180910390f35b341561049a57600080fd5b6101c660048035600160a060020a03169060248035919060649060443590810190830135806020601f82018190048102016040519081016040528181529291906020840183838082843750949650610b9a95505050505050565b34156104ff57600080fd5b6101c6600160a060020a0360043516610d48565b341561051e57600080fd5b61013c610dcd565b341561053157600080fd5b6101c660048035600160a060020a03169060248035919060649060443590810190830135806020601f82018190048102016040519081016040528181529291906020840183838082843750949650610e4095505050505050565b341561059657600080fd5b610473610e5e565b34156105a957600080fd5b6101ea600160a060020a0360043516602435610e6d565b34156105cb57600080fd5b6101c6600160a060020a0360043516602435610eb7565b34156105ed57600080fd5b6101ea600160a060020a0360043581169060243516610ee9565b341561061257600080fd5b610276600160a060020a0360043581169060243516610f37565b341561063757600080fd5b6101c6600160a060020a0360043516610f77565b341561065657600080fd5b6101c6611012565b341561066957600080fd5b6101c6600160a060020a0360043516611075565b61068561193c565b60028054600181600116156101000203166002900480601f01602080910402602001604051908101604052809291908181526020018280546001816001161561010002031660029004801561071b5780601f106106f05761010080835404028352916020019161071b565b820191906000526020600020905b8154815290600101906020018083116106fe57829003601f168201915b5050505050905090565b60005433600160a060020a0390811691161461074057600080fd5b6006805460ff1916600117905561078a60408051908101604052600a81527f4552433230546f6b656e000000000000000000000000000000000000000000006020820152306110f7565b565b60065460009060ff1615156107a057600080fd5b600160a060020a03338116600081815260096020908152604080832094881680845294909152908190208590557f8c5be1e5ebec7d5bd14f71427d1e84f3dd0314c0f7b2291e5b200ac8c7c3b9259085905190815260200160405180910390a35060015b92915050565b600a5433600160a060020a0390811691161461082257fe5b61082d838383610b9a565b505050565b60055490565b60005433600160a060020a0390811691161461085357600080fd5b61085c836111d0565b61086b33856000868686611202565b8261087585610b70565b101561088057600080fd5b600160a060020a0384166000908152600760205260409020546108a9908463ffffffff6113b316565b600160a060020a0385166000908152600760205260409020556005546108d5908463ffffffff6113b316565b600555600160a060020a038085169033167fa78a9be3a7b862d26933ad85fb11d80ef66b8f972d7cbba06621d583943a4098858585604051808481526020018060200180602001838103835285818151815260200191508051906020019080838360005b83811015610951578082015183820152602001610939565b50505050905090810190601f16801561097e5780820380516001836020036101000a031916815260200191505b50838103825284818151815260200191508051906020019080838360005b838110156109b457808201518382015260200161099c565b50505050905090810190601f1680156109e15780820380516001836020036101000a031916815260200191505b509550505050505060405180910390a360065460ff1615610a3c57600084600160a060020a03167fddf252ad1be2c89b69c2b068fc378daa952ba7f163c4a11628f55a4df523b3ef8560405190815260200160405180910390a35b50505050565b60065460009060ff161515610a5657600080fd5b600160a060020a0380851660009081526009602090815260408083203390941683529290522054821115610a8957600080fd5b600160a060020a0380851660009081526009602090815260408083203390941683529290522054610ac0908363ffffffff6113b316565b600160a060020a0380861660009081526009602090815260408083203390941683529281529082902092909255610b1a918691869186915190810160405280600081525033602060405190810160405260008082526113c5565b5060019392505050565b60065460009060ff161515610b3857600080fd5b50601290565b60045490565b610b4e3386610ee9565b1515610b5957600080fd5b610b6985858585338660016113c5565b5050505050565b600160a060020a031660009081526007602052604090205490565b600054600160a060020a031681565b60005433600160a060020a03908116911614610bb557600080fd5b610bbe826111d0565b600554610bd1908363ffffffff61162116565b600555600160a060020a038316600090815260076020526040902054610bfd908363ffffffff61162116565b6007600085600160a060020a0316600160a060020a0316815260200190815260200160002081905550610c45336000858560206040519081016040526000815286600161162e565b82600160a060020a031633600160a060020a03167fbcd28e05e57d4bcd5bfcc92a4661d412893e6112c44a2e25d96cfdfc30d5f22e848460405182815260406020820181815290820183818151815260200191508051906020019080838360005b83811015610cbe578082015183820152602001610ca6565b50505050905090810190601f168015610ceb5780820380516001836020036101000a031916815260200191505b50935050505060405180910390a360065460ff161561082d5782600160a060020a031660007fddf252ad1be2c89b69c2b068fc378daa952ba7f163c4a11628f55a4df523b3ef8460405190815260200160405180910390a3505050565b33600160a060020a031681600160a060020a031614151515610d6957600080fd5b600160a060020a038082166000818152600860209081526040808320339095168084529490915290819020805460ff191660011790557ff4caeb2d6ca8932a215a353d0703c326ec2d81fc68170f320eb2ab49e9df61f9905160405180910390a350565b610dd561193c565b60038054600181600116156101000203166002900480601f01602080910402602001604051908101604052809291908181526020018280546001816001161561010002031660029004801561071b5780601f106106f05761010080835404028352916020019161071b565b61082d338484843360206040519081016040526000815260016113c5565b600a54600160a060020a031681565b60065460009060ff161515610e8157600080fd5b610eae338484602060405190810160405280600081525033602060405190810160405260008082526113c5565b50600192915050565b610ee533838360206040519081016040528060008152503360206040519081016040526000815260016113c5565b5050565b600081600160a060020a031683600160a060020a03161480610f305750600160a060020a0380841660009081526008602090815260408083209386168352929052205460ff165b9392505050565b60065460009060ff161515610f4b57600080fd5b50600160a060020a03918216600090815260096020908152604080832093909416825291909152205490565b60005433600160a060020a03908116911614610f9257600080fd5b600160a060020a0381161515610fa757600080fd5b600054600160a060020a0380831691167f8be0079c531659141344cd1fd0a4f28419497f9722a3daafe3b4186f6b6457e060405160405180910390a36000805473ffffffffffffffffffffffffffffffffffffffff1916600160a060020a0392909216919091179055565b60005433600160a060020a0390811691161461102d57600080fd5b6006805460ff1916905561078a60408051908101604052600a81527f4552433230546f6b656e00000000000000000000000000000000000000000000602082015260006110f7565b33600160a060020a031681600160a060020a03161415151561109657600080fd5b600160a060020a038082166000818152600860209081526040808320339095168084529490915290819020805460ff191690557f50546e66e5f44d728365dc3908c63bc5cfeeab470722c1677e3073a6ac294aa1905160405180910390a350565b6000826040518082805190602001908083835b602083106111295780518252601f19909201916020918201910161110a565b6001836020036101000a0380198251168184511617909252505050919091019250604091505051908190039020600154909150600160a060020a03166329965a1d30838560405160e060020a63ffffffff8616028152600160a060020a03938416600482015260248101929092529091166044820152606401600060405180830381600087803b15156111bb57600080fd5b5af115156111c857600080fd5b505050505050565b60045481906111f5906111e9838263ffffffff6117fd16565b9063ffffffff61181216565b146111ff57600080fd5b50565b60006112418660408051908101604052601281527f455243373737546f6b656e7353656e6465720000000000000000000000000000602082015261183b565b9050600160a060020a038116156113aa5780600160a060020a03166375ab978288888888888860405160e060020a63ffffffff8916028152600160a060020a0380881660048301908152878216602484015290861660448301526064820185905260c060848301908152909160a481019060c40185818151815260200191508051906020019080838360005b838110156112e55780820151838201526020016112cd565b50505050905090810190601f1680156113125780820380516001836020036101000a031916815260200191505b50838103825284818151815260200191508051906020019080838360005b83811015611348578082015183820152602001611330565b50505050905090810190601f1680156113755780820380516001836020036101000a031916815260200191505b5098505050505050505050600060405180830381600087803b151561139957600080fd5b5af115156113a657600080fd5b5050505b50505050505050565b6000828211156113bf57fe5b50900390565b6113ce856111d0565b6113dc838888888887611202565b600160a060020a03861615156113f157600080fd5b600160a060020a0387166000908152600760205260409020548590101561141757600080fd5b600160a060020a038716600090815260076020526040902054611440908663ffffffff6113b316565b600160a060020a038089166000908152600760205260408082209390935590881681522054611475908663ffffffff61162116565b600160a060020a03871660009081526007602052604090205561149d8388888888878761162e565b85600160a060020a031687600160a060020a031684600160a060020a03167f06b541ddaa720db2b10a4d0cdac39b8d360425fc073085fac19bc82614677987888887604051808481526020018060200180602001838103835285818151815260200191508051906020019080838360005b8381101561152657808201518382015260200161150e565b50505050905090810190601f1680156115535780820380516001836020036101000a031916815260200191505b50838103825284818151815260200191508051906020019080838360005b83811015611589578082015183820152602001611571565b50505050905090810190601f1680156115b65780820380516001836020036101000a031916815260200191505b509550505050505060405180910390a460065460ff16156113aa5785600160a060020a031687600160a060020a03167fddf252ad1be2c89b69c2b068fc378daa952ba7f163c4a11628f55a4df523b3ef8760405190815260200160405180910390a350505050505050565b8181018281101561080457fe5b600061166d8660408051908101604052601581527f455243373737546f6b656e73526563697069656e740000000000000000000000602082015261183b565b9050600160a060020a038116156117d95780600160a060020a03166223de2989898989898960405160e060020a63ffffffff8916028152600160a060020a0380881660048301908152878216602484015290861660448301526064820185905260c060848301908152909160a481019060c40185818151815260200191508051906020019080838360005b838110156117105780820151838201526020016116f8565b50505050905090810190601f16801561173d5780820380516001836020036101000a031916815260200191505b50838103825284818151815260200191508051906020019080838360005b8381101561177357808201518382015260200161175b565b50505050905090810190601f1680156117a05780820380516001836020036101000a031916815260200191505b5098505050505050505050600060405180830381600087803b15156117c457600080fd5b5af115156117d157600080fd5b5050506117f3565b81156117f3576117e886611912565b15156117f357600080fd5b5050505050505050565b6000818381151561180a57fe5b049392505050565b600082151561182357506000610804565b5081810281838281151561183357fe5b041461080457fe5b600080826040518082805190602001908083835b6020831061186e5780518252601f19909201916020918201910161184f565b6001836020036101000a0380198251168184511617909252505050919091019250604091505051908190039020600154909150600160a060020a031663aabbb8ca858360405160e060020a63ffffffff8516028152600160a060020a0390921660048301526024820152604401602060405180830381600087803b15156118f457600080fd5b5af1151561190157600080fd5b505050604051805195945050505050565b600080600160a060020a038316151561192e5760009150611936565b5050803b8015905b50919050565b602060405190810160405260008152905600a165627a7a7230582075b8d55de626e56e629037e0ec3b5b87229ce687dbe375d6624f1da4b2e55c8f0029a165627a7a72305820c31f451c8c42cb5049f29c7202d6ce67885fbae3344618413a7208261533f1d70029",
  "source": "pragma solidity ^0.4.18;\n\nimport 'erc777/contracts/examples/ReferenceToken.sol';\nimport 'openzeppelin-solidity/contracts/ownership/Ownable.sol';\nimport 'openzeppelin-solidity/contracts/token/ERC20/DetailedERC20.sol';\nimport './Validatable.sol';\nimport './Bridgeable.sol';\nimport './SidechainToken.sol';\n\ncontract ForeignERC777Bridge is Ownable, Validatable {\n\n\tmapping(bytes32=>uint8) public mintRequests;\n\tmapping(bytes32=>bool) public mintRequestsDone;\n\tmapping(bytes32=>bool) public signRequestsDone;\n\n\tmapping(bytes32=>uint8) public withdrawRequests;\n\tmapping(address=>bool) public validators;\n\n\t// maps home token addresses -> foreign token addresses\n\tmapping(address=>address) public tokenMap;\n\n\tevent WithdrawRequest(address _to,uint256 _amount,bytes32 _withdrawhash);\n\tevent TokenAdded(address _mainToken,address _sideToken);\n\tevent MintRequestSigned(bytes32 _mintRequestsHash, bytes32 _transactionHash,address _mainToken, address _recipient,uint256 _amount,uint8 _requiredSignatures,uint8 _signatureCount,bytes32 _signRequestHash);\n\tevent MintRequestExecuted(bytes32 _mintRequestsHash, bytes32 _transactionHash,address _mainToken, address _recipient,uint256 _amount);\n\n\tevent WithdrawRequestSigned(bytes32 _withdrawRequestsHash, bytes32 _transactionHash,address _mainToken, address _recipient,uint256 _amount,uint256 _withdrawBlock,address _signer, uint8 _v, bytes32 _r, bytes32 _s);\n\n\tevent WithdrawRequestRewardSigned(bytes32 _withdrawRequestsHash,uint _reward,uint8 _v, bytes32 _r, bytes32 _s);\n\n\tfunction ForeignERC777Bridge(uint8 _requiredValidators,address[] _initialValidators) Validatable(_requiredValidators,_initialValidators) public {\n\t\t// deploy a sidechain ETH token as an ERC-777.\n\t\t//address t = new ReferenceToken('sidechain ETH','sETH',1);\n\t\t//assert(t != 0x0);\n\t\t//tokenMap[0x0] = t;\n\t}\n\n\tfunction registerToken(DetailedERC20 _mainToken) public onlyOwner {\n\t\tassert(tokenMap[_mainToken] == 0);\n\t\tSidechainToken t = new SidechainToken(this,'Bridged Token','BTOK',uint256(_mainToken.decimals()));\n\t\ttokenMap[_mainToken] = t;\n\t\temit TokenAdded(_mainToken,t);\n\t}\n\n\tfunction signMintRequest(bytes32 _transactionHash,address _mainToken, address _recipient,uint256 _amount,uint8 _v, bytes32 _r, bytes32 _s) public {\n\t\tbytes32 mintRequestsHash = sha256(_transactionHash,_mainToken,_recipient,_amount);\n\t\tbytes32 signRequestHash = sha256(mintRequestsHash,msg.sender);\n\t\tassert(signRequestsDone[signRequestHash] != true);\n\t\tsignRequestsDone[signRequestHash] = true;\n\t\tassert(isValidator(ecrecover(mintRequestsHash, _v, _r, _s)));\n\t\tmintRequests[mintRequestsHash]++;\n\t\tif (mintRequests[mintRequestsHash] < requiredValidators){\n\t\t\temit MintRequestSigned(mintRequestsHash,_transactionHash, _mainToken,  _recipient, _amount,requiredValidators,mintRequests[mintRequestsHash],signRequestHash);\n\t\t}else{\n\t\t\tassert(mintRequestsDone[mintRequestsHash] != true);\n\t\t\tassert(tokenMap[_mainToken] != 0x0);\n\t\t\tmintRequestsDone[mintRequestsHash] = true;\n\t\t\temit MintRequestExecuted(mintRequestsHash,_transactionHash, tokenMap[_mainToken],  _recipient, _amount);\n\t\t\tSidechainToken(tokenMap[_mainToken]).mintFromBridge(_recipient,_amount,'');\n\t\t}\n\t}\n\n\tfunction signWithdrawRequest(bytes32 _transactionHash,address _mainToken, address _recipient,uint256 _amount,uint256 _withdrawBlock,uint8 _v, bytes32 _r, bytes32 _s) public {\n\t\tbytes32 withdrawRequestsHash = sha256(_mainToken,_recipient,_amount,_withdrawBlock);\n\t\taddress validator = ecrecover(withdrawRequestsHash, _v, _r, _s);\n\t\tassert(isValidator(validator));\t\t\n\t\temit WithdrawRequestSigned(withdrawRequestsHash,_transactionHash, _mainToken,  _recipient, _amount,_withdrawBlock,validator,_v,_r,_s);\n\t}\n\n\tfunction signWithdrawRequestReward(bytes32 _withdrawRequestsHash,uint _reward,uint8 _v, bytes32 _r, bytes32 _s) public {\n\t\temit WithdrawRequestRewardSigned(_withdrawRequestsHash,_reward,_v,_r,_s);\n\t}\n\n\n\n}\n\n",
  "sourcePath": "/Users/sponnet/Documents/projects/dbdao/erc20-bridge/contracts/ForeignERC777Bridge.sol",
  "compiler": {
    "name": "solc",
    "version": "0.4.21+commit.dfe3193c.Emscripten.clang"
  },
  "schemaVersion": "2.0.0",
  "updatedAt": "2018-06-12T12:15:27.386Z"
}