{
  "contractName": "ForeignBridge",
  "abi": [
    {
      "constant": true,
      "inputs": [
        {
          "name": "",
          "type": "address"
        }
      ],
      "name": "tokenMap",
      "outputs": [
        {
          "name": "",
          "type": "address"
        }
      ],
      "payable": false,
      "stateMutability": "view",
      "type": "function"
    },
    {
      "constant": true,
      "inputs": [],
      "name": "validatorCount",
      "outputs": [
        {
          "name": "",
          "type": "uint256"
        }
      ],
      "payable": false,
      "stateMutability": "view",
      "type": "function"
    },
    {
      "constant": true,
      "inputs": [
        {
          "name": "",
          "type": "bytes32"
        }
      ],
      "name": "requestsDone",
      "outputs": [
        {
          "name": "",
          "type": "bool"
        }
      ],
      "payable": false,
      "stateMutability": "view",
      "type": "function"
    },
    {
      "constant": false,
      "inputs": [
        {
          "name": "_validator",
          "type": "address"
        }
      ],
      "name": "removeValidator",
      "outputs": [],
      "payable": false,
      "stateMutability": "nonpayable",
      "type": "function"
    },
    {
      "constant": false,
      "inputs": [
        {
          "name": "_validator",
          "type": "address"
        }
      ],
      "name": "addValidator",
      "outputs": [],
      "payable": false,
      "stateMutability": "nonpayable",
      "type": "function"
    },
    {
      "constant": true,
      "inputs": [],
      "name": "owner",
      "outputs": [
        {
          "name": "",
          "type": "address"
        }
      ],
      "payable": false,
      "stateMutability": "view",
      "type": "function"
    },
    {
      "constant": true,
      "inputs": [],
      "name": "requiredValidators",
      "outputs": [
        {
          "name": "",
          "type": "uint8"
        }
      ],
      "payable": false,
      "stateMutability": "view",
      "type": "function"
    },
    {
      "constant": true,
      "inputs": [
        {
          "name": "",
          "type": "uint256"
        }
      ],
      "name": "registeredTokens",
      "outputs": [
        {
          "name": "",
          "type": "address"
        }
      ],
      "payable": false,
      "stateMutability": "view",
      "type": "function"
    },
    {
      "constant": true,
      "inputs": [
        {
          "name": "",
          "type": "bytes32"
        }
      ],
      "name": "requests",
      "outputs": [
        {
          "name": "",
          "type": "uint8"
        }
      ],
      "payable": false,
      "stateMutability": "view",
      "type": "function"
    },
    {
      "constant": true,
      "inputs": [
        {
          "name": "",
          "type": "bytes32"
        }
      ],
      "name": "signedRequests",
      "outputs": [
        {
          "name": "",
          "type": "bool"
        }
      ],
      "payable": false,
      "stateMutability": "view",
      "type": "function"
    },
    {
      "constant": false,
      "inputs": [
        {
          "name": "_requiredValidators",
          "type": "uint8"
        }
      ],
      "name": "setRequiredValidators",
      "outputs": [],
      "payable": false,
      "stateMutability": "nonpayable",
      "type": "function"
    },
    {
      "constant": false,
      "inputs": [
        {
          "name": "newOwner",
          "type": "address"
        }
      ],
      "name": "transferOwnership",
      "outputs": [],
      "payable": false,
      "stateMutability": "nonpayable",
      "type": "function"
    },
    {
      "constant": true,
      "inputs": [
        {
          "name": "",
          "type": "address"
        }
      ],
      "name": "validators",
      "outputs": [
        {
          "name": "",
          "type": "bool"
        }
      ],
      "payable": false,
      "stateMutability": "view",
      "type": "function"
    },
    {
      "constant": true,
      "inputs": [
        {
          "name": "_validator",
          "type": "address"
        }
      ],
      "name": "isValidator",
      "outputs": [
        {
          "name": "",
          "type": "bool"
        }
      ],
      "payable": false,
      "stateMutability": "view",
      "type": "function"
    },
    {
      "inputs": [
        {
          "name": "_requiredValidators",
          "type": "uint8"
        },
        {
          "name": "_initialValidators",
          "type": "address[]"
        }
      ],
      "payable": false,
      "stateMutability": "nonpayable",
      "type": "constructor"
    },
    {
      "anonymous": false,
      "inputs": [
        {
          "indexed": false,
          "name": "_mainToken",
          "type": "address"
        },
        {
          "indexed": false,
          "name": "_sideToken",
          "type": "address"
        }
      ],
      "name": "TokenAdded",
      "type": "event"
    },
    {
      "anonymous": false,
      "inputs": [
        {
          "indexed": false,
          "name": "_mintRequestsHash",
          "type": "bytes32"
        },
        {
          "indexed": true,
          "name": "_transactionHash",
          "type": "bytes32"
        },
        {
          "indexed": false,
          "name": "_mainToken",
          "type": "address"
        },
        {
          "indexed": false,
          "name": "_recipient",
          "type": "address"
        },
        {
          "indexed": false,
          "name": "_amount",
          "type": "uint256"
        },
        {
          "indexed": false,
          "name": "_requiredSignatures",
          "type": "uint8"
        },
        {
          "indexed": false,
          "name": "_signatureCount",
          "type": "uint8"
        },
        {
          "indexed": false,
          "name": "_signRequestHash",
          "type": "bytes32"
        }
      ],
      "name": "MintRequestSigned",
      "type": "event"
    },
    {
      "anonymous": false,
      "inputs": [
        {
          "indexed": false,
          "name": "_mintRequestsHash",
          "type": "bytes32"
        },
        {
          "indexed": true,
          "name": "_transactionHash",
          "type": "bytes32"
        },
        {
          "indexed": false,
          "name": "_mainToken",
          "type": "address"
        },
        {
          "indexed": false,
          "name": "_recipient",
          "type": "address"
        },
        {
          "indexed": false,
          "name": "_amount",
          "type": "uint256"
        }
      ],
      "name": "MintRequestExecuted",
      "type": "event"
    },
    {
      "anonymous": false,
      "inputs": [
        {
          "indexed": false,
          "name": "_to",
          "type": "address"
        },
        {
          "indexed": false,
          "name": "_amount",
          "type": "uint256"
        },
        {
          "indexed": false,
          "name": "_withdrawhash",
          "type": "bytes32"
        }
      ],
      "name": "WithdrawRequest",
      "type": "event"
    },
    {
      "anonymous": false,
      "inputs": [
        {
          "indexed": false,
          "name": "_withdrawRequestsHash",
          "type": "bytes32"
        },
        {
          "indexed": false,
          "name": "_transactionHash",
          "type": "bytes32"
        },
        {
          "indexed": false,
          "name": "_mainToken",
          "type": "address"
        },
        {
          "indexed": false,
          "name": "_recipient",
          "type": "address"
        },
        {
          "indexed": false,
          "name": "_amount",
          "type": "uint256"
        },
        {
          "indexed": false,
          "name": "_withdrawBlock",
          "type": "uint256"
        },
        {
          "indexed": false,
          "name": "_signer",
          "type": "address"
        },
        {
          "indexed": false,
          "name": "_v",
          "type": "uint8"
        },
        {
          "indexed": false,
          "name": "_r",
          "type": "bytes32"
        },
        {
          "indexed": false,
          "name": "_s",
          "type": "bytes32"
        }
      ],
      "name": "WithdrawRequestSigned",
      "type": "event"
    },
    {
      "anonymous": false,
      "inputs": [
        {
          "indexed": false,
          "name": "_withdrawRequestsHash",
          "type": "bytes32"
        },
        {
          "indexed": false,
          "name": "_transactionHash",
          "type": "bytes32"
        },
        {
          "indexed": false,
          "name": "_mainToken",
          "type": "address"
        },
        {
          "indexed": false,
          "name": "_recipient",
          "type": "address"
        },
        {
          "indexed": false,
          "name": "_amount",
          "type": "uint256"
        },
        {
          "indexed": false,
          "name": "_withdrawBlock",
          "type": "uint256"
        }
      ],
      "name": "WithdrawRequestGranted",
      "type": "event"
    },
    {
      "anonymous": false,
      "inputs": [
        {
          "indexed": false,
          "name": "validator",
          "type": "address"
        }
      ],
      "name": "ValidatorAdded",
      "type": "event"
    },
    {
      "anonymous": false,
      "inputs": [
        {
          "indexed": false,
          "name": "validator",
          "type": "address"
        }
      ],
      "name": "ValidatorRemoved",
      "type": "event"
    },
    {
      "anonymous": false,
      "inputs": [
        {
          "indexed": true,
          "name": "previousOwner",
          "type": "address"
        },
        {
          "indexed": true,
          "name": "newOwner",
          "type": "address"
        }
      ],
      "name": "OwnershipTransferred",
      "type": "event"
    },
    {
      "constant": false,
      "inputs": [
        {
          "name": "_mainToken",
          "type": "address"
        },
        {
          "name": "_foreignToken",
          "type": "address"
        }
      ],
      "name": "registerToken",
      "outputs": [],
      "payable": false,
      "stateMutability": "nonpayable",
      "type": "function"
    },
    {
      "constant": true,
      "inputs": [],
      "name": "tokens",
      "outputs": [
        {
          "name": "",
          "type": "address[]"
        }
      ],
      "payable": false,
      "stateMutability": "view",
      "type": "function"
    },
    {
      "constant": false,
      "inputs": [
        {
          "name": "_transactionHash",
          "type": "bytes32"
        },
        {
          "name": "_mainToken",
          "type": "address"
        },
        {
          "name": "_recipient",
          "type": "address"
        },
        {
          "name": "_amount",
          "type": "uint256"
        },
        {
          "name": "_v",
          "type": "uint8"
        },
        {
          "name": "_r",
          "type": "bytes32"
        },
        {
          "name": "_s",
          "type": "bytes32"
        }
      ],
      "name": "signMintRequest",
      "outputs": [],
      "payable": false,
      "stateMutability": "nonpayable",
      "type": "function"
    },
    {
      "constant": false,
      "inputs": [
        {
          "name": "_transactionHash",
          "type": "bytes32"
        },
        {
          "name": "_mainToken",
          "type": "address"
        },
        {
          "name": "_recipient",
          "type": "address"
        },
        {
          "name": "_amount",
          "type": "uint256"
        },
        {
          "name": "_withdrawBlock",
          "type": "uint256"
        },
        {
          "name": "_v",
          "type": "uint8"
        },
        {
          "name": "_r",
          "type": "bytes32"
        },
        {
          "name": "_s",
          "type": "bytes32"
        }
      ],
      "name": "signWithdrawRequest",
      "outputs": [],
      "payable": false,
      "stateMutability": "nonpayable",
      "type": "function"
    }
  ],
  "bytecode": "0x60606040526000805460a060020a60ff021916815560015534156200002357600080fd5b6040516200136938038062001369833981016040528080519190602001805160008054600160a060020a03191633600160a060020a0316178155920191839150829060ff831615156200007557600080fd5b8260ff16825110156200008757600080fd5b5060005b81518110156200013657620000c4828281518110620000a657fe5b90602001906020020151640100000000620010176200016082021704565b158015620000f257506000828281518110620000dc57fe5b90602001906020020151600160a060020a031614155b1515620000fe57600080fd5b6200012d8282815181106200010f57fe5b90602001906020020151640100000000620006296200018382021704565b6001016200008b565b6200014f8364010000000062000f086200023682021704565b8151600155506200029a9350505050565b600160a060020a031660009081526002602052604090205460ff16151560011490565b60005433600160a060020a039081169116146200019f57600080fd5b600160a060020a03811660009081526002602052604090205460ff16151560011415620001c857fe5b600160a060020a03811660009081526002602052604090819020805460ff191660019081179091558054810190557fe366c1c0452ed8eec96861e9e54141ebff23c9ec89fe27b996b45f5ec388498790829051600160a060020a03909116815260200160405180910390a150565b60005433600160a060020a039081169116146200025257600080fd5b60015460ff82169010156200026657600080fd5b6000805460ff909216740100000000000000000000000000000000000000000260a060020a60ff0219909216919091179055565b6110bf80620002aa6000396000f3006060604052600436106100e15763ffffffff60e060020a6000350416624aca6e81146100e65780630f43a67714610121578063332071b21461014657806340a141ff146101705780634739f7e5146101915780634d238c8e146101b65780636b40d32c146101d55780638da5cb5b1461020c57806397c875dd1461021f5780639a0ba2ea146102485780639d63848a1461025e5780639d866985146102c45780639dc32d9b146102da578063a2d8b3d9146102f0578063d2ddc5091461032a578063f2fde38b14610343578063fa52c7d814610362578063facd743b14610381575b600080fd5b34156100f157600080fd5b610105600160a060020a03600435166103a0565b604051600160a060020a03909116815260200160405180910390f35b341561012c57600080fd5b6101346103bb565b60405190815260200160405180910390f35b341561015157600080fd5b61015c6004356103c1565b604051901515815260200160405180910390f35b341561017b57600080fd5b61018f600160a060020a03600435166103d6565b005b341561019c57600080fd5b61018f600160a060020a0360043581169060243516610479565b34156101c157600080fd5b61018f600160a060020a0360043516610629565b34156101e057600080fd5b61018f600435600160a060020a036024358116906044351660643560ff6084351660a43560c4356106da565b341561021757600080fd5b610105610a93565b341561022a57600080fd5b610232610aa2565b60405160ff909116815260200160405180910390f35b341561025357600080fd5b610105600435610ab2565b341561026957600080fd5b610271610ada565b60405160208082528190810183818151815260200191508051906020019060200280838360005b838110156102b0578082015183820152602001610298565b505050509050019250505060405180910390f35b34156102cf57600080fd5b610232600435610b43565b34156102e557600080fd5b61015c600435610b58565b34156102fb57600080fd5b61018f600435600160a060020a036024358116906044351660643560843560ff60a4351660c43560e435610b6d565b341561033557600080fd5b61018f60ff60043516610f08565b341561034e57600080fd5b61018f600160a060020a0360043516610f67565b341561036d57600080fd5b61015c600160a060020a0360043516611002565b341561038c57600080fd5b61015c600160a060020a0360043516611017565b600760205260009081526040902054600160a060020a031681565b60015481565b60046020526000908152604090205460ff1681565b60005433600160a060020a039081169116146103f157600080fd5b60005460015460a060020a90910460ff16901161040d57600080fd5b600160a060020a03811660009081526002602052604090819020805460ff19169055600180546000190190557fe1434e25d6611e0db941968fdc97811c982ac1602e951637d206f5fdda9dd8f190829051600160a060020a03909116815260200160405180910390a150565b6000805433600160a060020a0390811691161461049557600080fd5b600160a060020a0380841660009081526007602052604090205416156104b757fe5b600160a060020a03831615156104c957fe5b600160a060020a03821615156104db57fe5b5080600160a060020a03811615156104ef57fe5b30600160a060020a031681600160a060020a0316638da5cb5b6040518163ffffffff1660e060020a028152600401602060405180830381600087803b151561053657600080fd5b5af1151561054357600080fd5b50505060405180519050600160a060020a031614151561055f57fe5b600160a060020a038381166000908152600760205260409020805473ffffffffffffffffffffffffffffffffffffffff191691831691909117905560088054600181016105ac838261103a565b506000918252602090912001805473ffffffffffffffffffffffffffffffffffffffff1916600160a060020a0385161790557fdffbd9ded1c09446f09377de547142dcce7dc541c8b0b028142b1eba7026b9e78383604051600160a060020a039283168152911660208201526040908101905180910390a1505050565b60005433600160a060020a0390811691161461064457600080fd5b600160a060020a03811660009081526002602052604090205460ff1615156001141561066c57fe5b600160a060020a03811660009081526002602052604090819020805460ff191660019081179091558054810190557fe366c1c0452ed8eec96861e9e54141ebff23c9ec89fe27b996b45f5ec388498790829051600160a060020a03909116815260200160405180910390a150565b600080808087116106e757fe5b600160a060020a03808a1660009081526007602052604090205416151561070a57fe5b60028a8a8a8a6040519384526c01000000000000000000000000600160a060020a0393841681026020808701919091529290931690920260348401526048830191909152606890910190604051808303816000865af1151561076b57600080fd5b5050604051805160008181526004602052604090205490945060ff16151560011415905061079557fe5b6001838787876040516000815260200160405260405193845260ff9092166020808501919091526040808501929092526060840192909252608090920191516020810390808403906000865af115156107ed57600080fd5b505060206040510351915061080182611017565b151561080957fe5b60028383604051918252600160a060020a03166c0100000000000000000000000002602080830191909152603490910190604051808303816000865af1151561085157600080fd5b5050604051805160008181526005602052604090205490925060ff16151560011415905061087b57fe5b6000818152600560209081526040808320805460ff1990811660019081179092558785526003909352908320805460ff818116909301831693169290921791829055915460a060020a900482169116101561097257600080548482526003602052604091829020548c927fee1beca1bb3e8214fb36c0fbf3158f614f4cd6c0ae3ccc2c2677ad6ea3af56519287928e928e928e9260ff60a060020a909204821692911690899051968752600160a060020a03958616602088015293909416604080870191909152606086019290925260ff908116608086015290921660a084015260c083015260e0909101905180910390a2610a87565b6000838152600460209081526040808320805460ff19166001179055600160a060020a03808d1684526007909252918290205416906340c10f19908a908a905160e060020a63ffffffff8516028152600160a060020a0390921660048301526024820152604401602060405180830381600087803b15156109f257600080fd5b5af115156109ff57600080fd5b50505060405180515050600160a060020a03808a1660009081526007602052604090819020548c927f2044011f3778ccb7a2f0837530cd9496e82534210c4514636389063db341931a928792909116908c908c9051938452600160a060020a039283166020850152911660408084019190915260608301919091526080909101905180910390a25b50505050505050505050565b600054600160a060020a031681565b60005460a060020a900460ff1681565b6008805482908110610ac057fe5b600091825260209091200154600160a060020a0316905081565b610ae2611063565b6008805480602002602001604051908101604052809291908181526020018280548015610b3857602002820191906000526020600020905b8154600160a060020a03168152600190910190602001808311610b1a575b505050505090505b90565b60036020526000908152604090205460ff1681565b60056020526000908152604090205460ff1681565b60008080808811610b7a57fe5b600160a060020a03808b16600090815260076020526040902054161515610b9d57fe5b60028a8a8a8a6040516c01000000000000000000000000600160a060020a0395861681028252939094169092026014840152602883015260488201526068016020604051808303816000865af11515610bf557600080fd5b5050604051805160008181526004602052604090205490945060ff161515600114159050610c1f57fe5b6001838787876040516000815260200160405260405193845260ff9092166020808501919091526040808501929092526060840192909252608090920191516020810390808403906000865af11515610c7757600080fd5b5050602060405103519150610c8b82611017565b1515610c9357fe5b60028383604051918252600160a060020a03166c0100000000000000000000000002602080830191909152603490910190604051808303816000865af11515610cdb57600080fd5b5050604051805160008181526005602052604090205490925060ff161515600114159050610d0557fe5b60008181526005602090815260408083208054600160ff199182168117909255878552600390935292819020805492831660ff9384169094019092169290921790557fb82025481ac2a3b54e840dee094ec9cc1ca34cfad2ed18439daaab27cac4223c9084908d908d908d908d908d9089908e908e908e9051998a5260208a0198909852600160a060020a039687166040808b019190915295871660608a0152608089019490945260a088019290925290931660c086015260ff90921660e0850152610100840191909152610120830191909152610140909101905180910390a160008054848252600360205260409091205460ff60a060020a9092048216911610610efb576000838152600460209081526040808320805460ff19166001179055600160a060020a03808e1684526007909252918290205416906342966c68908a905160e060020a63ffffffff84160281526004810191909152602401600060405180830381600087803b1515610e7c57600080fd5b5af11515610e8957600080fd5b5050507f0b71218d879929fc299f0f1207178cc1ef7b63249e1ae1bfb4a3e79cc3f2b9e1838c8c8c8c8c6040519586526020860194909452600160a060020a03928316604080870191909152919092166060850152608084019190915260a083019190915260c0909101905180910390a15b5050505050505050505050565b60005433600160a060020a03908116911614610f2357600080fd5b60015460ff8216901015610f3657600080fd5b6000805460ff90921660a060020a0274ff000000000000000000000000000000000000000019909216919091179055565b60005433600160a060020a03908116911614610f8257600080fd5b600160a060020a0381161515610f9757600080fd5b600054600160a060020a0380831691167f8be0079c531659141344cd1fd0a4f28419497f9722a3daafe3b4186f6b6457e060405160405180910390a36000805473ffffffffffffffffffffffffffffffffffffffff1916600160a060020a0392909216919091179055565b60066020526000908152604090205460ff1681565b600160a060020a031660009081526002602052604090205460ff16151560011490565b81548183558181151161105e5760008381526020902061105e918101908301611075565b505050565b60206040519081016040526000815290565b610b4091905b8082111561108f576000815560010161107b565b50905600a165627a7a723058205969de1acd8f2482146b1d5dd939adec56c44d1fc99be23265a121ec30510b5f0029",
  "source": "pragma solidity ^0.4.18;\n\nimport 'openzeppelin-solidity/contracts/ownership/Ownable.sol';\nimport 'openzeppelin-solidity/contracts/token/ERC20/BurnableToken.sol';\nimport 'openzeppelin-solidity/contracts/token/ERC20/MintableToken.sol';\nimport './Validatable.sol';\n\ncontract ForeignBridge is Ownable, Validatable {\n\n\tmapping(bytes32=>uint8) public requests;\n\tmapping(bytes32=>bool) public requestsDone;\n\tmapping(bytes32=>bool) public signedRequests;\n\n\tmapping(address=>bool) public validators;\n\n\t// maps home token addresses -> foreign token addresses\n\tmapping(address=>address) public tokenMap;\n    address[] public registeredTokens;\n\n\tevent TokenAdded(address _mainToken,address _sideToken);\n\tevent MintRequestSigned(bytes32 _mintRequestsHash, bytes32 indexed _transactionHash,address _mainToken, address _recipient,uint256 _amount,uint8 _requiredSignatures,uint8 _signatureCount,bytes32 _signRequestHash);\n\tevent MintRequestExecuted(bytes32 _mintRequestsHash, bytes32 indexed _transactionHash,address _mainToken, address _recipient,uint256 _amount);\n\n\tevent WithdrawRequest(address _to,uint256 _amount,bytes32 _withdrawhash);\n\tevent WithdrawRequestSigned(bytes32 _withdrawRequestsHash, bytes32 _transactionHash,address _mainToken, address _recipient,uint256 _amount,uint256 _withdrawBlock,address _signer, uint8 _v, bytes32 _r, bytes32 _s);\n\tevent WithdrawRequestGranted(bytes32 _withdrawRequestsHash, bytes32 _transactionHash,address _mainToken, address _recipient,uint256 _amount,uint256 _withdrawBlock);\n\n\tfunction ForeignBridge(uint8 _requiredValidators,address[] _initialValidators) Validatable(_requiredValidators,_initialValidators) public {\n\t}\n\n\t// Register ERC20 token on the home net and its counterpart token on the foreign net.\n\tfunction registerToken(address _mainToken, address _foreignToken) public onlyOwner {\n\t\tassert(tokenMap[_mainToken] == 0);\n\n\t\tassert(_mainToken != 0x0);\n\t\tassert(_foreignToken != 0x0);\n\n\t\tOwnable t = Ownable(_foreignToken);\n\n\t\tassert(address(t) != 0x0);\n\t\tassert(t.owner() == address(this));\n\n\t\ttokenMap[_mainToken] = t;\n\t\tregisteredTokens.push(_mainToken);\n\t\temit TokenAdded(_mainToken, _foreignToken);\n\t}\n\n\tfunction tokens() public view returns(address[]) {\n\t\t\treturn registeredTokens;\n\t}\n\n\tfunction signMintRequest(bytes32 _transactionHash,address _mainToken, address _recipient,uint256 _amount,uint8 _v, bytes32 _r, bytes32 _s) public {\n\t\tassert(_amount > 0);\n\n\t\t// Token should be registered\n\t\tassert(tokenMap[_mainToken] != 0x0);\n\n\t\t// Unique hash for this request\n\t\tbytes32 reqHash = sha256(_transactionHash,_mainToken,_recipient,_amount);\n\n\t\t// Request shouldnt be done\n\t\tassert(requestsDone[reqHash] != true);\n\n\t\taddress validator = ecrecover(reqHash, _v, _r, _s);\n\t\tassert(isValidator(validator));\n\n\t\t// Request shouldnt already be signed by validator\n\t\tbytes32 signRequestHash = sha256(reqHash,validator);\n\t\tassert(signedRequests[signRequestHash] != true);\n\t\tsignedRequests[signRequestHash] = true;\n\t\t\n\t\trequests[reqHash]++;\n\t\tif (requests[reqHash] < requiredValidators) {\n\t\t\temit MintRequestSigned(reqHash, _transactionHash, _mainToken,  _recipient, _amount, requiredValidators, requests[reqHash], signRequestHash);\n\t\t} else {\n\t\t\trequestsDone[reqHash] = true;\n\t\t\tMintableToken(tokenMap[_mainToken]).mint(_recipient,_amount);\n\t\t\temit MintRequestExecuted(reqHash,_transactionHash, tokenMap[_mainToken],  _recipient, _amount);\n\t\t}\n\t}\n\n\tfunction signWithdrawRequest(bytes32 _transactionHash,address _mainToken, address _recipient,uint256 _amount,uint256 _withdrawBlock,uint8 _v, bytes32 _r, bytes32 _s) public {\n\t\tassert(_amount > 0);\n\n\t\t// Token should be registered\n\t\tassert(tokenMap[_mainToken] != 0x0);\n\n\t\t// Unique hash for this request\n\t\tbytes32 reqHash = sha256(_mainToken,_recipient,_amount,_withdrawBlock);\n\n\t\t// Request shouldnt be done\n\t\tassert(requestsDone[reqHash] != true);\n\n\t\taddress validator = ecrecover(reqHash, _v, _r, _s);\n\t\tassert(isValidator(validator));\t\t\n\n\t\t// Request shouldnt already be signed by validator\n\t\tbytes32 signRequestHash = sha256(reqHash,validator);\n\t\tassert(signedRequests[signRequestHash] != true);\n\t\tsignedRequests[signRequestHash] = true;\n\n\t\trequests[reqHash]++;\n\n\t\temit WithdrawRequestSigned(reqHash, _transactionHash, _mainToken,  _recipient, _amount, _withdrawBlock, validator, _v, _r, _s);\n\n\t\tif (requests[reqHash] >= requiredValidators) {\n\t\t\trequestsDone[reqHash] = true;\n\n\t\t\t// Burn the tokens we received\n\t\t\tBurnableToken(tokenMap[_mainToken]).burn(_amount);\n\n\t\t\temit WithdrawRequestGranted(reqHash, _transactionHash, _mainToken, _recipient, _amount, _withdrawBlock);\n\t\t}\n\t}\n\n\n\n}\n\n",
  "sourcePath": "/Users/thomas/Projecten/bridge/erc20-bridge/contracts/ForeignBridge.sol",
  "compiler": {
    "name": "solc",
    "version": "0.4.21+commit.dfe3193c.Emscripten.clang"
  },
  "schemaVersion": "2.0.0",
  "updatedAt": "2018-07-20T07:25:21.222Z"
}