{
  "contractName": "ForeignBridge",
  "abi": [
    {
      "constant": true,
      "inputs": [
        {
          "name": "",
          "type": "address"
        }
      ],
      "name": "tokenMap",
      "outputs": [
        {
          "name": "",
          "type": "address"
        }
      ],
      "payable": false,
      "stateMutability": "view",
      "type": "function"
    },
    {
      "constant": true,
      "inputs": [],
      "name": "validatorCount",
      "outputs": [
        {
          "name": "",
          "type": "uint256"
        }
      ],
      "payable": false,
      "stateMutability": "view",
      "type": "function"
    },
    {
      "constant": true,
      "inputs": [
        {
          "name": "",
          "type": "bytes32"
        }
      ],
      "name": "requestsDone",
      "outputs": [
        {
          "name": "",
          "type": "bool"
        }
      ],
      "payable": false,
      "stateMutability": "view",
      "type": "function"
    },
    {
      "constant": false,
      "inputs": [
        {
          "name": "_validator",
          "type": "address"
        }
      ],
      "name": "removeValidator",
      "outputs": [],
      "payable": false,
      "stateMutability": "nonpayable",
      "type": "function"
    },
    {
      "constant": false,
      "inputs": [
        {
          "name": "_validator",
          "type": "address"
        }
      ],
      "name": "addValidator",
      "outputs": [],
      "payable": false,
      "stateMutability": "nonpayable",
      "type": "function"
    },
    {
      "constant": false,
      "inputs": [],
      "name": "renounceOwnership",
      "outputs": [],
      "payable": false,
      "stateMutability": "nonpayable",
      "type": "function"
    },
    {
      "constant": true,
      "inputs": [],
      "name": "owner",
      "outputs": [
        {
          "name": "",
          "type": "address"
        }
      ],
      "payable": false,
      "stateMutability": "view",
      "type": "function"
    },
    {
      "constant": true,
      "inputs": [],
      "name": "requiredValidators",
      "outputs": [
        {
          "name": "",
          "type": "uint8"
        }
      ],
      "payable": false,
      "stateMutability": "view",
      "type": "function"
    },
    {
      "constant": true,
      "inputs": [
        {
          "name": "",
          "type": "uint256"
        }
      ],
      "name": "registeredTokens",
      "outputs": [
        {
          "name": "",
          "type": "address"
        }
      ],
      "payable": false,
      "stateMutability": "view",
      "type": "function"
    },
    {
      "constant": true,
      "inputs": [
        {
          "name": "",
          "type": "bytes32"
        }
      ],
      "name": "requests",
      "outputs": [
        {
          "name": "",
          "type": "uint8"
        }
      ],
      "payable": false,
      "stateMutability": "view",
      "type": "function"
    },
    {
      "constant": true,
      "inputs": [
        {
          "name": "",
          "type": "bytes32"
        }
      ],
      "name": "signedRequests",
      "outputs": [
        {
          "name": "",
          "type": "bool"
        }
      ],
      "payable": false,
      "stateMutability": "view",
      "type": "function"
    },
    {
      "constant": false,
      "inputs": [
        {
          "name": "_requiredValidators",
          "type": "uint8"
        }
      ],
      "name": "setRequiredValidators",
      "outputs": [],
      "payable": false,
      "stateMutability": "nonpayable",
      "type": "function"
    },
    {
      "constant": false,
      "inputs": [
        {
          "name": "_newOwner",
          "type": "address"
        }
      ],
      "name": "transferOwnership",
      "outputs": [],
      "payable": false,
      "stateMutability": "nonpayable",
      "type": "function"
    },
    {
      "constant": true,
      "inputs": [
        {
          "name": "",
          "type": "address"
        }
      ],
      "name": "validators",
      "outputs": [
        {
          "name": "",
          "type": "bool"
        }
      ],
      "payable": false,
      "stateMutability": "view",
      "type": "function"
    },
    {
      "constant": true,
      "inputs": [
        {
          "name": "_validator",
          "type": "address"
        }
      ],
      "name": "isValidator",
      "outputs": [
        {
          "name": "",
          "type": "bool"
        }
      ],
      "payable": false,
      "stateMutability": "view",
      "type": "function"
    },
    {
      "inputs": [
        {
          "name": "_requiredValidators",
          "type": "uint8"
        },
        {
          "name": "_initialValidators",
          "type": "address[]"
        }
      ],
      "payable": false,
      "stateMutability": "nonpayable",
      "type": "constructor"
    },
    {
      "anonymous": false,
      "inputs": [
        {
          "indexed": false,
          "name": "_mainToken",
          "type": "address"
        },
        {
          "indexed": false,
          "name": "_sideToken",
          "type": "address"
        }
      ],
      "name": "TokenAdded",
      "type": "event"
    },
    {
      "anonymous": false,
      "inputs": [
        {
          "indexed": false,
          "name": "_mintRequestsHash",
          "type": "bytes32"
        },
        {
          "indexed": true,
          "name": "_transactionHash",
          "type": "bytes32"
        },
        {
          "indexed": false,
          "name": "_mainToken",
          "type": "address"
        },
        {
          "indexed": false,
          "name": "_recipient",
          "type": "address"
        },
        {
          "indexed": false,
          "name": "_amount",
          "type": "uint256"
        },
        {
          "indexed": false,
          "name": "_requiredSignatures",
          "type": "uint8"
        },
        {
          "indexed": false,
          "name": "_signatureCount",
          "type": "uint8"
        },
        {
          "indexed": false,
          "name": "_signRequestHash",
          "type": "bytes32"
        }
      ],
      "name": "MintRequestSigned",
      "type": "event"
    },
    {
      "anonymous": false,
      "inputs": [
        {
          "indexed": false,
          "name": "_mintRequestsHash",
          "type": "bytes32"
        },
        {
          "indexed": true,
          "name": "_transactionHash",
          "type": "bytes32"
        },
        {
          "indexed": false,
          "name": "_mainToken",
          "type": "address"
        },
        {
          "indexed": false,
          "name": "_recipient",
          "type": "address"
        },
        {
          "indexed": false,
          "name": "_amount",
          "type": "uint256"
        }
      ],
      "name": "MintRequestExecuted",
      "type": "event"
    },
    {
      "anonymous": false,
      "inputs": [
        {
          "indexed": false,
          "name": "_withdrawRequestsHash",
          "type": "bytes32"
        },
        {
          "indexed": false,
          "name": "_transactionHash",
          "type": "bytes32"
        },
        {
          "indexed": false,
          "name": "_mainToken",
          "type": "address"
        },
        {
          "indexed": false,
          "name": "_recipient",
          "type": "address"
        },
        {
          "indexed": false,
          "name": "_amount",
          "type": "uint256"
        },
        {
          "indexed": false,
          "name": "_withdrawBlock",
          "type": "uint256"
        },
        {
          "indexed": false,
          "name": "_signer",
          "type": "address"
        },
        {
          "indexed": false,
          "name": "_v",
          "type": "uint8"
        },
        {
          "indexed": false,
          "name": "_r",
          "type": "bytes32"
        },
        {
          "indexed": false,
          "name": "_s",
          "type": "bytes32"
        }
      ],
      "name": "WithdrawRequestSigned",
      "type": "event"
    },
    {
      "anonymous": false,
      "inputs": [
        {
          "indexed": false,
          "name": "_withdrawRequestsHash",
          "type": "bytes32"
        },
        {
          "indexed": false,
          "name": "_transactionHash",
          "type": "bytes32"
        },
        {
          "indexed": false,
          "name": "_mainToken",
          "type": "address"
        },
        {
          "indexed": false,
          "name": "_recipient",
          "type": "address"
        },
        {
          "indexed": false,
          "name": "_amount",
          "type": "uint256"
        },
        {
          "indexed": false,
          "name": "_withdrawBlock",
          "type": "uint256"
        }
      ],
      "name": "WithdrawRequestGranted",
      "type": "event"
    },
    {
      "anonymous": false,
      "inputs": [
        {
          "indexed": false,
          "name": "validator",
          "type": "address"
        }
      ],
      "name": "ValidatorAdded",
      "type": "event"
    },
    {
      "anonymous": false,
      "inputs": [
        {
          "indexed": false,
          "name": "validator",
          "type": "address"
        }
      ],
      "name": "ValidatorRemoved",
      "type": "event"
    },
    {
      "anonymous": false,
      "inputs": [
        {
          "indexed": true,
          "name": "previousOwner",
          "type": "address"
        }
      ],
      "name": "OwnershipRenounced",
      "type": "event"
    },
    {
      "anonymous": false,
      "inputs": [
        {
          "indexed": true,
          "name": "previousOwner",
          "type": "address"
        },
        {
          "indexed": true,
          "name": "newOwner",
          "type": "address"
        }
      ],
      "name": "OwnershipTransferred",
      "type": "event"
    },
    {
      "constant": false,
      "inputs": [
        {
          "name": "_mainToken",
          "type": "address"
        },
        {
          "name": "_foreignToken",
          "type": "address"
        }
      ],
      "name": "registerToken",
      "outputs": [],
      "payable": false,
      "stateMutability": "nonpayable",
      "type": "function"
    },
    {
      "constant": true,
      "inputs": [],
      "name": "tokens",
      "outputs": [
        {
          "name": "",
          "type": "address[]"
        }
      ],
      "payable": false,
      "stateMutability": "view",
      "type": "function"
    },
    {
      "constant": false,
      "inputs": [
        {
          "name": "_transactionHash",
          "type": "bytes32"
        },
        {
          "name": "_mainToken",
          "type": "address"
        },
        {
          "name": "_recipient",
          "type": "address"
        },
        {
          "name": "_amount",
          "type": "uint256"
        },
        {
          "name": "_v",
          "type": "uint8"
        },
        {
          "name": "_r",
          "type": "bytes32"
        },
        {
          "name": "_s",
          "type": "bytes32"
        }
      ],
      "name": "signMintRequest",
      "outputs": [],
      "payable": false,
      "stateMutability": "nonpayable",
      "type": "function"
    },
    {
      "constant": false,
      "inputs": [
        {
          "name": "_transactionHash",
          "type": "bytes32"
        },
        {
          "name": "_mainToken",
          "type": "address"
        },
        {
          "name": "_recipient",
          "type": "address"
        },
        {
          "name": "_amount",
          "type": "uint256"
        },
        {
          "name": "_withdrawBlock",
          "type": "uint256"
        },
        {
          "name": "_v",
          "type": "uint8"
        },
        {
          "name": "_r",
          "type": "bytes32"
        },
        {
          "name": "_s",
          "type": "bytes32"
        }
      ],
      "name": "signWithdrawRequest",
      "outputs": [],
      "payable": false,
      "stateMutability": "nonpayable",
      "type": "function"
    }
  ],
  "bytecode": "0x60806040526000805460a060020a60ff02191681556001553480156200002457600080fd5b506040516200141438038062001414833981016040528051602082015160008054600160a060020a03191633178155919201908290829060ff831615156200006b57600080fd5b815160ff841611156200007d57600080fd5b5060005b81518110156200013557620000bd82828151811015156200009e57fe5b9060200190602002015162000158640100000000026401000000009004565b158015620000ee57508151600090839083908110620000d857fe5b90602001906020020151600160a060020a031614155b1515620000fa57600080fd5b6200012c82828151811015156200010d57fe5b906020019060200201516200017b640100000000026401000000009004565b60010162000081565b620001498364010000000062000220810204565b5051600155506200027f915050565b600160a060020a031660009081526002602052604090205460ff16151560011490565b600054600160a060020a031633146200019357600080fd5b600160a060020a03811660009081526002602052604090205460ff16151560011415620001bc57fe5b600160a060020a038116600081815260026020908152604091829020805460ff19166001908117909155805481019055815192835290517fe366c1c0452ed8eec96861e9e54141ebff23c9ec89fe27b996b45f5ec38849879281900390910190a150565b600054600160a060020a031633146200023857600080fd5b60015460ff821611156200024b57600080fd5b6000805460ff909216740100000000000000000000000000000000000000000260a060020a60ff0219909216919091179055565b611185806200028f6000396000f3006080604052600436106101055763ffffffff7c01000000000000000000000000000000000000000000000000000000006000350416624aca6e811461010a5780630f43a67714610147578063332071b21461016e57806340a141ff1461019a5780634739f7e5146101bd5780634d238c8e146101e45780636b40d32c14610205578063715018a61461023e5780638da5cb5b1461025357806397c875dd146102685780639a0ba2ea146102935780639d63848a146102ab5780639d866985146103105780639dc32d9b14610328578063a2d8b3d914610340578063d2ddc5091461037c578063f2fde38b14610397578063fa52c7d8146103b8578063facd743b146103d9575b600080fd5b34801561011657600080fd5b5061012b600160a060020a03600435166103fa565b60408051600160a060020a039092168252519081900360200190f35b34801561015357600080fd5b5061015c610415565b60408051918252519081900360200190f35b34801561017a57600080fd5b5061018660043561041b565b604080519115158252519081900360200190f35b3480156101a657600080fd5b506101bb600160a060020a0360043516610430565b005b3480156101c957600080fd5b506101bb600160a060020a03600435811690602435166104c4565b3480156101f057600080fd5b506101bb600160a060020a036004351661068c565b34801561021157600080fd5b506101bb600435600160a060020a036024358116906044351660643560ff6084351660a43560c43561072f565b34801561024a57600080fd5b506101bb610b13565b34801561025f57600080fd5b5061012b610b7f565b34801561027457600080fd5b5061027d610b8e565b6040805160ff9092168252519081900360200190f35b34801561029f57600080fd5b5061012b600435610b9e565b3480156102b757600080fd5b506102c0610bc6565b60408051602080825283518183015283519192839290830191858101910280838360005b838110156102fc5781810151838201526020016102e4565b505050509050019250505060405180910390f35b34801561031c57600080fd5b5061027d600435610c28565b34801561033457600080fd5b50610186600435610c3d565b34801561034c57600080fd5b506101bb600435600160a060020a036024358116906044351660643560843560ff60a4351660c43560e435610c52565b34801561038857600080fd5b506101bb60ff60043516611027565b3480156103a357600080fd5b506101bb600160a060020a0360043516611081565b3480156103c457600080fd5b50610186600160a060020a03600435166110a4565b3480156103e557600080fd5b50610186600160a060020a03600435166110b9565b600760205260009081526040902054600160a060020a031681565b60015481565b60046020526000908152604090205460ff1681565b600054600160a060020a0316331461044757600080fd5b60005460015460a060020a90910460ff161061046257600080fd5b600160a060020a038116600081815260026020908152604091829020805460ff1916905560018054600019019055815192835290517fe1434e25d6611e0db941968fdc97811c982ac1602e951637d206f5fdda9dd8f19281900390910190a150565b60008054600160a060020a031633146104dc57600080fd5b600160a060020a0380841660009081526007602052604090205416156104fe57fe5b600160a060020a038316151561051057fe5b600160a060020a038216151561052257fe5b5080600160a060020a038116151561053657fe5b30600160a060020a031681600160a060020a031663f77c47916040518163ffffffff167c0100000000000000000000000000000000000000000000000000000000028152600401602060405180830381600087803b15801561059757600080fd5b505af11580156105ab573d6000803e3d6000fd5b505050506040513d60208110156105c157600080fd5b5051600160a060020a0316146105d357fe5b600160a060020a038084166000818152600760209081526040808320805486881673ffffffffffffffffffffffffffffffffffffffff19918216179091556008805460018101825594527ff3f7a9fe364faab93b216da50a3214154f22a0a2b415b23a84c8169e8b636ee39093018054909316841790925581519283529285169282019290925281517fdffbd9ded1c09446f09377de547142dcce7dc541c8b0b028142b1eba7026b9e7929181900390910190a1505050565b600054600160a060020a031633146106a357600080fd5b600160a060020a03811660009081526002602052604090205460ff161515600114156106cb57fe5b600160a060020a038116600081815260026020908152604091829020805460ff19166001908117909155805481019055815192835290517fe366c1c0452ed8eec96861e9e54141ebff23c9ec89fe27b996b45f5ec38849879281900390910190a150565b6000808080871161073c57fe5b600160a060020a03808a1660009081526007602052604090205416151561075f57fe5b604080518b8152600160a060020a038b81166c01000000000000000000000000908102602080850191909152918c16026034830152604882018a9052915160029260688084019391929182900301816000865af11580156107c4573d6000803e3d6000fd5b5050506040513d60208110156107d957600080fd5b505160008181526004602052604090205490935060ff161515600114156107fc57fe5b604080516000808252602080830180855287905260ff8a16838501526060830189905260808301889052925160019360a0808501949193601f19840193928390039091019190865af1158015610856573d6000803e3d6000fd5b50505060206040510351915061086b826110b9565b151561087357fe5b604080518481526c01000000000000000000000000600160a060020a03851602602080830191909152915160029260348084019391929182900301816000865af11580156108c5573d6000803e3d6000fd5b5050506040513d60208110156108da57600080fd5b505160008181526005602052604090205490915060ff161515600114156108fd57fe5b6000818152600560209081526040808320805460ff1990811660019081179092558785526003909352908320805460ff818116909301831693169290921791829055915460a060020a90048216911610156109e0576000805484825260036020908152604092839020548351878152600160a060020a03808f1693820193909352918c1682850152606082018b905260ff60a060020a9093048316608083015290911660a082015260c0810183905290518b917fee1beca1bb3e8214fb36c0fbf3158f614f4cd6c0ae3ccc2c2677ad6ea3af5651919081900360e00190a2610b07565b6000838152600460208181526040808420805460ff19166001179055600160a060020a03808e168552600783528185205482517f827f32c00000000000000000000000000000000000000000000000000000000081528e831695810195909552602485018d9052915191169363827f32c0936044808201949392918390030190829087803b158015610a7157600080fd5b505af1158015610a85573d6000803e3d6000fd5b505050506040513d6020811015610a9b57600080fd5b5050600160a060020a03808a1660009081526007602090815260409182902054825187815290841691810191909152918a168282015260608201899052518b917f2044011f3778ccb7a2f0837530cd9496e82534210c4514636389063db341931a919081900360800190a25b50505050505050505050565b600054600160a060020a03163314610b2a57600080fd5b60008054604051600160a060020a03909116917ff8df31144d9c2f0f6b59d69b8b98abd5459d07f2742c4df920b25aae33c6482091a26000805473ffffffffffffffffffffffffffffffffffffffff19169055565b600054600160a060020a031681565b60005460a060020a900460ff1681565b6008805482908110610bac57fe5b600091825260209091200154600160a060020a0316905081565b60606008805480602002602001604051908101604052809291908181526020018280548015610c1e57602002820191906000526020600020905b8154600160a060020a03168152600190910190602001808311610c00575b5050505050905090565b60036020526000908152604090205460ff1681565b60056020526000908152604090205460ff1681565b60008080808811610c5f57fe5b600160a060020a03808b16600090815260076020526040902054161515610c8257fe5b604080516c01000000000000000000000000600160a060020a03808e16820283528c16026014820152602881018a905260488101899052905160029160688082019260209290919082900301816000865af1158015610ce5573d6000803e3d6000fd5b5050506040513d6020811015610cfa57600080fd5b505160008181526004602052604090205490935060ff16151560011415610d1d57fe5b604080516000808252602080830180855287905260ff8a16838501526060830189905260808301889052925160019360a0808501949193601f19840193928390039091019190865af1158015610d77573d6000803e3d6000fd5b505050602060405103519150610d8c826110b9565b1515610d9457fe5b604080518481526c01000000000000000000000000600160a060020a03851602602080830191909152915160029260348084019391929182900301816000865af1158015610de6573d6000803e3d6000fd5b5050506040513d6020811015610dfb57600080fd5b505160008181526005602052604090205490915060ff16151560011415610e1e57fe5b6000818152600560209081526040808320805460ff1990811660019081179092558785526003845293829020805460ff818116909301831695169490941790935580518681529182018e9052600160a060020a03808e1683830152808d166060840152608083018c905260a083018b9052851660c083015291881660e08201526101008101879052610120810186905290517fb82025481ac2a3b54e840dee094ec9cc1ca34cfad2ed18439daaab27cac4223c918190036101400190a160008054848252600360205260409091205460ff60a060020a909204821691161061101a576000838152600460208181526040808420805460ff19166001179055600160a060020a03808f168552600783528185205482517fd3ce77fe0000000000000000000000000000000000000000000000000000000081523095810195909552602485018e9052915191169363d3ce77fe936044808201949392918390030190829087803b158015610f8f57600080fd5b505af1158015610fa3573d6000803e3d6000fd5b505050506040513d6020811015610fb957600080fd5b505060408051848152602081018d9052600160a060020a03808d16828401528b166060820152608081018a905260a0810189905290517f0b71218d879929fc299f0f1207178cc1ef7b63249e1ae1bfb4a3e79cc3f2b9e19181900360c00190a15b5050505050505050505050565b600054600160a060020a0316331461103e57600080fd5b60015460ff8216111561105057600080fd5b6000805460ff90921660a060020a0274ff000000000000000000000000000000000000000019909216919091179055565b600054600160a060020a0316331461109857600080fd5b6110a1816110dc565b50565b60066020526000908152604090205460ff1681565b600160a060020a031660009081526002602052604090205460ff16151560011490565b600160a060020a03811615156110f157600080fd5b60008054604051600160a060020a03808516939216917f8be0079c531659141344cd1fd0a4f28419497f9722a3daafe3b4186f6b6457e091a36000805473ffffffffffffffffffffffffffffffffffffffff1916600160a060020a03929092169190911790555600a165627a7a72305820dc49cc98276ddcce0cdbaeb696032fa83c9eacc22a77cb78f5d4f354ad27a81c0029",
  "source": "pragma solidity ^0.4.19;\n\nimport './external/Ownable.sol';\nimport './Validatable.sol';\nimport './DTXToken.sol';\n\ncontract ForeignBridge is Ownable, Validatable {\n\n\tmapping(bytes32=>uint8) public requests;\n\tmapping(bytes32=>bool) public requestsDone;\n\tmapping(bytes32=>bool) public signedRequests;\n\n\tmapping(address=>bool) public validators;\n\n\t// maps home token addresses -> foreign token addresses\n\tmapping(address=>address) public tokenMap;\n    address[] public registeredTokens;\n\n\tevent TokenAdded(address _mainToken,address _sideToken);\n\tevent MintRequestSigned(bytes32 _mintRequestsHash, bytes32 indexed _transactionHash,address _mainToken, address _recipient,uint256 _amount,uint8 _requiredSignatures,uint8 _signatureCount,bytes32 _signRequestHash);\n\tevent MintRequestExecuted(bytes32 _mintRequestsHash, bytes32 indexed _transactionHash,address _mainToken, address _recipient,uint256 _amount);\n\n\tevent WithdrawRequestSigned(bytes32 _withdrawRequestsHash, bytes32 _transactionHash,address _mainToken, address _recipient,uint256 _amount,uint256 _withdrawBlock,address _signer, uint8 _v, bytes32 _r, bytes32 _s);\n\tevent WithdrawRequestGranted(bytes32 _withdrawRequestsHash, bytes32 _transactionHash,address _mainToken, address _recipient,uint256 _amount,uint256 _withdrawBlock);\n\n\tfunction ForeignBridge(uint8 _requiredValidators,address[] _initialValidators) Validatable(_requiredValidators,_initialValidators) public {\n\t}\n\n\t// Register ERC20 token on the home net and its counterpart token on the foreign net.\n\tfunction registerToken(address _mainToken, address _foreignToken) public onlyOwner {\n\t\tassert(tokenMap[_mainToken] == 0);\n\n\t\tassert(_mainToken != 0x0);\n\t\tassert(_foreignToken != 0x0);\n\n\t\tDTXToken t = DTXToken(_foreignToken);\n\n\t\tassert(address(t) != 0x0);\n\t\tassert(t.controller() == address(this));\n\n\t\ttokenMap[_mainToken] = t;\n\t\tregisteredTokens.push(_mainToken);\n\t\temit TokenAdded(_mainToken, _foreignToken);\n\t}\n\n\tfunction tokens() public view returns(address[]) {\n\t\t\treturn registeredTokens;\n\t}\n\n\tfunction signMintRequest(bytes32 _transactionHash,address _mainToken, address _recipient,uint256 _amount,uint8 _v, bytes32 _r, bytes32 _s) public {\n\t\tassert(_amount > 0);\n\n\t\t// Token should be registered\n\t\tassert(tokenMap[_mainToken] != 0x0);\n\n\t\t// Unique hash for this request\n\t\tbytes32 reqHash = sha256(_transactionHash,_mainToken,_recipient,_amount);\n\n\t\t// Request shouldnt be done\n\t\tassert(requestsDone[reqHash] != true);\n\n\t\taddress validator = ecrecover(reqHash, _v, _r, _s);\n\t\tassert(isValidator(validator));\n\n\t\t// Request shouldnt already be signed by validator\n\t\tbytes32 signRequestHash = sha256(reqHash,validator);\n\t\tassert(signedRequests[signRequestHash] != true);\n\t\tsignedRequests[signRequestHash] = true;\n\t\t\n\t\trequests[reqHash]++;\n\t\tif (requests[reqHash] < requiredValidators) {\n\t\t\temit MintRequestSigned(reqHash, _transactionHash, _mainToken,  _recipient, _amount, requiredValidators, requests[reqHash], signRequestHash);\n\t\t} else {\n\t\t\trequestsDone[reqHash] = true;\n\t\t\tDTXToken(tokenMap[_mainToken]).generateTokens(_recipient,_amount);\n\t\t\temit MintRequestExecuted(reqHash,_transactionHash, tokenMap[_mainToken],  _recipient, _amount);\n\t\t}\n\t}\n\n\tfunction signWithdrawRequest(bytes32 _transactionHash,address _mainToken, address _recipient,uint256 _amount,uint256 _withdrawBlock,uint8 _v, bytes32 _r, bytes32 _s) public {\n\t\tassert(_amount > 0);\n\n\t\t// Token should be registered\n\t\tassert(tokenMap[_mainToken] != 0x0);\n\n\t\t// Unique hash for this request\n\t\tbytes32 reqHash = sha256(_mainToken,_recipient,_amount,_withdrawBlock);\n\n\t\t// Request shouldnt be done\n\t\tassert(requestsDone[reqHash] != true);\n\n\t\taddress validator = ecrecover(reqHash, _v, _r, _s);\n\t\tassert(isValidator(validator));\t\t\n\n\t\t// Request shouldnt already be signed by validator\n\t\tbytes32 signRequestHash = sha256(reqHash,validator);\n\t\tassert(signedRequests[signRequestHash] != true);\n\t\tsignedRequests[signRequestHash] = true;\n\n\t\trequests[reqHash]++;\n\n\t\temit WithdrawRequestSigned(reqHash, _transactionHash, _mainToken,  _recipient, _amount, _withdrawBlock, validator, _v, _r, _s);\n\n\t\tif (requests[reqHash] >= requiredValidators) {\n\t\t\trequestsDone[reqHash] = true;\n\n\t\t\t// Burn the tokens we received\n\t\t\tDTXToken(tokenMap[_mainToken]).destroyTokens(address(this), _amount);\n\n\t\t\temit WithdrawRequestGranted(reqHash, _transactionHash, _mainToken, _recipient, _amount, _withdrawBlock);\n\t\t}\n\t}\n\n\n\n}\n\n",
  "sourcePath": "/Users/thomas/Projecten/bridge/erc20-bridge/contracts/ForeignBridge.sol",
  "compiler": {
    "name": "solc",
    "version": "0.4.24+commit.e67f0147.Emscripten.clang"
  },
  "schemaVersion": "2.0.1",
  "updatedAt": "2018-07-31T12:45:08.260Z"
}