{
  "contractName": "ForeignERC777Bridge",
  "abi": [
    {
      "constant": true,
      "inputs": [
        {
          "name": "",
          "type": "address"
        }
      ],
      "name": "tokenMap",
      "outputs": [
        {
          "name": "",
          "type": "address"
        }
      ],
      "payable": false,
      "stateMutability": "view",
      "type": "function"
    },
    {
      "constant": true,
      "inputs": [
        {
          "name": "",
          "type": "bytes32"
        }
      ],
      "name": "withdrawRequests",
      "outputs": [
        {
          "name": "",
          "type": "uint8"
        }
      ],
      "payable": false,
      "stateMutability": "view",
      "type": "function"
    },
    {
      "constant": true,
      "inputs": [
        {
          "name": "",
          "type": "bytes32"
        }
      ],
      "name": "mintRequests",
      "outputs": [
        {
          "name": "",
          "type": "uint8"
        }
      ],
      "payable": false,
      "stateMutability": "view",
      "type": "function"
    },
    {
      "constant": true,
      "inputs": [],
      "name": "validatorCount",
      "outputs": [
        {
          "name": "",
          "type": "uint256"
        }
      ],
      "payable": false,
      "stateMutability": "view",
      "type": "function"
    },
    {
      "constant": false,
      "inputs": [
        {
          "name": "_validator",
          "type": "address"
        }
      ],
      "name": "removeValidator",
      "outputs": [],
      "payable": false,
      "stateMutability": "nonpayable",
      "type": "function"
    },
    {
      "constant": true,
      "inputs": [
        {
          "name": "",
          "type": "bytes32"
        }
      ],
      "name": "mintRequestsDone",
      "outputs": [
        {
          "name": "",
          "type": "bool"
        }
      ],
      "payable": false,
      "stateMutability": "view",
      "type": "function"
    },
    {
      "constant": false,
      "inputs": [
        {
          "name": "_validator",
          "type": "address"
        }
      ],
      "name": "addValidator",
      "outputs": [],
      "payable": false,
      "stateMutability": "nonpayable",
      "type": "function"
    },
    {
      "constant": true,
      "inputs": [
        {
          "name": "",
          "type": "bytes32"
        }
      ],
      "name": "signRequestsDone",
      "outputs": [
        {
          "name": "",
          "type": "bool"
        }
      ],
      "payable": false,
      "stateMutability": "view",
      "type": "function"
    },
    {
      "constant": true,
      "inputs": [],
      "name": "owner",
      "outputs": [
        {
          "name": "",
          "type": "address"
        }
      ],
      "payable": false,
      "stateMutability": "view",
      "type": "function"
    },
    {
      "constant": true,
      "inputs": [
        {
          "name": "",
          "type": "uint256"
        }
      ],
      "name": "registeredTokens",
      "outputs": [
        {
          "name": "",
          "type": "address"
        }
      ],
      "payable": false,
      "stateMutability": "view",
      "type": "function"
    },
    {
      "constant": false,
      "inputs": [
        {
          "name": "_requiredValidators",
          "type": "uint8"
        }
      ],
      "name": "setRequiredValidators",
      "outputs": [],
      "payable": false,
      "stateMutability": "nonpayable",
      "type": "function"
    },
    {
      "constant": false,
      "inputs": [
        {
          "name": "newOwner",
          "type": "address"
        }
      ],
      "name": "transferOwnership",
      "outputs": [],
      "payable": false,
      "stateMutability": "nonpayable",
      "type": "function"
    },
    {
      "constant": true,
      "inputs": [
        {
          "name": "",
          "type": "address"
        }
      ],
      "name": "validators",
      "outputs": [
        {
          "name": "",
          "type": "bool"
        }
      ],
      "payable": false,
      "stateMutability": "view",
      "type": "function"
    },
    {
      "constant": true,
      "inputs": [
        {
          "name": "_validator",
          "type": "address"
        }
      ],
      "name": "isValidator",
      "outputs": [
        {
          "name": "",
          "type": "bool"
        }
      ],
      "payable": false,
      "stateMutability": "view",
      "type": "function"
    },
    {
      "inputs": [
        {
          "name": "_requiredValidators",
          "type": "uint8"
        },
        {
          "name": "_initialValidators",
          "type": "address[]"
        }
      ],
      "payable": false,
      "stateMutability": "nonpayable",
      "type": "constructor"
    },
    {
      "anonymous": false,
      "inputs": [
        {
          "indexed": false,
          "name": "_to",
          "type": "address"
        },
        {
          "indexed": false,
          "name": "_amount",
          "type": "uint256"
        },
        {
          "indexed": false,
          "name": "_withdrawhash",
          "type": "bytes32"
        }
      ],
      "name": "WithdrawRequest",
      "type": "event"
    },
    {
      "anonymous": false,
      "inputs": [
        {
          "indexed": false,
          "name": "_mainToken",
          "type": "address"
        },
        {
          "indexed": false,
          "name": "_sideToken",
          "type": "address"
        }
      ],
      "name": "TokenAdded",
      "type": "event"
    },
    {
      "anonymous": false,
      "inputs": [
        {
          "indexed": false,
          "name": "_mintRequestsHash",
          "type": "bytes32"
        },
        {
          "indexed": false,
          "name": "_transactionHash",
          "type": "bytes32"
        },
        {
          "indexed": false,
          "name": "_mainToken",
          "type": "address"
        },
        {
          "indexed": false,
          "name": "_recipient",
          "type": "address"
        },
        {
          "indexed": false,
          "name": "_amount",
          "type": "uint256"
        },
        {
          "indexed": false,
          "name": "_requiredSignatures",
          "type": "uint8"
        },
        {
          "indexed": false,
          "name": "_signatureCount",
          "type": "uint8"
        },
        {
          "indexed": false,
          "name": "_signRequestHash",
          "type": "bytes32"
        }
      ],
      "name": "MintRequestSigned",
      "type": "event"
    },
    {
      "anonymous": false,
      "inputs": [
        {
          "indexed": false,
          "name": "_mintRequestsHash",
          "type": "bytes32"
        },
        {
          "indexed": false,
          "name": "_transactionHash",
          "type": "bytes32"
        },
        {
          "indexed": false,
          "name": "_mainToken",
          "type": "address"
        },
        {
          "indexed": false,
          "name": "_recipient",
          "type": "address"
        },
        {
          "indexed": false,
          "name": "_amount",
          "type": "uint256"
        }
      ],
      "name": "MintRequestExecuted",
      "type": "event"
    },
    {
      "anonymous": false,
      "inputs": [
        {
          "indexed": false,
          "name": "_withdrawRequestsHash",
          "type": "bytes32"
        },
        {
          "indexed": false,
          "name": "_transactionHash",
          "type": "bytes32"
        },
        {
          "indexed": false,
          "name": "_mainToken",
          "type": "address"
        },
        {
          "indexed": false,
          "name": "_recipient",
          "type": "address"
        },
        {
          "indexed": false,
          "name": "_amount",
          "type": "uint256"
        },
        {
          "indexed": false,
          "name": "_withdrawBlock",
          "type": "uint256"
        },
        {
          "indexed": false,
          "name": "_signer",
          "type": "address"
        },
        {
          "indexed": false,
          "name": "_v",
          "type": "uint8"
        },
        {
          "indexed": false,
          "name": "_r",
          "type": "bytes32"
        },
        {
          "indexed": false,
          "name": "_s",
          "type": "bytes32"
        }
      ],
      "name": "WithdrawRequestSigned",
      "type": "event"
    },
    {
      "anonymous": false,
      "inputs": [
        {
          "indexed": false,
          "name": "_withdrawRequestsHash",
          "type": "bytes32"
        },
        {
          "indexed": false,
          "name": "_reward",
          "type": "uint256"
        },
        {
          "indexed": false,
          "name": "_v",
          "type": "uint8"
        },
        {
          "indexed": false,
          "name": "_r",
          "type": "bytes32"
        },
        {
          "indexed": false,
          "name": "_s",
          "type": "bytes32"
        }
      ],
      "name": "WithdrawRequestRewardSigned",
      "type": "event"
    },
    {
      "anonymous": false,
      "inputs": [
        {
          "indexed": false,
          "name": "validator",
          "type": "address"
        }
      ],
      "name": "ValidatorAdded",
      "type": "event"
    },
    {
      "anonymous": false,
      "inputs": [
        {
          "indexed": false,
          "name": "validator",
          "type": "address"
        }
      ],
      "name": "ValidatorRemoved",
      "type": "event"
    },
    {
      "anonymous": false,
      "inputs": [
        {
          "indexed": true,
          "name": "previousOwner",
          "type": "address"
        },
        {
          "indexed": true,
          "name": "newOwner",
          "type": "address"
        }
      ],
      "name": "OwnershipTransferred",
      "type": "event"
    },
    {
      "constant": false,
      "inputs": [
        {
          "name": "_mainToken",
          "type": "address"
        }
      ],
      "name": "registerToken",
      "outputs": [],
      "payable": false,
      "stateMutability": "nonpayable",
      "type": "function"
    },
    {
      "constant": true,
      "inputs": [],
      "name": "tokens",
      "outputs": [
        {
          "name": "",
          "type": "address[]"
        }
      ],
      "payable": false,
      "stateMutability": "view",
      "type": "function"
    },
    {
      "constant": false,
      "inputs": [
        {
          "name": "_transactionHash",
          "type": "bytes32"
        },
        {
          "name": "_mainToken",
          "type": "address"
        },
        {
          "name": "_recipient",
          "type": "address"
        },
        {
          "name": "_amount",
          "type": "uint256"
        },
        {
          "name": "_v",
          "type": "uint8"
        },
        {
          "name": "_r",
          "type": "bytes32"
        },
        {
          "name": "_s",
          "type": "bytes32"
        }
      ],
      "name": "signMintRequest",
      "outputs": [],
      "payable": false,
      "stateMutability": "nonpayable",
      "type": "function"
    },
    {
      "constant": false,
      "inputs": [
        {
          "name": "_transactionHash",
          "type": "bytes32"
        },
        {
          "name": "_mainToken",
          "type": "address"
        },
        {
          "name": "_recipient",
          "type": "address"
        },
        {
          "name": "_amount",
          "type": "uint256"
        },
        {
          "name": "_withdrawBlock",
          "type": "uint256"
        },
        {
          "name": "_v",
          "type": "uint8"
        },
        {
          "name": "_r",
          "type": "bytes32"
        },
        {
          "name": "_s",
          "type": "bytes32"
        }
      ],
      "name": "signWithdrawRequest",
      "outputs": [],
      "payable": false,
      "stateMutability": "nonpayable",
      "type": "function"
    },
    {
      "constant": false,
      "inputs": [
        {
          "name": "_withdrawRequestsHash",
          "type": "bytes32"
        },
        {
          "name": "_reward",
          "type": "uint256"
        },
        {
          "name": "_v",
          "type": "uint8"
        },
        {
          "name": "_r",
          "type": "bytes32"
        },
        {
          "name": "_s",
          "type": "bytes32"
        }
      ],
      "name": "signWithdrawRequestReward",
      "outputs": [],
      "payable": false,
      "stateMutability": "nonpayable",
      "type": "function"
    }
  ],
  "bytecode": "0x60606040526000805460a060020a60ff021916815560015534156200002357600080fd5b60405162002ef938038062002ef9833981016040528080519190602001805160008054600160a060020a03191633600160a060020a0316178155920191839150829060ff831615156200007557600080fd5b8260ff16825110156200008757600080fd5b5060005b81518110156200013657620000c4828281518110620000a657fe5b9060200190602002015164010000000062000fba6200016082021704565b158015620000f257506000828281518110620000dc57fe5b90602001906020020151600160a060020a031614155b1515620000fe57600080fd5b6200012d8282815181106200010f57fe5b90602001906020020151640100000000620007466200018382021704565b6001016200008b565b6200014f8364010000000062000e966200023682021704565b8151600155506200029a9350505050565b600160a060020a031660009081526002602052604090205460ff16151560011490565b60005433600160a060020a039081169116146200019f57600080fd5b600160a060020a03811660009081526002602052604090205460ff16151560011415620001c857fe5b600160a060020a03811660009081526002602052604090819020805460ff191660019081179091558054810190557fe366c1c0452ed8eec96861e9e54141ebff23c9ec89fe27b996b45f5ec388498790829051600160a060020a03909116815260200160405180910390a150565b60005433600160a060020a039081169116146200025257600080fd5b60015460ff82169010156200026657600080fd5b6000805460ff909216740100000000000000000000000000000000000000000260a060020a60ff0219909216919091179055565b612c4f80620002aa6000396000f300606060405260043610620001005763ffffffff60e060020a6000350416624aca6e811462000105578063026508d1146200014357806309824a8014620001725780630d39e46d14620001965780630f43a67714620001af57806340a141ff14620001d757806348093a6114620001f95780634d238c8e14620002265780635bfdc21714620002485780636b40d32c14620002615780638da5cb5b146200029b5780639a0ba2ea14620002b15780639d63848a14620002ca578063a2d8b3d91462000335578063aa752db91462000372578063d2ddc509146200039a578063f2fde38b14620003b6578063fa52c7d814620003d8578063facd743b14620003fa575b600080fd5b34156200011157600080fd5b62000127600160a060020a03600435166200041c565b604051600160a060020a03909116815260200160405180910390f35b34156200014f57600080fd5b6200015c60043562000437565b60405160ff909116815260200160405180910390f35b34156200017e57600080fd5b62000194600160a060020a03600435166200044c565b005b3415620001a257600080fd5b6200015c60043562000660565b3415620001bb57600080fd5b620001c562000675565b60405190815260200160405180910390f35b3415620001e357600080fd5b62000194600160a060020a03600435166200067b565b34156200020557600080fd5b6200021260043562000731565b604051901515815260200160405180910390f35b34156200023257600080fd5b62000194600160a060020a036004351662000746565b34156200025457600080fd5b62000212600435620007f9565b34156200026d57600080fd5b62000194600435600160a060020a036024358116906044351660643560ff6084351660a43560c4356200080e565b3415620002a757600080fd5b6200012762000c0b565b3415620002bd57600080fd5b6200012760043562000c1a565b3415620002d657600080fd5b620002e062000c43565b60405160208082528190810183818151815260200191508051906020019060200280838360005b838110156200032157808201518382015260200162000307565b505050509050019250505060405180910390f35b34156200034157600080fd5b62000194600435600160a060020a036024358116906044351660643560843560ff60a4351660c43560e43562000cb0565b34156200037e57600080fd5b6200019460043560243560ff6044351660643560843562000e31565b3415620003a657600080fd5b6200019460ff6004351662000e96565b3415620003c257600080fd5b62000194600160a060020a036004351662000f08565b3415620003e457600080fd5b62000212600160a060020a036004351662000fa5565b34156200040657600080fd5b62000212600160a060020a036004351662000fba565b600860205260009081526040902054600160a060020a031681565b60066020526000908152604090205460ff1681565b6000805433600160a060020a039081169116146200046957600080fd5b600160a060020a0380831660009081526008602052604090205416156200048c57fe5b60016200049862000fdd565b6040808201929092526060808252600d908201527f4272696467656420546f6b656e00000000000000000000000000000000000000608082015260a0602082018190526004908201527f42544f4b0000000000000000000000000000000000000000000000000000000060c082015260e0019051809103906000f08015156200052057600080fd5b905030600160a060020a031681600160a060020a0316638da5cb5b6040518163ffffffff1660e060020a028152600401602060405180830381600087803b15156200056a57600080fd5b5af115156200057857600080fd5b50505060405180519050600160a060020a03161415156200059557fe5b600160a060020a038281166000908152600860205260409020805473ffffffffffffffffffffffffffffffffffffffff19169183169190911790556009805460018101620005e4838262000fee565b506000918252602090912001805473ffffffffffffffffffffffffffffffffffffffff1916600160a060020a0384161790557fdffbd9ded1c09446f09377de547142dcce7dc541c8b0b028142b1eba7026b9e78282604051600160a060020a039283168152911660208201526040908101905180910390a15050565b60036020526000908152604090205460ff1681565b60015481565b60005433600160a060020a039081169116146200069757600080fd5b6000546001547401000000000000000000000000000000000000000090910460ff169011620006c557600080fd5b600160a060020a03811660009081526002602052604090819020805460ff19169055600180546000190190557fe1434e25d6611e0db941968fdc97811c982ac1602e951637d206f5fdda9dd8f190829051600160a060020a03909116815260200160405180910390a150565b60046020526000908152604090205460ff1681565b60005433600160a060020a039081169116146200076257600080fd5b600160a060020a03811660009081526002602052604090205460ff161515600114156200078b57fe5b600160a060020a03811660009081526002602052604090819020805460ff191660019081179091558054810190557fe366c1c0452ed8eec96861e9e54141ebff23c9ec89fe27b996b45f5ec388498790829051600160a060020a03909116815260200160405180910390a150565b60056020526000908152604090205460ff1681565b600080600060028a8a8a8a6040519384526c01000000000000000000000000600160a060020a0393841681026020808701919091529290931690920260348401526048830191909152606890910190604051808303816000865af115156200087557600080fd5b50506040518051905092506001838787876040516000815260200160405260405193845260ff9092166020808501919091526040808501929092526060840192909252608090920191516020810390808403906000865af11515620008d957600080fd5b5050602060405103519150620008ef8262000fba565b1515620008f857fe5b60028383604051918252600160a060020a03166c0100000000000000000000000002602080830191909152603490910190604051808303816000865af115156200094157600080fd5b5050604051805160008181526005602052604090205490925060ff1615156001141590506200096c57fe5b6000818152600560209081526040808320805460ff1990811660019081179092558785526003909352908320805460ff818116909301831693169290921791829055915474010000000000000000000000000000000000000000900482169116101562000a9357600080548482526003602052604091829020547fee1beca1bb3e8214fb36c0fbf3158f614f4cd6c0ae3ccc2c2677ad6ea3af56519286928e928e928e928e9260ff740100000000000000000000000000000000000000009092048216929116908990519788526020880196909652600160a060020a03948516604080890191909152939094166060870152608086019190915260ff90811660a086015290911660c084015260e0830191909152610100909101905180910390a162000bff565b60008381526004602052604090205460ff1615156001141562000ab257fe5b600160a060020a03808a1660009081526008602052604090205416151562000ad657fe5b6000838152600460209081526040808320805460ff19166001179055600160a060020a03808d168452600890925291829020547f2044011f3778ccb7a2f0837530cd9496e82534210c4514636389063db341931a9286928e9216908c908c90519485526020850193909352600160a060020a0391821660408086019190915291166060840152608083019190915260a0909101905180910390a1600160a060020a03808a166000908152600860205260409081902054909116906394d008ef908a908a905160e060020a63ffffffff8516028152600160a060020a03909216600483015260248201526060604482015260006064820181905260a49091019060405180830381600087803b151562000bed57600080fd5b5af1151562000bfb57600080fd5b5050505b50505050505050505050565b600054600160a060020a031681565b600980548290811062000c2957fe5b600091825260209091200154600160a060020a0316905081565b62000c4d6200101a565b600980548060200260200160405190810160405280929190818152602001828054801562000ca557602002820191906000526020600020905b8154600160a060020a0316815260019091019060200180831162000c86575b505050505090505b90565b6000806002898989896040516c01000000000000000000000000600160a060020a0395861681028252939094169092026014840152602883015260488201526068016020604051808303816000865af1151562000d0c57600080fd5b50506040518051905091506001828686866040516000815260200160405260405193845260ff9092166020808501919091526040808501929092526060840192909252608090920191516020810390808403906000865af1151562000d7057600080fd5b505060206040510351905062000d868162000fba565b151562000d8f57fe5b7fb82025481ac2a3b54e840dee094ec9cc1ca34cfad2ed18439daaab27cac4223c828b8b8b8b8b878c8c8c604051998a5260208a0198909852600160a060020a039687166040808b019190915295871660608a0152608089019490945260a088019290925290931660c086015260ff90921660e0850152610100840191909152610120830191909152610140909101905180910390a150505050505050505050565b7fc7f60bc9b5f3c5f7ae6a5703d3a0356651abdc374f1a2f5b40506eca3283c2078585858585604051948552602085019390935260ff9091166040808501919091526060840191909152608083019190915260a0909101905180910390a15050505050565b60005433600160a060020a0390811691161462000eb257600080fd5b60015460ff821690101562000ec657600080fd5b6000805460ff909216740100000000000000000000000000000000000000000274ff000000000000000000000000000000000000000019909216919091179055565b60005433600160a060020a0390811691161462000f2457600080fd5b600160a060020a038116151562000f3a57600080fd5b600054600160a060020a0380831691167f8be0079c531659141344cd1fd0a4f28419497f9722a3daafe3b4186f6b6457e060405160405180910390a36000805473ffffffffffffffffffffffffffffffffffffffff1916600160a060020a0392909216919091179055565b60076020526000908152604090205460ff1681565b600160a060020a031660009081526002602052604090205460ff16151560011490565b604051611bd6806200104e83390190565b8154818355818115116200101557600083815260209020620010159181019083016200102c565b505050565b60206040519081016040526000815290565b62000cad91905b8082111562001049576000815560010162001033565b50905600606060405260018054600160a060020a03191673991a1bcb077599290d7305493c9a630c20f8b79817905534156200003657600080fd5b60405162001bd638038062001bd68339810160405280805182019190602001805182019190602001805160008054600160a060020a03191633600160a060020a0316179055915060029050838051620000949291602001906200026b565b506003828051620000aa9291602001906200026b565b5060006005556006805460ff19166001908117909155811015620000cd57600080fd5b60048190556200011f60408051908101604052600a81527f4552433230546f6b656e00000000000000000000000000000000000000000000602082015230640100000000620010336200017582021704565b6200016c60408051908101604052600b81527f455243373737546f6b656e000000000000000000000000000000000000000000602082015230640100000000620010336200017582021704565b50505062000310565b6000826040518082805190602001908083835b60208310620001a95780518252601f19909201916020918201910162000188565b6001836020036101000a0380198251168184511617909252505050919091019250604091505051908190039020600154909150600160a060020a03166329965a1d3083856040517c010000000000000000000000000000000000000000000000000000000063ffffffff8616028152600160a060020a03938416600482015260248101929092529091166044820152606401600060405180830381600087803b15156200025557600080fd5b5af115156200026357600080fd5b505050505050565b828054600181600116156101000203166002900490600052602060002090601f016020900481019282601f10620002ae57805160ff1916838001178555620002de565b82800160010185558215620002de579182015b82811115620002de578251825591602001919060010190620002c1565b50620002ec929150620002f0565b5090565b6200030d91905b80821115620002ec5760008155600101620002f7565b90565b6118b680620003206000396000f30060606040526004361061010e5763ffffffff60e060020a60003504166306fdde038114610113578063070c87f91461019d578063095ea7b3146101b257806318160ddd146101e8578063190a6aa91461020d57806323b872dd146102b4578063313ce567146102dc578063556f0dc71461030557806362ad1b831461031857806370a08231146103c65780638da5cb5b146103e557806394d008ef14610414578063959b8c3f1461047957806395d89b41146104985780639bd9bbc6146104ab578063a9059cbb14610510578063d0679d3414610532578063d95b637114610554578063dd62ed3e14610579578063f2fde38b1461059e578063f922f216146105bd578063fad8b32a146105d0575b600080fd5b341561011e57600080fd5b6101266105ef565b60405160208082528190810183818151815260200191508051906020019080838360005b8381101561016257808201518382015260200161014a565b50505050905090810190601f16801561018f5780820380516001836020036101000a031916815260200191505b509250505060405180910390f35b34156101a857600080fd5b6101b0610697565b005b34156101bd57600080fd5b6101d4600160a060020a03600435166024356106fe565b604051901515815260200160405180910390f35b34156101f357600080fd5b6101fb61077c565b60405190815260200160405180910390f35b341561021857600080fd5b6101b060048035600160a060020a03169060248035919060649060443590810190830135806020601f8201819004810201604051908101604052818152929190602084018383808284378201915050505050509190803590602001908201803590602001908080601f01602080910402602001604051908101604052818152929190602084018383808284375094965061078295505050505050565b34156102bf57600080fd5b6101d4600160a060020a036004358116906024351660443561098c565b34156102e757600080fd5b6102ef610a6e565b60405160ff909116815260200160405180910390f35b341561031057600080fd5b6101fb610a88565b341561032357600080fd5b6101b0600160a060020a036004803582169160248035909116916044359160849060643590810190830135806020601f8201819004810201604051908101604052818152929190602084018383808284378201915050505050509190803590602001908201803590602001908080601f016020809104026020016040519081016040528181529291906020840183838082843750949650610a8e95505050505050565b34156103d157600080fd5b6101fb600160a060020a0360043516610aba565b34156103f057600080fd5b6103f8610ad5565b604051600160a060020a03909116815260200160405180910390f35b341561041f57600080fd5b6101b060048035600160a060020a03169060248035919060649060443590810190830135806020601f82018190048102016040519081016040528181529291906020840183838082843750949650610ae495505050505050565b341561048457600080fd5b6101b0600160a060020a0360043516610c93565b34156104a357600080fd5b610126610d18565b34156104b657600080fd5b6101b060048035600160a060020a03169060248035919060649060443590810190830135806020601f82018190048102016040519081016040528181529291906020840183838082843750949650610d8b95505050505050565b341561051b57600080fd5b6101d4600160a060020a0360043516602435610da9565b341561053d57600080fd5b6101b0600160a060020a0360043516602435610df3565b341561055f57600080fd5b6101d4600160a060020a0360043581169060243516610e25565b341561058457600080fd5b6101fb600160a060020a0360043581169060243516610e73565b34156105a957600080fd5b6101b0600160a060020a0360043516610eb3565b34156105c857600080fd5b6101b0610f4e565b34156105db57600080fd5b6101b0600160a060020a0360043516610fb1565b6105f7611878565b60028054600181600116156101000203166002900480601f01602080910402602001604051908101604052809291908181526020018280546001816001161561010002031660029004801561068d5780601f106106625761010080835404028352916020019161068d565b820191906000526020600020905b81548152906001019060200180831161067057829003601f168201915b5050505050905090565b60005433600160a060020a039081169116146106b257600080fd5b6006805460ff191660011790556106fc60408051908101604052600a81527f4552433230546f6b656e00000000000000000000000000000000000000000000602082015230611033565b565b60065460009060ff16151561071257600080fd5b600160a060020a03338116600081815260096020908152604080832094881680845294909152908190208590557f8c5be1e5ebec7d5bd14f71427d1e84f3dd0314c0f7b2291e5b200ac8c7c3b9259085905190815260200160405180910390a35060015b92915050565b60055490565b60005433600160a060020a0390811691161461079d57600080fd5b6107a68361110c565b6107b53385600086868661113e565b826107bf85610aba565b10156107ca57600080fd5b600160a060020a0384166000908152600760205260409020546107f3908463ffffffff6112ef16565b600160a060020a03851660009081526007602052604090205560055461081f908463ffffffff6112ef16565b600555600160a060020a038085169033167fa78a9be3a7b862d26933ad85fb11d80ef66b8f972d7cbba06621d583943a4098858585604051808481526020018060200180602001838103835285818151815260200191508051906020019080838360005b8381101561089b578082015183820152602001610883565b50505050905090810190601f1680156108c85780820380516001836020036101000a031916815260200191505b50838103825284818151815260200191508051906020019080838360005b838110156108fe5780820151838201526020016108e6565b50505050905090810190601f16801561092b5780820380516001836020036101000a031916815260200191505b509550505050505060405180910390a360065460ff161561098657600084600160a060020a03167fddf252ad1be2c89b69c2b068fc378daa952ba7f163c4a11628f55a4df523b3ef8560405190815260200160405180910390a35b50505050565b60065460009060ff1615156109a057600080fd5b600160a060020a03808516600090815260096020908152604080832033909416835292905220548211156109d357600080fd5b600160a060020a0380851660009081526009602090815260408083203390941683529290522054610a0a908363ffffffff6112ef16565b600160a060020a0380861660009081526009602090815260408083203390941683529281529082902092909255610a6491869186918691519081016040528060008152503360206040519081016040526000808252611301565b5060019392505050565b60065460009060ff161515610a8257600080fd5b50601290565b60045490565b610a983386610e25565b1515610aa357600080fd5b610ab38585858533866001611301565b5050505050565b600160a060020a031660009081526007602052604090205490565b600054600160a060020a031681565b60005433600160a060020a03908116911614610aff57600080fd5b610b088261110c565b600554610b1b908363ffffffff61155d16565b600555600160a060020a038316600090815260076020526040902054610b47908363ffffffff61155d16565b6007600085600160a060020a0316600160a060020a0316815260200190815260200160002081905550610b8f336000858560206040519081016040526000815286600161156a565b82600160a060020a031633600160a060020a03167fbcd28e05e57d4bcd5bfcc92a4661d412893e6112c44a2e25d96cfdfc30d5f22e848460405182815260406020820181815290820183818151815260200191508051906020019080838360005b83811015610c08578082015183820152602001610bf0565b50505050905090810190601f168015610c355780820380516001836020036101000a031916815260200191505b50935050505060405180910390a360065460ff1615610c8e5782600160a060020a031660007fddf252ad1be2c89b69c2b068fc378daa952ba7f163c4a11628f55a4df523b3ef8460405190815260200160405180910390a35b505050565b33600160a060020a031681600160a060020a031614151515610cb457600080fd5b600160a060020a038082166000818152600860209081526040808320339095168084529490915290819020805460ff191660011790557ff4caeb2d6ca8932a215a353d0703c326ec2d81fc68170f320eb2ab49e9df61f9905160405180910390a350565b610d20611878565b60038054600181600116156101000203166002900480601f01602080910402602001604051908101604052809291908181526020018280546001816001161561010002031660029004801561068d5780601f106106625761010080835404028352916020019161068d565b610c8e33848484336020604051908101604052600081526001611301565b60065460009060ff161515610dbd57600080fd5b610dea33848460206040519081016040528060008152503360206040519081016040526000808252611301565b50600192915050565b610e213383836020604051908101604052806000815250336020604051908101604052600081526001611301565b5050565b600081600160a060020a031683600160a060020a03161480610e6c5750600160a060020a0380841660009081526008602090815260408083209386168352929052205460ff165b9392505050565b60065460009060ff161515610e8757600080fd5b50600160a060020a03918216600090815260096020908152604080832093909416825291909152205490565b60005433600160a060020a03908116911614610ece57600080fd5b600160a060020a0381161515610ee357600080fd5b600054600160a060020a0380831691167f8be0079c531659141344cd1fd0a4f28419497f9722a3daafe3b4186f6b6457e060405160405180910390a36000805473ffffffffffffffffffffffffffffffffffffffff1916600160a060020a0392909216919091179055565b60005433600160a060020a03908116911614610f6957600080fd5b6006805460ff191690556106fc60408051908101604052600a81527f4552433230546f6b656e0000000000000000000000000000000000000000000060208201526000611033565b33600160a060020a031681600160a060020a031614151515610fd257600080fd5b600160a060020a038082166000818152600860209081526040808320339095168084529490915290819020805460ff191690557f50546e66e5f44d728365dc3908c63bc5cfeeab470722c1677e3073a6ac294aa1905160405180910390a350565b6000826040518082805190602001908083835b602083106110655780518252601f199092019160209182019101611046565b6001836020036101000a0380198251168184511617909252505050919091019250604091505051908190039020600154909150600160a060020a03166329965a1d30838560405160e060020a63ffffffff8616028152600160a060020a03938416600482015260248101929092529091166044820152606401600060405180830381600087803b15156110f757600080fd5b5af1151561110457600080fd5b505050505050565b600454819061113190611125838263ffffffff61173916565b9063ffffffff61174e16565b1461113b57600080fd5b50565b600061117d8660408051908101604052601281527f455243373737546f6b656e7353656e64657200000000000000000000000000006020820152611777565b9050600160a060020a038116156112e65780600160a060020a03166375ab978288888888888860405160e060020a63ffffffff8916028152600160a060020a0380881660048301908152878216602484015290861660448301526064820185905260c060848301908152909160a481019060c40185818151815260200191508051906020019080838360005b83811015611221578082015183820152602001611209565b50505050905090810190601f16801561124e5780820380516001836020036101000a031916815260200191505b50838103825284818151815260200191508051906020019080838360005b8381101561128457808201518382015260200161126c565b50505050905090810190601f1680156112b15780820380516001836020036101000a031916815260200191505b5098505050505050505050600060405180830381600087803b15156112d557600080fd5b5af115156112e257600080fd5b5050505b50505050505050565b6000828211156112fb57fe5b50900390565b61130a8561110c565b61131883888888888761113e565b600160a060020a038616151561132d57600080fd5b600160a060020a0387166000908152600760205260409020548590101561135357600080fd5b600160a060020a03871660009081526007602052604090205461137c908663ffffffff6112ef16565b600160a060020a0380891660009081526007602052604080822093909355908816815220546113b1908663ffffffff61155d16565b600160a060020a0387166000908152600760205260409020556113d98388888888878761156a565b85600160a060020a031687600160a060020a031684600160a060020a03167f06b541ddaa720db2b10a4d0cdac39b8d360425fc073085fac19bc82614677987888887604051808481526020018060200180602001838103835285818151815260200191508051906020019080838360005b8381101561146257808201518382015260200161144a565b50505050905090810190601f16801561148f5780820380516001836020036101000a031916815260200191505b50838103825284818151815260200191508051906020019080838360005b838110156114c55780820151838201526020016114ad565b50505050905090810190601f1680156114f25780820380516001836020036101000a031916815260200191505b509550505050505060405180910390a460065460ff16156112e65785600160a060020a031687600160a060020a03167fddf252ad1be2c89b69c2b068fc378daa952ba7f163c4a11628f55a4df523b3ef8760405190815260200160405180910390a350505050505050565b8181018281101561077657fe5b60006115a98660408051908101604052601581527f455243373737546f6b656e73526563697069656e7400000000000000000000006020820152611777565b9050600160a060020a038116156117155780600160a060020a03166223de2989898989898960405160e060020a63ffffffff8916028152600160a060020a0380881660048301908152878216602484015290861660448301526064820185905260c060848301908152909160a481019060c40185818151815260200191508051906020019080838360005b8381101561164c578082015183820152602001611634565b50505050905090810190601f1680156116795780820380516001836020036101000a031916815260200191505b50838103825284818151815260200191508051906020019080838360005b838110156116af578082015183820152602001611697565b50505050905090810190601f1680156116dc5780820380516001836020036101000a031916815260200191505b5098505050505050505050600060405180830381600087803b151561170057600080fd5b5af1151561170d57600080fd5b50505061172f565b811561172f576117248661184e565b151561172f57600080fd5b5050505050505050565b6000818381151561174657fe5b049392505050565b600082151561175f57506000610776565b5081810281838281151561176f57fe5b041461077657fe5b600080826040518082805190602001908083835b602083106117aa5780518252601f19909201916020918201910161178b565b6001836020036101000a0380198251168184511617909252505050919091019250604091505051908190039020600154909150600160a060020a031663aabbb8ca858360405160e060020a63ffffffff8516028152600160a060020a0390921660048301526024820152604401602060405180830381600087803b151561183057600080fd5b5af1151561183d57600080fd5b505050604051805195945050505050565b600080600160a060020a038316151561186a5760009150611872565b5050803b8015905b50919050565b602060405190810160405260008152905600a165627a7a723058200da5b5c6025d133b78e9171aee31b4cebb8270d096950b54c06893eec989c5350029a165627a7a7230582030f02245080abee208b7ebdd07680f1e2dee874327dc8b350ba0c9a8563c25dc0029",
  "source": "pragma solidity ^0.4.18;\n\nimport 'erc777/contracts/examples/ReferenceToken.sol';\nimport 'openzeppelin-solidity/contracts/ownership/Ownable.sol';\nimport 'openzeppelin-solidity/contracts/token/ERC20/DetailedERC20.sol';\nimport './Validatable.sol';\n\ncontract ForeignERC777Bridge is Ownable, Validatable {\n\n\tmapping(bytes32=>uint8) public mintRequests;\n\tmapping(bytes32=>bool) public mintRequestsDone;\n\tmapping(bytes32=>bool) public signRequestsDone;\n\n\tmapping(bytes32=>uint8) public withdrawRequests;\n\tmapping(address=>bool) public validators;\n\n\t// maps home token addresses -> foreign token addresses\n\tmapping(address=>address) public tokenMap;\n    address[] public registeredTokens;\n\n\tevent WithdrawRequest(address _to,uint256 _amount,bytes32 _withdrawhash);\n\tevent TokenAdded(address _mainToken,address _sideToken);\n\tevent MintRequestSigned(bytes32 _mintRequestsHash, bytes32 _transactionHash,address _mainToken, address _recipient,uint256 _amount,uint8 _requiredSignatures,uint8 _signatureCount,bytes32 _signRequestHash);\n\tevent MintRequestExecuted(bytes32 _mintRequestsHash, bytes32 _transactionHash,address _mainToken, address _recipient,uint256 _amount);\n\n\tevent WithdrawRequestSigned(bytes32 _withdrawRequestsHash, bytes32 _transactionHash,address _mainToken, address _recipient,uint256 _amount,uint256 _withdrawBlock,address _signer, uint8 _v, bytes32 _r, bytes32 _s);\n\n\tevent WithdrawRequestRewardSigned(bytes32 _withdrawRequestsHash,uint _reward,uint8 _v, bytes32 _r, bytes32 _s);\n\n\tfunction ForeignERC777Bridge(uint8 _requiredValidators,address[] _initialValidators) Validatable(_requiredValidators,_initialValidators) public {\n\t\t// deploy a sidechain ETH token as an ERC-777.\n\t\t//address t = new ReferenceToken('sidechain ETH','sETH',1);\n\t\t//assert(t != 0x0);\n\t\t//tokenMap[0x0] = t;\n\t}\n\n\tfunction registerToken(DetailedERC20 _mainToken) public onlyOwner {\n\t\tassert(tokenMap[_mainToken] == 0);\n\t\tReferenceToken t = new ReferenceToken('Bridged Token','BTOK',1);\n\t\tassert(t.owner() == address(this));\n\t\t//t.transferOwnership(this);\n\t\ttokenMap[_mainToken] = t;\n        registeredTokens.push(_mainToken);\n\t\temit TokenAdded(_mainToken,address(t));\n\t}\n\n    function tokens() public view returns(address[]) {\n        return registeredTokens;\n    }\n\n\tfunction signMintRequest(bytes32 _transactionHash,address _mainToken, address _recipient,uint256 _amount,uint8 _v, bytes32 _r, bytes32 _s) public {\n\t\tbytes32 mintRequestsHash = sha256(_transactionHash,_mainToken,_recipient,_amount);\n\t\taddress validator = ecrecover(mintRequestsHash, _v, _r, _s);\n\t\tassert(isValidator(validator));\n\n\t\tbytes32 signRequestHash = sha256(mintRequestsHash,validator);\n\t\tassert(signRequestsDone[signRequestHash] != true);\n\t\t\n\t\tsignRequestsDone[signRequestHash] = true;\n\t\tmintRequests[mintRequestsHash]++;\n\t\tif (mintRequests[mintRequestsHash] < requiredValidators){\n\t\t\temit MintRequestSigned(mintRequestsHash,_transactionHash, _mainToken,  _recipient, _amount,requiredValidators,mintRequests[mintRequestsHash],signRequestHash);\n\t\t}else{\n\t\t\tassert(mintRequestsDone[mintRequestsHash] != true);\n\t\t\tassert(tokenMap[_mainToken] != 0x0);\n\t\t\tmintRequestsDone[mintRequestsHash] = true;\n\t\t\temit MintRequestExecuted(mintRequestsHash,_transactionHash, tokenMap[_mainToken],  _recipient, _amount);\n\t\t\tReferenceToken(tokenMap[_mainToken]).mint(_recipient,_amount,'');\n\t\t}\n\t}\n\n\tfunction signWithdrawRequest(bytes32 _transactionHash,address _mainToken, address _recipient,uint256 _amount,uint256 _withdrawBlock,uint8 _v, bytes32 _r, bytes32 _s) public {\n\t\tbytes32 withdrawRequestsHash = sha256(_mainToken,_recipient,_amount,_withdrawBlock);\n\t\taddress validator = ecrecover(withdrawRequestsHash, _v, _r, _s);\n\t\tassert(isValidator(validator));\t\t\n\t\temit WithdrawRequestSigned(withdrawRequestsHash,_transactionHash, _mainToken,  _recipient, _amount,_withdrawBlock,validator,_v,_r,_s);\n\t}\n\n\tfunction signWithdrawRequestReward(bytes32 _withdrawRequestsHash,uint _reward,uint8 _v, bytes32 _r, bytes32 _s) public {\n\t\temit WithdrawRequestRewardSigned(_withdrawRequestsHash,_reward,_v,_r,_s);\n\t}\n\n\n\n}\n\n",
  "sourcePath": "/Users/jodus/Projecten/settlemint/erc20-bridge/contracts/ForeignERC777Bridge.sol",
  "compiler": {
    "name": "solc",
    "version": "0.4.21+commit.dfe3193c.Emscripten.clang"
  },
  "schemaVersion": "2.0.0",
  "updatedAt": "2018-07-04T09:00:22.910Z"
}