{
  "contractName": "HomeBridge",
  "abi": [
    {
      "constant": true,
      "inputs": [],
      "name": "validatorCount",
      "outputs": [
        {
          "name": "",
          "type": "uint256"
        }
      ],
      "payable": false,
      "stateMutability": "view",
      "type": "function"
    },
    {
      "constant": false,
      "inputs": [
        {
          "name": "_validator",
          "type": "address"
        }
      ],
      "name": "removeValidator",
      "outputs": [],
      "payable": false,
      "stateMutability": "nonpayable",
      "type": "function"
    },
    {
      "constant": false,
      "inputs": [
        {
          "name": "_validator",
          "type": "address"
        }
      ],
      "name": "addValidator",
      "outputs": [],
      "payable": false,
      "stateMutability": "nonpayable",
      "type": "function"
    },
    {
      "constant": true,
      "inputs": [],
      "name": "owner",
      "outputs": [
        {
          "name": "",
          "type": "address"
        }
      ],
      "payable": false,
      "stateMutability": "view",
      "type": "function"
    },
    {
      "constant": true,
      "inputs": [],
      "name": "requiredValidators",
      "outputs": [
        {
          "name": "",
          "type": "uint8"
        }
      ],
      "payable": false,
      "stateMutability": "view",
      "type": "function"
    },
    {
      "constant": false,
      "inputs": [
        {
          "name": "_requiredValidators",
          "type": "uint8"
        }
      ],
      "name": "setRequiredValidators",
      "outputs": [],
      "payable": false,
      "stateMutability": "nonpayable",
      "type": "function"
    },
    {
      "constant": false,
      "inputs": [
        {
          "name": "newOwner",
          "type": "address"
        }
      ],
      "name": "transferOwnership",
      "outputs": [],
      "payable": false,
      "stateMutability": "nonpayable",
      "type": "function"
    },
    {
      "constant": true,
      "inputs": [
        {
          "name": "",
          "type": "address"
        }
      ],
      "name": "validators",
      "outputs": [
        {
          "name": "",
          "type": "bool"
        }
      ],
      "payable": false,
      "stateMutability": "view",
      "type": "function"
    },
    {
      "constant": true,
      "inputs": [
        {
          "name": "_validator",
          "type": "address"
        }
      ],
      "name": "isValidator",
      "outputs": [
        {
          "name": "",
          "type": "bool"
        }
      ],
      "payable": false,
      "stateMutability": "view",
      "type": "function"
    },
    {
      "inputs": [
        {
          "name": "_requiredValidators",
          "type": "uint8"
        },
        {
          "name": "_initialValidators",
          "type": "address[]"
        }
      ],
      "payable": false,
      "stateMutability": "nonpayable",
      "type": "constructor"
    },
    {
      "anonymous": false,
      "inputs": [
        {
          "indexed": false,
          "name": "validator",
          "type": "address"
        }
      ],
      "name": "ValidatorAdded",
      "type": "event"
    },
    {
      "anonymous": false,
      "inputs": [
        {
          "indexed": false,
          "name": "validator",
          "type": "address"
        }
      ],
      "name": "ValidatorRemoved",
      "type": "event"
    },
    {
      "anonymous": false,
      "inputs": [
        {
          "indexed": true,
          "name": "previousOwner",
          "type": "address"
        },
        {
          "indexed": true,
          "name": "newOwner",
          "type": "address"
        }
      ],
      "name": "OwnershipTransferred",
      "type": "event"
    },
    {
      "constant": true,
      "inputs": [
        {
          "name": "_hash",
          "type": "bytes32"
        },
        {
          "name": "_length",
          "type": "uint256"
        },
        {
          "name": "_v",
          "type": "uint8[]"
        },
        {
          "name": "_r",
          "type": "bytes32[]"
        },
        {
          "name": "_s",
          "type": "bytes32[]"
        }
      ],
      "name": "checkValidations",
      "outputs": [
        {
          "name": "",
          "type": "uint8"
        }
      ],
      "payable": false,
      "stateMutability": "view",
      "type": "function"
    },
    {
      "constant": false,
      "inputs": [
        {
          "name": "_token",
          "type": "address"
        },
        {
          "name": "_recipient",
          "type": "address"
        },
        {
          "name": "_amount",
          "type": "uint256"
        },
        {
          "name": "_withdrawblock",
          "type": "uint256"
        },
        {
          "name": "_v",
          "type": "uint8[]"
        },
        {
          "name": "_r",
          "type": "bytes32[]"
        },
        {
          "name": "_s",
          "type": "bytes32[]"
        }
      ],
      "name": "withdraw",
      "outputs": [],
      "payable": false,
      "stateMutability": "nonpayable",
      "type": "function"
    }
  ],
  "bytecode": "0x60606040526000805460a060020a60ff0219168155600155341561002257600080fd5b604051610be7380380610be7833981016040528080519190602001805160008054600160a060020a03191633600160a060020a0316178155920191839150829060ff8316151561007157600080fd5b8260ff168251101561008257600080fd5b5060005b8151811015610124576100ba82828151811061009e57fe5b9060200190602002015164010000000061090961014a82021704565b1580156100e6575060008282815181106100d057fe5b90602001906020020151600160a060020a031614155b15156100f157600080fd5b61011c82828151811061010057fe5b9060200190602002015164010000000061047d61016d82021704565b600101610086565b61013a836401000000006107e961021e82021704565b8151600155506102809350505050565b600160a060020a031660009081526002602052604090205460ff16151560011490565b60005433600160a060020a0390811691161461018857600080fd5b600160a060020a03811660009081526002602052604090205460ff161515600114156101b057fe5b600160a060020a03811660009081526002602052604090819020805460ff191660019081179091558054810190557fe366c1c0452ed8eec96861e9e54141ebff23c9ec89fe27b996b45f5ec388498790829051600160a060020a03909116815260200160405180910390a150565b60005433600160a060020a0390811691161461023957600080fd5b60015460ff821690101561024c57600080fd5b6000805460ff909216740100000000000000000000000000000000000000000260a060020a60ff0219909216919091179055565b6109588061028f6000396000f3006060604052600436106100ae5763ffffffff7c01000000000000000000000000000000000000000000000000000000006000350416630f43a67781146100b357806340a141ff146100d85780634d238c8e146100f9578063736a2684146101185780638da5cb5b1461020757806397c875dd14610236578063cd99b7ac1461025f578063d2ddc50914610339578063f2fde38b14610352578063fa52c7d814610371578063facd743b146103a4575b600080fd5b34156100be57600080fd5b6100c66103c3565b60405190815260200160405180910390f35b34156100e357600080fd5b6100f7600160a060020a03600435166103c9565b005b341561010457600080fd5b6100f7600160a060020a036004351661047d565b341561012357600080fd5b6100f7600160a060020a0360048035821691602480359091169160443591606435919060a4906084359081019083013580602081810201604051908101604052809392919081815260200183836020028082843782019150505050505091908035906020019082018035906020019080806020026020016040519081016040528093929190818152602001838360200280828437820191505050505050919080359060200190820180359060200190808060200260200160405190810160405280939291908181526020018383602002808284375094965061052e95505050505050565b341561021257600080fd5b61021a6106db565b604051600160a060020a03909116815260200160405180910390f35b341561024157600080fd5b6102496106ea565b60405160ff909116815260200160405180910390f35b341561026a57600080fd5b61024960048035906024803591906064906044359081019083013580602081810201604051908101604052809392919081815260200183836020028082843782019150505050505091908035906020019082018035906020019080806020026020016040519081016040528093929190818152602001838360200280828437820191505050505050919080359060200190820180359060200190808060200260200160405190810160405280939291908181526020018383602002808284375094965061070b95505050505050565b341561034457600080fd5b6100f760ff600435166107e9565b341561035d57600080fd5b6100f7600160a060020a0360043516610859565b341561037c57600080fd5b610390600160a060020a03600435166108f4565b604051901515815260200160405180910390f35b34156103af57600080fd5b610390600160a060020a0360043516610909565b60015481565b60005433600160a060020a039081169116146103e457600080fd5b6000546001547401000000000000000000000000000000000000000090910460ff16901161041157600080fd5b600160a060020a03811660009081526002602052604090819020805460ff19169055600180546000190190557fe1434e25d6611e0db941968fdc97811c982ac1602e951637d206f5fdda9dd8f190829051600160a060020a03909116815260200160405180910390a150565b60005433600160a060020a0390811691161461049857600080fd5b600160a060020a03811660009081526002602052604090205460ff161515600114156104c057fe5b600160a060020a03811660009081526002602052604090819020805460ff191660019081179091558054810190557fe366c1c0452ed8eec96861e9e54141ebff23c9ec89fe27b996b45f5ec388498790829051600160a060020a03909116815260200160405180910390a150565b60006002888888886040516c01000000000000000000000000600160a060020a0395861681028252939094169092026014840152602883015260488201526068016020604051808303816000865af1151561058857600080fd5b5050604051805160008181526003602052604090205490925060ff161590506105ad57fe5b6000818152600360205260409020805460ff19166001179055600160a060020a03881615156105d857fe5b600160a060020a03871615156105ea57fe5b60008610156105f557fe5b600084511161060057fe5b825184511461060b57fe5b815184511461061657fe5b60005474010000000000000000000000000000000000000000900460ff1661064282865187878761070b565b60ff16101561064d57fe5b87600160a060020a031663a9059cbb88886040517c010000000000000000000000000000000000000000000000000000000063ffffffff8516028152600160a060020a0390921660048301526024820152604401602060405180830381600087803b15156106ba57600080fd5b5af115156106c757600080fd5b505050604051805150505050505050505050565b600054600160a060020a031681565b60005474010000000000000000000000000000000000000000900460ff1681565b60008080805b878210156107dc5760018988848151811061072857fe5b9060200190602002015188858151811061073e57fe5b9060200190602002015188868151811061075457fe5b906020019060200201516040516000815260200160405260405193845260ff9092166020808501919091526040808501929092526060840192909252608090920191516020810390808403906000865af115156107b057600080fd5b50506020604051035190506107c481610909565b15156107cc57fe5b6001928301929190910190610711565b5090979650505050505050565b60005433600160a060020a0390811691161461080457600080fd5b60015460ff821690101561081757600080fd5b6000805460ff909216740100000000000000000000000000000000000000000274ff000000000000000000000000000000000000000019909216919091179055565b60005433600160a060020a0390811691161461087457600080fd5b600160a060020a038116151561088957600080fd5b600054600160a060020a0380831691167f8be0079c531659141344cd1fd0a4f28419497f9722a3daafe3b4186f6b6457e060405160405180910390a36000805473ffffffffffffffffffffffffffffffffffffffff1916600160a060020a0392909216919091179055565b60026020526000908152604090205460ff1681565b600160a060020a031660009081526002602052604090205460ff161515600114905600a165627a7a723058206b91066018a79bf78b42dbd74ab72c9ba04d85030a311754365c6fa54d63e90b0029",
  "source": "pragma solidity ^0.4.18;\n\nimport 'openzeppelin-solidity/contracts/token/ERC20/ERC20Basic.sol';\nimport 'openzeppelin-solidity/contracts/ownership/Ownable.sol';\nimport 'openzeppelin-solidity/contracts/math/SafeMath.sol';\n\nimport './Validatable.sol';\n\ncontract HomeBridge is Validatable {\n\tusing SafeMath for uint256;\n\n\tmapping(bytes32=>bool) usedHashes;\n\t\n\tfunction HomeBridge(uint8 _requiredValidators,address[] _initialValidators) Validatable(_requiredValidators,_initialValidators) public {\n\n\t}\n\n\tfunction checkValidations(\n\t\tbytes32 _hash,\n\t\tuint256 _length,\n\t\tuint8[] _v,\n\t\tbytes32[] _r,\n\t\tbytes32[] _s) public view returns(uint8){\n\t\tuint8 approvals = 0;\n        for (uint i = 0; i < _length ; i++) {\n        \taddress validator = ecrecover(_hash, _v[i], _r[i], _s[i]);\n        \tassert(isValidator(validator));\n        \tapprovals++;\n        }\n        return approvals;\n\t}\n\n\tfunction withdraw(\n\t\taddress _token,\n\t\taddress _recipient,\n\t\tuint256 _amount,\n\t\tuint256 _withdrawblock,\n\t\tuint8[] _v,\n\t\tbytes32[] _r,\n\t\tbytes32[] _s) public {\n\n\t\tbytes32 hash = sha256(_token,_recipient,_amount,_withdrawblock);\n\n\t\t// the hash should not have been used before\n\t\tassert(usedHashes[hash] == false);\n\n\t\t// mark hash as used\n\t\tusedHashes[hash] = true;\n\n\t\tassert(_token != 0x0);\n\n\t\tassert(_recipient != 0x0);\n\n\t\tassert(_amount >= 0);\n\n\t\t// the time-lock should have passed\n\t\t// assert(_withdrawblock <= block.number);\t\t\n\n\t\t// verify the provided signatures\n\t\tassert(_v.length > 0);\n\t\tassert(_v.length == _r.length);\n\t\tassert(_v.length == _s.length);\n\n\t\t// verify if the threshold of required signatures is met\n\t\tassert(checkValidations(hash,_v.length,_v,_r,_s) >= requiredValidators);\n\t\t// ERC-20 transfer\n\t\tERC20Basic(_token).transfer(_recipient, _amount);\n\t}\t\n\n\n}\n\n",
  "sourcePath": "/Users/thomas/Projecten/bridge/erc20-bridge/contracts/HomeBridge.sol",
  "compiler": {
    "name": "solc",
    "version": "0.4.21+commit.dfe3193c.Emscripten.clang"
  },
  "schemaVersion": "2.0.0",
  "updatedAt": "2018-07-20T07:25:21.213Z"
}