{
  "contractName": "HomeBridge",
  "abi": [
    {
      "constant": true,
      "inputs": [],
      "name": "validatorCount",
      "outputs": [
        {
          "name": "",
          "type": "uint256"
        }
      ],
      "payable": false,
      "stateMutability": "view",
      "type": "function"
    },
    {
      "constant": false,
      "inputs": [
        {
          "name": "_validator",
          "type": "address"
        }
      ],
      "name": "removeValidator",
      "outputs": [],
      "payable": false,
      "stateMutability": "nonpayable",
      "type": "function"
    },
    {
      "constant": false,
      "inputs": [
        {
          "name": "_validator",
          "type": "address"
        }
      ],
      "name": "addValidator",
      "outputs": [],
      "payable": false,
      "stateMutability": "nonpayable",
      "type": "function"
    },
    {
      "constant": false,
      "inputs": [],
      "name": "renounceOwnership",
      "outputs": [],
      "payable": false,
      "stateMutability": "nonpayable",
      "type": "function"
    },
    {
      "constant": true,
      "inputs": [],
      "name": "owner",
      "outputs": [
        {
          "name": "",
          "type": "address"
        }
      ],
      "payable": false,
      "stateMutability": "view",
      "type": "function"
    },
    {
      "constant": true,
      "inputs": [],
      "name": "requiredValidators",
      "outputs": [
        {
          "name": "",
          "type": "uint8"
        }
      ],
      "payable": false,
      "stateMutability": "view",
      "type": "function"
    },
    {
      "constant": false,
      "inputs": [
        {
          "name": "_requiredValidators",
          "type": "uint8"
        }
      ],
      "name": "setRequiredValidators",
      "outputs": [],
      "payable": false,
      "stateMutability": "nonpayable",
      "type": "function"
    },
    {
      "constant": false,
      "inputs": [
        {
          "name": "_newOwner",
          "type": "address"
        }
      ],
      "name": "transferOwnership",
      "outputs": [],
      "payable": false,
      "stateMutability": "nonpayable",
      "type": "function"
    },
    {
      "constant": true,
      "inputs": [
        {
          "name": "",
          "type": "address"
        }
      ],
      "name": "validators",
      "outputs": [
        {
          "name": "",
          "type": "bool"
        }
      ],
      "payable": false,
      "stateMutability": "view",
      "type": "function"
    },
    {
      "constant": true,
      "inputs": [
        {
          "name": "_validator",
          "type": "address"
        }
      ],
      "name": "isValidator",
      "outputs": [
        {
          "name": "",
          "type": "bool"
        }
      ],
      "payable": false,
      "stateMutability": "view",
      "type": "function"
    },
    {
      "inputs": [
        {
          "name": "_requiredValidators",
          "type": "uint8"
        },
        {
          "name": "_initialValidators",
          "type": "address[]"
        }
      ],
      "payable": false,
      "stateMutability": "nonpayable",
      "type": "constructor"
    },
    {
      "anonymous": false,
      "inputs": [
        {
          "indexed": true,
          "name": "_from",
          "type": "address"
        },
        {
          "indexed": false,
          "name": "_amount",
          "type": "uint256"
        },
        {
          "indexed": false,
          "name": "_mainToken",
          "type": "address"
        },
        {
          "indexed": false,
          "name": "_data",
          "type": "bytes"
        }
      ],
      "name": "DepositReceived",
      "type": "event"
    },
    {
      "anonymous": false,
      "inputs": [
        {
          "indexed": false,
          "name": "validator",
          "type": "address"
        }
      ],
      "name": "ValidatorAdded",
      "type": "event"
    },
    {
      "anonymous": false,
      "inputs": [
        {
          "indexed": false,
          "name": "validator",
          "type": "address"
        }
      ],
      "name": "ValidatorRemoved",
      "type": "event"
    },
    {
      "anonymous": false,
      "inputs": [
        {
          "indexed": true,
          "name": "previousOwner",
          "type": "address"
        }
      ],
      "name": "OwnershipRenounced",
      "type": "event"
    },
    {
      "anonymous": false,
      "inputs": [
        {
          "indexed": true,
          "name": "previousOwner",
          "type": "address"
        },
        {
          "indexed": true,
          "name": "newOwner",
          "type": "address"
        }
      ],
      "name": "OwnershipTransferred",
      "type": "event"
    },
    {
      "constant": true,
      "inputs": [
        {
          "name": "_hash",
          "type": "bytes32"
        },
        {
          "name": "_length",
          "type": "uint256"
        },
        {
          "name": "_v",
          "type": "uint8[]"
        },
        {
          "name": "_r",
          "type": "bytes32[]"
        },
        {
          "name": "_s",
          "type": "bytes32[]"
        }
      ],
      "name": "checkValidations",
      "outputs": [
        {
          "name": "",
          "type": "uint8"
        }
      ],
      "payable": false,
      "stateMutability": "view",
      "type": "function"
    },
    {
      "constant": false,
      "inputs": [
        {
          "name": "_token",
          "type": "address"
        },
        {
          "name": "_recipient",
          "type": "address"
        },
        {
          "name": "_amount",
          "type": "uint256"
        },
        {
          "name": "_withdrawblock",
          "type": "uint256"
        },
        {
          "name": "_v",
          "type": "uint8[]"
        },
        {
          "name": "_r",
          "type": "bytes32[]"
        },
        {
          "name": "_s",
          "type": "bytes32[]"
        }
      ],
      "name": "withdraw",
      "outputs": [],
      "payable": false,
      "stateMutability": "nonpayable",
      "type": "function"
    },
    {
      "constant": false,
      "inputs": [
        {
          "name": "from",
          "type": "address"
        },
        {
          "name": "_amount",
          "type": "uint256"
        },
        {
          "name": "_token",
          "type": "address"
        },
        {
          "name": "_data",
          "type": "bytes"
        }
      ],
      "name": "receiveApproval",
      "outputs": [],
      "payable": false,
      "stateMutability": "nonpayable",
      "type": "function"
    }
  ],
  "bytecode": "0x60806040526000805460a060020a60ff02191681556001553480156200002457600080fd5b5060405162000f3e38038062000f3e833981016040528051602082015160008054600160a060020a03191633178155919201908290829060ff831615156200006b57600080fd5b815160ff841611156200007d57600080fd5b5060005b81518110156200013557620000bd82828151811015156200009e57fe5b9060200190602002015162000158640100000000026401000000009004565b158015620000ee57508151600090839083908110620000d857fe5b90602001906020020151600160a060020a031614155b1515620000fa57600080fd5b6200012c82828151811015156200010d57fe5b906020019060200201516200017b640100000000026401000000009004565b60010162000081565b620001498364010000000062000220810204565b5051600155506200027f915050565b600160a060020a031660009081526002602052604090205460ff16151560011490565b600054600160a060020a031633146200019357600080fd5b600160a060020a03811660009081526002602052604090205460ff16151560011415620001bc57fe5b600160a060020a038116600081815260026020908152604091829020805460ff19166001908117909155805481019055815192835290517fe366c1c0452ed8eec96861e9e54141ebff23c9ec89fe27b996b45f5ec38849879281900390910190a150565b600054600160a060020a031633146200023857600080fd5b60015460ff821611156200024b57600080fd5b6000805460ff909216740100000000000000000000000000000000000000000260a060020a60ff0219909216919091179055565b610caf806200028f6000396000f3006080604052600436106100c45763ffffffff7c01000000000000000000000000000000000000000000000000000000006000350416630f43a67781146100c957806340a141ff146100f05780634d238c8e14610113578063715018a614610134578063736a2684146101495780638da5cb5b1461022f5780638f4ffcb11461026057806397c875dd146102d0578063cd99b7ac146102fb578063d2ddc509146103cb578063f2fde38b146103e6578063fa52c7d814610407578063facd743b1461043c575b600080fd5b3480156100d557600080fd5b506100de61045d565b60408051918252519081900360200190f35b3480156100fc57600080fd5b50610111600160a060020a0360043516610463565b005b34801561011f57600080fd5b50610111600160a060020a0360043516610508565b34801561014057600080fd5b506101116105ab565b34801561015557600080fd5b506040805160206004608435818101358381028086018501909652808552610111958335600160a060020a0390811696602480359092169660443596606435963696919560a4959091019282919085019084908082843750506040805187358901803560208181028481018201909552818452989b9a998901989297509082019550935083925085019084908082843750506040805187358901803560208181028481018201909552818452989b9a9989019892975090820195509350839250850190849080828437509497506106179650505050505050565b34801561023b57600080fd5b506102446107f5565b60408051600160a060020a039092168252519081900360200190f35b34801561026c57600080fd5b50604080516020601f60643560048181013592830184900484028501840190955281845261011194600160a060020a038135811695602480359660443590931695369560849492019181908401838280828437509497506108049650505050505050565b3480156102dc57600080fd5b506102e5610a35565b6040805160ff9092168252519081900360200190f35b34801561030757600080fd5b5060408051602060046044358181013583810280860185019096528085526102e5958335956024803596369695606495939492019291829185019084908082843750506040805187358901803560208181028481018201909552818452989b9a998901989297509082019550935083925085019084908082843750506040805187358901803560208181028481018201909552818452989b9a998901989297509082019550935083925085019084908082843750949750610a569650505050505050565b3480156103d757600080fd5b5061011160ff60043516610b40565b3480156103f257600080fd5b50610111600160a060020a0360043516610bab565b34801561041357600080fd5b50610428600160a060020a0360043516610bce565b604080519115158252519081900360200190f35b34801561044857600080fd5b50610428600160a060020a0360043516610be3565b60015481565b600054600160a060020a0316331461047a57600080fd5b6000546001547401000000000000000000000000000000000000000090910460ff16106104a657600080fd5b600160a060020a038116600081815260026020908152604091829020805460ff1916905560018054600019019055815192835290517fe1434e25d6611e0db941968fdc97811c982ac1602e951637d206f5fdda9dd8f19281900390910190a150565b600054600160a060020a0316331461051f57600080fd5b600160a060020a03811660009081526002602052604090205460ff1615156001141561054757fe5b600160a060020a038116600081815260026020908152604091829020805460ff19166001908117909155805481019055815192835290517fe366c1c0452ed8eec96861e9e54141ebff23c9ec89fe27b996b45f5ec38849879281900390910190a150565b600054600160a060020a031633146105c257600080fd5b60008054604051600160a060020a03909116917ff8df31144d9c2f0f6b59d69b8b98abd5459d07f2742c4df920b25aae33c6482091a26000805473ffffffffffffffffffffffffffffffffffffffff19169055565b604080516c01000000000000000000000000600160a060020a03808b16820283528916026014820152602881018790526048810186905290516000916002916068808301926020929190829003018186865af115801561067b573d6000803e3d6000fd5b5050506040513d602081101561069057600080fd5b505160008181526003602052604090205490915060ff16156106ae57fe5b6000818152600360205260409020805460ff19166001179055600160a060020a03881615156106d957fe5b600160a060020a03871615156106eb57fe5b60008610156106f657fe5b835160001061070157fe5b825184511461070c57fe5b815184511461071757fe5b600060149054906101000a900460ff1660ff16610738828651878787610a56565b60ff16101561074357fe5b87600160a060020a031663a9059cbb88886040518363ffffffff167c01000000000000000000000000000000000000000000000000000000000281526004018083600160a060020a0316600160a060020a0316815260200182815260200192505050602060405180830381600087803b1580156107bf57600080fd5b505af11580156107d3573d6000803e3d6000fd5b505050506040513d60208110156107e957600080fd5b50505050505050505050565b600054600160a060020a031681565b600160a060020a038416151561081657fe5b600160a060020a038216151561082857fe5b6000831161083257fe5b604080517fdd62ed3e000000000000000000000000000000000000000000000000000000008152600160a060020a0386811660048301523060248301529151859285169163dd62ed3e9160448083019260209291908290030181600087803b15801561089d57600080fd5b505af11580156108b1573d6000803e3d6000fd5b505050506040513d60208110156108c757600080fd5b505110156108d457600080fd5b604080517f23b872dd000000000000000000000000000000000000000000000000000000008152600160a060020a038681166004830152306024830152604482018690529151918416916323b872dd916064808201926020929091908290030181600087803b15801561094657600080fd5b505af115801561095a573d6000803e3d6000fd5b505050506040513d602081101561097057600080fd5b505060408051848152600160a060020a0384811660208381019190915260609383018481528551948401949094528451918816937f8ea3f675ef0a8a2eacc970ac90ee14eb07990f55c8c64ec8774f14b66ecfde619388938893889391608084019185019080838360005b838110156109f35781810151838201526020016109db565b50505050905090810190601f168015610a205780820380516001836020036101000a031916815260200191505b5094505050505060405180910390a250505050565b60005474010000000000000000000000000000000000000000900460ff1681565b60008080805b87821015610b33576001898884815181101515610a7557fe5b906020019060200201518885815181101515610a8d57fe5b906020019060200201518886815181101515610aa557fe5b60209081029091018101516040805160008082528185018084529790975260ff9095168582015260608501939093526080840152905160a0808401949293601f19830193908390039091019190865af1158015610b06573d6000803e3d6000fd5b505050602060405103519050610b1b81610be3565b1515610b2357fe5b6001928301929190910190610a5c565b5090979650505050505050565b600054600160a060020a03163314610b5757600080fd5b60015460ff82161115610b6957600080fd5b6000805460ff909216740100000000000000000000000000000000000000000274ff000000000000000000000000000000000000000019909216919091179055565b600054600160a060020a03163314610bc257600080fd5b610bcb81610c06565b50565b60026020526000908152604090205460ff1681565b600160a060020a031660009081526002602052604090205460ff16151560011490565b600160a060020a0381161515610c1b57600080fd5b60008054604051600160a060020a03808516939216917f8be0079c531659141344cd1fd0a4f28419497f9722a3daafe3b4186f6b6457e091a36000805473ffffffffffffffffffffffffffffffffffffffff1916600160a060020a03929092169190911790555600a165627a7a7230582056f191758b7369f69bc4a8567721db669a7b2f389e8b376ff44b4676e568b00f0029",
  "source": "pragma solidity ^0.4.18;\n\nimport './external/Ownable.sol';\nimport './external/SafeMath.sol';\nimport './external/MiniMeToken.sol';\nimport './DTXToken.sol';\n\nimport './Validatable.sol';\n\ncontract HomeBridge is Ownable, Validatable, ApproveAndCallFallBack {\n\tusing SafeMath for uint256;\n\n\tmapping(bytes32=>bool) usedHashes;\n\n\tevent DepositReceived(address indexed _from, uint256 _amount, address _mainToken, bytes _data);\n\t\n\tfunction HomeBridge(uint8 _requiredValidators,address[] _initialValidators) Validatable(_requiredValidators,_initialValidators) public {\n\n\t}\n\n\tfunction checkValidations(\n\t\tbytes32 _hash,\n\t\tuint256 _length,\n\t\tuint8[] _v,\n\t\tbytes32[] _r,\n\t\tbytes32[] _s) public view returns(uint8){\n\t\tuint8 approvals = 0;\n        for (uint i = 0; i < _length ; i++) {\n        \taddress validator = ecrecover(_hash, _v[i], _r[i], _s[i]);\n        \tassert(isValidator(validator));\n        \tapprovals++;\n        }\n        return approvals;\n\t}\n\n\tfunction withdraw(\n\t\taddress _token,\n\t\taddress _recipient,\n\t\tuint256 _amount,\n\t\tuint256 _withdrawblock,\n\t\tuint8[] _v,\n\t\tbytes32[] _r,\n\t\tbytes32[] _s) public {\n\n\t\tbytes32 hash = sha256(_token,_recipient,_amount,_withdrawblock);\n\n\t\t// the hash should not have been used before\n\t\tassert(usedHashes[hash] == false);\n\n\t\t// mark hash as used\n\t\tusedHashes[hash] = true;\n\n\t\tassert(_token != 0x0);\n\n\t\tassert(_recipient != 0x0);\n\n\t\tassert(_amount >= 0);\n\n\t\t// verify the provided signatures\n\t\tassert(_v.length > 0);\n\t\tassert(_v.length == _r.length);\n\t\tassert(_v.length == _s.length);\n\n\t\t// verify if the threshold of required signatures is met\n\t\tassert(checkValidations(hash,_v.length,_v,_r,_s) >= requiredValidators);\n\t\t// ERC-20 transfer\n\t\tDTXToken(_token).transfer(_recipient, _amount);\n\t}\t\n\n    function receiveApproval(address from, uint256 _amount, address _token, bytes _data) public {\n\t\tassert(from != 0x0);\n\t\tassert(_token != 0x0);\n\t\tassert(_amount > 0);\n\n        require(DTXToken(_token).allowance(from, address(this)) >= _amount);\n\t\tDTXToken(_token).transferFrom(from, address(this), _amount);\n\n\t\temit DepositReceived(from, _amount, _token, _data);\n\t}\n\n}\n\n",
  "sourcePath": "/Users/thomas/Projecten/bridge/erc20-bridge/contracts/HomeBridge.sol",
  "compiler": {
    "name": "solc",
    "version": "0.4.24+commit.e67f0147.Emscripten.clang"
  },
  "schemaVersion": "2.0.1",
  "updatedAt": "2018-07-31T13:31:05.270Z"
}