{
  "contractName": "HomeERC20Bridge",
  "abi": [
    {
      "constant": true,
      "inputs": [],
      "name": "validatorCount",
      "outputs": [
        {
          "name": "",
          "type": "uint256"
        }
      ],
      "payable": false,
      "stateMutability": "view",
      "type": "function"
    },
    {
      "constant": false,
      "inputs": [
        {
          "name": "_validator",
          "type": "address"
        }
      ],
      "name": "removeValidator",
      "outputs": [],
      "payable": false,
      "stateMutability": "nonpayable",
      "type": "function"
    },
    {
      "constant": false,
      "inputs": [
        {
          "name": "_validator",
          "type": "address"
        }
      ],
      "name": "addValidator",
      "outputs": [],
      "payable": false,
      "stateMutability": "nonpayable",
      "type": "function"
    },
    {
      "constant": true,
      "inputs": [],
      "name": "owner",
      "outputs": [
        {
          "name": "",
          "type": "address"
        }
      ],
      "payable": false,
      "stateMutability": "view",
      "type": "function"
    },
    {
      "constant": false,
      "inputs": [
        {
          "name": "_requiredValidators",
          "type": "uint8"
        }
      ],
      "name": "setRequiredValidators",
      "outputs": [],
      "payable": false,
      "stateMutability": "nonpayable",
      "type": "function"
    },
    {
      "constant": false,
      "inputs": [
        {
          "name": "newOwner",
          "type": "address"
        }
      ],
      "name": "transferOwnership",
      "outputs": [],
      "payable": false,
      "stateMutability": "nonpayable",
      "type": "function"
    },
    {
      "constant": true,
      "inputs": [
        {
          "name": "",
          "type": "address"
        }
      ],
      "name": "validators",
      "outputs": [
        {
          "name": "",
          "type": "bool"
        }
      ],
      "payable": false,
      "stateMutability": "view",
      "type": "function"
    },
    {
      "constant": true,
      "inputs": [
        {
          "name": "_validator",
          "type": "address"
        }
      ],
      "name": "isValidator",
      "outputs": [
        {
          "name": "",
          "type": "bool"
        }
      ],
      "payable": false,
      "stateMutability": "view",
      "type": "function"
    },
    {
      "inputs": [
        {
          "name": "_requiredValidators",
          "type": "uint8"
        },
        {
          "name": "_initialValidators",
          "type": "address[]"
        }
      ],
      "payable": false,
      "stateMutability": "nonpayable",
      "type": "constructor"
    },
    {
      "payable": true,
      "stateMutability": "payable",
      "type": "fallback"
    },
    {
      "anonymous": false,
      "inputs": [
        {
          "indexed": false,
          "name": "from",
          "type": "address"
        },
        {
          "indexed": false,
          "name": "value",
          "type": "uint256"
        }
      ],
      "name": "BridgeETH",
      "type": "event"
    },
    {
      "anonymous": false,
      "inputs": [
        {
          "indexed": false,
          "name": "_hash",
          "type": "bytes32"
        }
      ],
      "name": "EmitHash",
      "type": "event"
    },
    {
      "anonymous": false,
      "inputs": [
        {
          "indexed": false,
          "name": "validator",
          "type": "address"
        }
      ],
      "name": "ValidatorAdded",
      "type": "event"
    },
    {
      "anonymous": false,
      "inputs": [
        {
          "indexed": false,
          "name": "validator",
          "type": "address"
        }
      ],
      "name": "ValidatorRemoved",
      "type": "event"
    },
    {
      "anonymous": false,
      "inputs": [
        {
          "indexed": true,
          "name": "previousOwner",
          "type": "address"
        },
        {
          "indexed": true,
          "name": "newOwner",
          "type": "address"
        }
      ],
      "name": "OwnershipTransferred",
      "type": "event"
    },
    {
      "constant": true,
      "inputs": [
        {
          "name": "_hash",
          "type": "bytes32"
        },
        {
          "name": "_length",
          "type": "uint256"
        },
        {
          "name": "_v",
          "type": "uint8[]"
        },
        {
          "name": "_r",
          "type": "bytes32[]"
        },
        {
          "name": "_s",
          "type": "bytes32[]"
        }
      ],
      "name": "checkValidations",
      "outputs": [
        {
          "name": "",
          "type": "uint8"
        }
      ],
      "payable": false,
      "stateMutability": "view",
      "type": "function"
    },
    {
      "constant": false,
      "inputs": [
        {
          "name": "_token",
          "type": "address"
        },
        {
          "name": "_recipient",
          "type": "address"
        },
        {
          "name": "_amount",
          "type": "uint256"
        },
        {
          "name": "_withdrawblock",
          "type": "uint256"
        },
        {
          "name": "_reward",
          "type": "uint256"
        },
        {
          "name": "_v",
          "type": "uint8[]"
        },
        {
          "name": "_r",
          "type": "bytes32[]"
        },
        {
          "name": "_s",
          "type": "bytes32[]"
        }
      ],
      "name": "withdraw",
      "outputs": [],
      "payable": false,
      "stateMutability": "nonpayable",
      "type": "function"
    }
  ],
  "bytecode": "0x60606040526000805460a060020a60ff021916815560015534156200002357600080fd5b60405162000f0538038062000f05833981016040528080519190602001805160008054600160a060020a03191633600160a060020a0316178155920191839150829060ff831615156200007557600080fd5b8260ff16825110156200008757600080fd5b5060005b81518110156200013657620000c4828281518110620000a657fe5b9060200190602002015164010000000062000bfa6200016082021704565b158015620000f257506000828281518110620000dc57fe5b90602001906020020151600160a060020a031614155b1515620000fe57600080fd5b6200012d8282815181106200010f57fe5b906020019060200201516401000000006200048a6200018382021704565b6001016200008b565b6200014f8364010000000062000ada6200023682021704565b8151600155506200029a9350505050565b600160a060020a031660009081526002602052604090205460ff16151560011490565b60005433600160a060020a039081169116146200019f57600080fd5b600160a060020a03811660009081526002602052604090205460ff16151560011415620001c857fe5b600160a060020a03811660009081526002602052604090819020805460ff191660019081179091558054810190557fe366c1c0452ed8eec96861e9e54141ebff23c9ec89fe27b996b45f5ec388498790829051600160a060020a03909116815260200160405180910390a150565b60005433600160a060020a039081169116146200025257600080fd5b60015460ff82169010156200026657600080fd5b6000805460ff909216740100000000000000000000000000000000000000000260a060020a60ff0219909216919091179055565b610c5b80620002aa6000396000f30060606040526004361061008a5763ffffffff60e060020a6000350416630f43a67781146100d057806340a141ff146100f55780634d238c8e146101165780638da5cb5b14610135578063a8d5a29314610164578063cd99b7ac14610256578063d2ddc50914610346578063f2fde38b1461035f578063fa52c7d81461037e578063facd743b146103b1575b7ff33c77699cfa162a695575edc58ec84d2a716a592214e6365c968b403f8bc3a63334604051600160a060020a03909216825260208201526040908101905180910390a1005b34156100db57600080fd5b6100e36103d0565b60405190815260200160405180910390f35b341561010057600080fd5b610114600160a060020a03600435166103d6565b005b341561012157600080fd5b610114600160a060020a036004351661048a565b341561014057600080fd5b61014861053b565b604051600160a060020a03909116815260200160405180910390f35b341561016f57600080fd5b610114600160a060020a0360048035821691602480359091169160443591606435916084359160c49060a4359081019083013580602081810201604051908101604052809392919081815260200183836020028082843782019150505050505091908035906020019082018035906020019080806020026020016040519081016040528093929190818152602001838360200280828437820191505050505050919080359060200190820180359060200190808060200260200160405190810160405280939291908181526020018383602002808284375094965061054a95505050505050565b341561026157600080fd5b6103306004803590602480359190606490604435908101908301358060208181020160405190810160405280939291908181526020018383602002808284378201915050505050509190803590602001908201803590602001908080602002602001604051908101604052809392919081815260200183836020028082843782019150505050505091908035906020019082018035906020019080806020026020016040519081016040528093929190818152602001838360200280828437509496506109fc95505050505050565b60405160ff909116815260200160405180910390f35b341561035157600080fd5b61011460ff60043516610ada565b341561036a57600080fd5b610114600160a060020a0360043516610b4a565b341561038957600080fd5b61039d600160a060020a0360043516610be5565b604051901515815260200160405180910390f35b34156103bc57600080fd5b61039d600160a060020a0360043516610bfa565b60015481565b60005433600160a060020a039081169116146103f157600080fd5b6000546001547401000000000000000000000000000000000000000090910460ff16901161041e57600080fd5b600160a060020a03811660009081526002602052604090819020805460ff19169055600180546000190190557fe1434e25d6611e0db941968fdc97811c982ac1602e951637d206f5fdda9dd8f190829051600160a060020a03909116815260200160405180910390a150565b60005433600160a060020a039081169116146104a557600080fd5b600160a060020a03811660009081526002602052604090205460ff161515600114156104cd57fe5b600160a060020a03811660009081526002602052604090819020805460ff191660019081179091558054810190557fe366c1c0452ed8eec96861e9e54141ebff23c9ec89fe27b996b45f5ec388498790829051600160a060020a03909116815260200160405180910390a150565b600054600160a060020a031681565b60008060028a8a8a8a6040516c01000000000000000000000000600160a060020a0395861681028252939094169092026014840152602883015260488201526068016020604051808303816000865af115156105a557600080fd5b5050604051805160008181526003602052604090205490935060ff161590506105ca57fe5b6000828152600360205260409020805460ff19166001179055438711156105ed57fe5b60008551116105f857fe5b60008611156109055787861061060a57fe5b60005474010000000000000000000000000000000000000000900460ff166106398360018851038888886109fc565b60ff16101561064457fe5b6002828b8b8b8b8b6040519586526c01000000000000000000000000600160a060020a03958616810260208089019190915294909516909402603486015260488501919091526068840152608883019190915260a890910190604051808303816000865af115156106b457600080fd5b50506040518051915050600160a060020a0389166001828782815103815181106106da57fe5b906020019060200201518760018a5103815181106106f457fe5b906020019060200201518760018b51038151811061070e57fe5b906020019060200201516040516000815260200160405260405193845260ff9092166020808501919091526040808501929092526060840192909252608090920191516020810390808403906000865af1151561076a57600080fd5b505060206040510351600160a060020a03161461078357fe5b600160a060020a038a16151561080b57600160a060020a0389166108fc6107b08a8963ffffffff610c1d16565b9081150290604051600060405180830381858888f1935050505015156107d557600080fd5b600160a060020a03331686156108fc0287604051600060405180830381858888f19350505050151561080657600080fd5b610900565b600160a060020a038a1663a9059cbb8a61082b8b8a63ffffffff610c1d16565b60405160e060020a63ffffffff8516028152600160a060020a0390921660048301526024820152604401602060405180830381600087803b151561086e57600080fd5b5af1151561087b57600080fd5b50505060405180519050151561088d57fe5b89600160a060020a031663a9059cbb338860405160e060020a63ffffffff8516028152600160a060020a0390921660048301526024820152604401602060405180830381600087803b15156108e157600080fd5b5af115156108ee57600080fd5b50505060405180519050151561090057fe5b6109f0565b60005474010000000000000000000000000000000000000000900460ff166109318387518888886109fc565b60ff16101561093c57fe5b600160a060020a038a16151561097d57600160a060020a03891688156108fc0289604051600060405180830381858888f19350505050151561090057600080fd5b89600160a060020a031663a9059cbb8a8a60405160e060020a63ffffffff8516028152600160a060020a0390921660048301526024820152604401602060405180830381600087803b15156109d157600080fd5b5af115156109de57600080fd5b5050506040518051905015156109f057fe5b50505050505050505050565b60008080805b87821015610acd57600189888481518110610a1957fe5b90602001906020020151888581518110610a2f57fe5b90602001906020020151888681518110610a4557fe5b906020019060200201516040516000815260200160405260405193845260ff9092166020808501919091526040808501929092526060840192909252608090920191516020810390808403906000865af11515610aa157600080fd5b5050602060405103519050610ab581610bfa565b1515610abd57fe5b6001928301929190910190610a02565b5090979650505050505050565b60005433600160a060020a03908116911614610af557600080fd5b60015460ff8216901015610b0857600080fd5b6000805460ff909216740100000000000000000000000000000000000000000274ff000000000000000000000000000000000000000019909216919091179055565b60005433600160a060020a03908116911614610b6557600080fd5b600160a060020a0381161515610b7a57600080fd5b600054600160a060020a0380831691167f8be0079c531659141344cd1fd0a4f28419497f9722a3daafe3b4186f6b6457e060405160405180910390a36000805473ffffffffffffffffffffffffffffffffffffffff1916600160a060020a0392909216919091179055565b60026020526000908152604090205460ff1681565b600160a060020a031660009081526002602052604090205460ff16151560011490565b600082821115610c2957fe5b509003905600a165627a7a723058201b81d78867b50098ddf73d82949c914eb6e1db9a92145eb710717a96e64cb0890029",
  "source": "pragma solidity ^0.4.18;\n\nimport 'openzeppelin-solidity/contracts/token/ERC20/ERC20Basic.sol';\nimport 'openzeppelin-solidity/contracts/ownership/Ownable.sol';\nimport 'openzeppelin-solidity/contracts/math/SafeMath.sol';\n\nimport './Validatable.sol';\n\ncontract HomeERC20Bridge is Validatable {\n\tusing SafeMath for uint256;\n\n\tmapping(bytes32=>bool) usedHashes;\n\t\n\tevent BridgeETH(address from, uint256 value);\n\n\tfunction HomeERC20Bridge(uint8 _requiredValidators,address[] _initialValidators) Validatable(_requiredValidators,_initialValidators) public {\n\n\t}\n\n\t// ETH deposit\n\tfunction() public payable {\n\t\tBridgeETH(msg.sender,msg.value);\n\t}\n\n\tevent EmitHash(bytes32 _hash);\n\n\tfunction checkValidations(\n\t\tbytes32 _hash,\n\t\tuint256 _length,\n\t\tuint8[] _v,\n\t\tbytes32[] _r,\n\t\tbytes32[] _s) public view returns(uint8){\n\t\tuint8 approvals = 0;\n        for (uint i = 0; i < _length ; i++) {\n        \taddress validator = ecrecover(_hash, _v[i], _r[i], _s[i]);\n        \tassert(isValidator(validator));\n        \tapprovals++;\n        }\n        return approvals;\n\t}\n\n\tfunction withdraw(\n\t\taddress _token,\n\t\taddress _recipient,\n\t\tuint256 _amount,\n\t\tuint256 _withdrawblock,\n\t\tuint256 _reward,\n\t\tuint8[] _v,\n\t\tbytes32[] _r,\n\t\tbytes32[] _s) public{\n\n\t\tbytes32 hash = sha256(_token,_recipient,_amount,_withdrawblock);\n\n\t\t// the hash should not have been used before\n\t\tassert(usedHashes[hash] == false);\n\n\t\t// mark hash as used\n\t\tusedHashes[hash] = true;\n\n\t\t// the time-lock should have passed\n        assert(_withdrawblock <= block.number);\t\t\n\n\t\t// verify the provided signatures\n\t\tassert(_v.length > 0);\n\n        if (_reward > 0) {\n\t        assert(_reward < _amount);\n\t\t\t// verify if the threshold of required signatures is met\n    \t    assert(checkValidations(hash,_v.length-1,_v,_r,_s) >= requiredValidators);\n\t\t    // check if the reward has been signed off by the receiver ( last signature ) ...\n    \t\tbytes32 rewardHash = sha256(hash,_token,_recipient,_amount,_withdrawblock,_reward);\n    \t\tassert(ecrecover(rewardHash, _v[_v.length-1], _r[_v.length-1], _s[_v.length-1]) == _recipient);\n\t\t\t// all OK. mark hash as used & Transfer tokens + reward\n\t\t\tif (_token == 0x0){\n\t\t\t\t// ETH transfer\n\t\t\t\t_recipient.transfer(_amount.sub(_reward));\n\t\t\t\tmsg.sender.transfer(_reward);\n\t\t\t}else{\n\t\t\t\t// ERC-20 transfer\n\t\t\t\tassert(ERC20Basic(_token).transfer(_recipient,_amount.sub(_reward)));\n\t\t\t\tassert(ERC20Basic(_token).transfer(msg.sender,_reward));\n\t\t\t}\t\t\n        }else{\n\t\t\t// verify if the threshold of required signatures is met\n    \t    assert(checkValidations(hash,_v.length,_v,_r,_s) >= requiredValidators);\n\t\t\tif (_token == 0x0){\n\t\t\t\t// ETH transfer\n\t\t\t\t_recipient.transfer(_amount);\n\t\t\t}else{\n\t\t\t\t// ERC-20 transfer\n\t\t\t\tassert(ERC20Basic(_token).transfer(_recipient,_amount));\n\t\t\t}\n        }\n\t}\t\n\n\n}\n\n",
  "sourcePath": "/Users/jodus/Projecten/settlemint/erc20-bridge/contracts/HomeERC20Bridge.sol",
  "compiler": {
    "name": "solc",
    "version": "0.4.21+commit.dfe3193c.Emscripten.clang"
  },
  "schemaVersion": "2.0.0",
  "updatedAt": "2018-07-04T09:01:29.002Z"
}