{
  "contractName": "HomeERC20Bridge",
  "abi": [
    {
      "constant": true,
      "inputs": [],
      "name": "validatorCount",
      "outputs": [
        {
          "name": "",
          "type": "uint256"
        }
      ],
      "payable": false,
      "stateMutability": "view",
      "type": "function"
    },
    {
      "constant": false,
      "inputs": [
        {
          "name": "_validator",
          "type": "address"
        }
      ],
      "name": "removeValidator",
      "outputs": [],
      "payable": false,
      "stateMutability": "nonpayable",
      "type": "function"
    },
    {
      "constant": false,
      "inputs": [
        {
          "name": "_validator",
          "type": "address"
        }
      ],
      "name": "addValidator",
      "outputs": [],
      "payable": false,
      "stateMutability": "nonpayable",
      "type": "function"
    },
    {
      "constant": true,
      "inputs": [],
      "name": "owner",
      "outputs": [
        {
          "name": "",
          "type": "address"
        }
      ],
      "payable": false,
      "stateMutability": "view",
      "type": "function"
    },
    {
      "constant": false,
      "inputs": [
        {
          "name": "_requiredValidators",
          "type": "uint8"
        }
      ],
      "name": "setRequiredValidators",
      "outputs": [],
      "payable": false,
      "stateMutability": "nonpayable",
      "type": "function"
    },
    {
      "constant": false,
      "inputs": [
        {
          "name": "newOwner",
          "type": "address"
        }
      ],
      "name": "transferOwnership",
      "outputs": [],
      "payable": false,
      "stateMutability": "nonpayable",
      "type": "function"
    },
    {
      "constant": true,
      "inputs": [
        {
          "name": "",
          "type": "address"
        }
      ],
      "name": "validators",
      "outputs": [
        {
          "name": "",
          "type": "bool"
        }
      ],
      "payable": false,
      "stateMutability": "view",
      "type": "function"
    },
    {
      "constant": true,
      "inputs": [
        {
          "name": "_validator",
          "type": "address"
        }
      ],
      "name": "isValidator",
      "outputs": [
        {
          "name": "",
          "type": "bool"
        }
      ],
      "payable": false,
      "stateMutability": "view",
      "type": "function"
    },
    {
      "inputs": [
        {
          "name": "_requiredValidators",
          "type": "uint8"
        },
        {
          "name": "_initialValidators",
          "type": "address[]"
        }
      ],
      "payable": false,
      "stateMutability": "nonpayable",
      "type": "constructor"
    },
    {
      "payable": true,
      "stateMutability": "payable",
      "type": "fallback"
    },
    {
      "anonymous": false,
      "inputs": [
        {
          "indexed": false,
          "name": "from",
          "type": "address"
        },
        {
          "indexed": false,
          "name": "value",
          "type": "uint256"
        }
      ],
      "name": "BridgeETH",
      "type": "event"
    },
    {
      "anonymous": false,
      "inputs": [
        {
          "indexed": false,
          "name": "_hash",
          "type": "bytes32"
        }
      ],
      "name": "EmitHash",
      "type": "event"
    },
    {
      "anonymous": false,
      "inputs": [
        {
          "indexed": false,
          "name": "validator",
          "type": "address"
        }
      ],
      "name": "ValidatorAdded",
      "type": "event"
    },
    {
      "anonymous": false,
      "inputs": [
        {
          "indexed": false,
          "name": "validator",
          "type": "address"
        }
      ],
      "name": "ValidatorRemoved",
      "type": "event"
    },
    {
      "anonymous": false,
      "inputs": [
        {
          "indexed": true,
          "name": "previousOwner",
          "type": "address"
        },
        {
          "indexed": true,
          "name": "newOwner",
          "type": "address"
        }
      ],
      "name": "OwnershipTransferred",
      "type": "event"
    },
    {
      "constant": true,
      "inputs": [
        {
          "name": "_hash",
          "type": "bytes32"
        },
        {
          "name": "_length",
          "type": "uint256"
        },
        {
          "name": "_v",
          "type": "uint8[]"
        },
        {
          "name": "_r",
          "type": "bytes32[]"
        },
        {
          "name": "_s",
          "type": "bytes32[]"
        }
      ],
      "name": "checkValidations",
      "outputs": [
        {
          "name": "",
          "type": "uint8"
        }
      ],
      "payable": false,
      "stateMutability": "view",
      "type": "function"
    },
    {
      "constant": false,
      "inputs": [
        {
          "name": "_token",
          "type": "address"
        },
        {
          "name": "_recipient",
          "type": "address"
        },
        {
          "name": "_amount",
          "type": "uint256"
        },
        {
          "name": "_withdrawblock",
          "type": "uint256"
        },
        {
          "name": "_reward",
          "type": "uint256"
        },
        {
          "name": "_v",
          "type": "uint8[]"
        },
        {
          "name": "_r",
          "type": "bytes32[]"
        },
        {
          "name": "_s",
          "type": "bytes32[]"
        }
      ],
      "name": "withdraw",
      "outputs": [],
      "payable": false,
      "stateMutability": "nonpayable",
      "type": "function"
    }
  ],
  "bytecode": "0x606060405260008060146101000a81548160ff021916908360ff160217905550600060015534156200003057600080fd5b60405162001771380380620017718339810160405280805190602001909190805182019190505081816000336000806101000a81548173ffffffffffffffffffffffffffffffffffffffff021916908373ffffffffffffffffffffffffffffffffffffffff16021790555060008360ff1614151515620000af57600080fd5b8260ff16825110151515620000c357600080fd5b600090505b8151811015620001ad57620001098282815181101515620000e557fe5b90602001906020020151620001df640100000000026200126a176401000000009004565b1580156200015c5750600073ffffffffffffffffffffffffffffffffffffffff1682828151811015156200013957fe5b9060200190602002015173ffffffffffffffffffffffffffffffffffffffff1614155b15156200016857600080fd5b6200019f82828151811015156200017b57fe5b906020019060200201516200023c6401000000000262000693176401000000009004565b8080600101915050620000c8565b620001cc83620003c66401000000000262001068176401000000009004565b8151600181905550505050505062000455565b600060011515600260008473ffffffffffffffffffffffffffffffffffffffff1673ffffffffffffffffffffffffffffffffffffffff16815260200190815260200160002060009054906101000a900460ff161515149050919050565b6000809054906101000a900473ffffffffffffffffffffffffffffffffffffffff1673ffffffffffffffffffffffffffffffffffffffff163373ffffffffffffffffffffffffffffffffffffffff161415156200029857600080fd5b60011515600260008373ffffffffffffffffffffffffffffffffffffffff1673ffffffffffffffffffffffffffffffffffffffff16815260200190815260200160002060009054906101000a900460ff16151514151515620002f657fe5b6001600260008373ffffffffffffffffffffffffffffffffffffffff1673ffffffffffffffffffffffffffffffffffffffff16815260200190815260200160002060006101000a81548160ff0219169083151502179055506001600081548092919060010191905055507fe366c1c0452ed8eec96861e9e54141ebff23c9ec89fe27b996b45f5ec388498781604051808273ffffffffffffffffffffffffffffffffffffffff1673ffffffffffffffffffffffffffffffffffffffff16815260200191505060405180910390a150565b6000809054906101000a900473ffffffffffffffffffffffffffffffffffffffff1673ffffffffffffffffffffffffffffffffffffffff163373ffffffffffffffffffffffffffffffffffffffff161415156200042257600080fd5b8060ff16600154101515156200043757600080fd5b80600060146101000a81548160ff021916908360ff16021790555050565b61130c80620004656000396000f3006060604052600436106100a4576000357c0100000000000000000000000000000000000000000000000000000000900463ffffffff1680630f43a6771461011157806340a141ff1461013a5780634d238c8e146101735780638da5cb5b146101ac578063a8d5a29314610201578063cd99b7ac14610334578063d2ddc5091461043e578063f2fde38b14610464578063fa52c7d81461049d578063facd743b146104ee575b7ff33c77699cfa162a695575edc58ec84d2a716a592214e6365c968b403f8bc3a63334604051808373ffffffffffffffffffffffffffffffffffffffff1673ffffffffffffffffffffffffffffffffffffffff1681526020018281526020019250505060405180910390a1005b341561011c57600080fd5b61012461053f565b6040518082815260200191505060405180910390f35b341561014557600080fd5b610171600480803573ffffffffffffffffffffffffffffffffffffffff16906020019091905050610545565b005b341561017e57600080fd5b6101aa600480803573ffffffffffffffffffffffffffffffffffffffff16906020019091905050610693565b005b34156101b757600080fd5b6101bf61081b565b604051808273ffffffffffffffffffffffffffffffffffffffff1673ffffffffffffffffffffffffffffffffffffffff16815260200191505060405180910390f35b341561020c57600080fd5b610332600480803573ffffffffffffffffffffffffffffffffffffffff1690602001909190803573ffffffffffffffffffffffffffffffffffffffff16906020019091908035906020019091908035906020019091908035906020019091908035906020019082018035906020019080806020026020016040519081016040528093929190818152602001838360200280828437820191505050505050919080359060200190820180359060200190808060200260200160405190810160405280939291908181526020018383602002808284378201915050505050509190803590602001908201803590602001908080602002602001604051908101604052809392919081815260200183836020028082843782019150505050505091905050610840565b005b341561033f57600080fd5b610422600480803560001916906020019091908035906020019091908035906020019082018035906020019080806020026020016040519081016040528093929190818152602001838360200280828437820191505050505050919080359060200190820180359060200190808060200260200160405190810160405280939291908181526020018383602002808284378201915050505050509190803590602001908201803590602001908080602002602001604051908101604052809392919081815260200183836020028082843782019150505050505091905050610f5b565b604051808260ff1660ff16815260200191505060405180910390f35b341561044957600080fd5b610462600480803560ff16906020019091905050611068565b005b341561046f57600080fd5b61049b600480803573ffffffffffffffffffffffffffffffffffffffff169060200190919050506110f5565b005b34156104a857600080fd5b6104d4600480803573ffffffffffffffffffffffffffffffffffffffff1690602001909190505061124a565b604051808215151515815260200191505060405180910390f35b34156104f957600080fd5b610525600480803573ffffffffffffffffffffffffffffffffffffffff1690602001909190505061126a565b604051808215151515815260200191505060405180910390f35b60015481565b6000809054906101000a900473ffffffffffffffffffffffffffffffffffffffff1673ffffffffffffffffffffffffffffffffffffffff163373ffffffffffffffffffffffffffffffffffffffff161415156105a057600080fd5b600060149054906101000a900460ff1660ff166001541115156105c257600080fd5b6000600260008373ffffffffffffffffffffffffffffffffffffffff1673ffffffffffffffffffffffffffffffffffffffff16815260200190815260200160002060006101000a81548160ff021916908315150217905550600160008154809291906001900391905055507fe1434e25d6611e0db941968fdc97811c982ac1602e951637d206f5fdda9dd8f181604051808273ffffffffffffffffffffffffffffffffffffffff1673ffffffffffffffffffffffffffffffffffffffff16815260200191505060405180910390a150565b6000809054906101000a900473ffffffffffffffffffffffffffffffffffffffff1673ffffffffffffffffffffffffffffffffffffffff163373ffffffffffffffffffffffffffffffffffffffff161415156106ee57600080fd5b60011515600260008373ffffffffffffffffffffffffffffffffffffffff1673ffffffffffffffffffffffffffffffffffffffff16815260200190815260200160002060009054906101000a900460ff1615151415151561074b57fe5b6001600260008373ffffffffffffffffffffffffffffffffffffffff1673ffffffffffffffffffffffffffffffffffffffff16815260200190815260200160002060006101000a81548160ff0219169083151502179055506001600081548092919060010191905055507fe366c1c0452ed8eec96861e9e54141ebff23c9ec89fe27b996b45f5ec388498781604051808273ffffffffffffffffffffffffffffffffffffffff1673ffffffffffffffffffffffffffffffffffffffff16815260200191505060405180910390a150565b6000809054906101000a900473ffffffffffffffffffffffffffffffffffffffff1681565b60008060028a8a8a8a604051808573ffffffffffffffffffffffffffffffffffffffff1673ffffffffffffffffffffffffffffffffffffffff166c010000000000000000000000000281526014018473ffffffffffffffffffffffffffffffffffffffff1673ffffffffffffffffffffffffffffffffffffffff166c010000000000000000000000000281526014018381526020018281526020019450505050506020604051808303816000865af115156108fa57600080fd5b50506040518051905091506000151560036000846000191660001916815260200190815260200160002060009054906101000a900460ff16151514151561093d57fe5b600160036000846000191660001916815260200190815260200160002060006101000a81548160ff02191690831515021790555043871115151561097d57fe5b6000855111151561098a57fe5b6000861115610dfa57878610151561099e57fe5b600060149054906101000a900460ff1660ff166109c2836001885103888888610f5b565b60ff16101515156109cf57fe5b6002828b8b8b8b8b6040518087600019166000191681526020018673ffffffffffffffffffffffffffffffffffffffff1673ffffffffffffffffffffffffffffffffffffffff166c010000000000000000000000000281526014018573ffffffffffffffffffffffffffffffffffffffff1673ffffffffffffffffffffffffffffffffffffffff166c0100000000000000000000000002815260140184815260200183815260200182815260200196505050505050506020604051808303816000865af11515610a9e57600080fd5b50506040518051905090508873ffffffffffffffffffffffffffffffffffffffff16600182876001895103815181101515610ad557fe5b906020019060200201518760018a5103815181101515610af157fe5b906020019060200201518760018b5103815181101515610b0d57fe5b90602001906020020151604051600081526020016040526040518085600019166000191681526020018460ff1660ff1681526020018360001916600019168152602001826000191660001916815260200194505050505060206040516020810390808403906000865af11515610b8257600080fd5b50506020604051035173ffffffffffffffffffffffffffffffffffffffff16141515610baa57fe5b60008a73ffffffffffffffffffffffffffffffffffffffff161415610c60578873ffffffffffffffffffffffffffffffffffffffff166108fc610bf6888b6112c790919063ffffffff16565b9081150290604051600060405180830381858888f193505050501515610c1b57600080fd5b3373ffffffffffffffffffffffffffffffffffffffff166108fc879081150290604051600060405180830381858888f193505050501515610c5b57600080fd5b610df5565b8973ffffffffffffffffffffffffffffffffffffffff1663a9059cbb8a610c90898c6112c790919063ffffffff16565b6040518363ffffffff167c0100000000000000000000000000000000000000000000000000000000028152600401808373ffffffffffffffffffffffffffffffffffffffff1673ffffffffffffffffffffffffffffffffffffffff16815260200182815260200192505050602060405180830381600087803b1515610d1457600080fd5b5af11515610d2157600080fd5b505050604051805190501515610d3357fe5b8973ffffffffffffffffffffffffffffffffffffffff1663a9059cbb33886040518363ffffffff167c0100000000000000000000000000000000000000000000000000000000028152600401808373ffffffffffffffffffffffffffffffffffffffff1673ffffffffffffffffffffffffffffffffffffffff16815260200182815260200192505050602060405180830381600087803b1515610dd557600080fd5b5af11515610de257600080fd5b505050604051805190501515610df457fe5b5b610f4f565b600060149054906101000a900460ff1660ff16610e1b838751888888610f5b565b60ff1610151515610e2857fe5b60008a73ffffffffffffffffffffffffffffffffffffffff161415610e8c578873ffffffffffffffffffffffffffffffffffffffff166108fc899081150290604051600060405180830381858888f193505050501515610e8757600080fd5b610f4e565b8973ffffffffffffffffffffffffffffffffffffffff1663a9059cbb8a8a6040518363ffffffff167c0100000000000000000000000000000000000000000000000000000000028152600401808373ffffffffffffffffffffffffffffffffffffffff1673ffffffffffffffffffffffffffffffffffffffff16815260200182815260200192505050602060405180830381600087803b1515610f2e57600080fd5b5af11515610f3b57600080fd5b505050604051805190501515610f4d57fe5b5b5b50505050505050505050565b60008060008060009250600091505b87821015611059576001898884815181101515610f8357fe5b906020019060200201518885815181101515610f9b57fe5b906020019060200201518886815181101515610fb357fe5b90602001906020020151604051600081526020016040526040518085600019166000191681526020018460ff1660ff1681526020018360001916600019168152602001826000191660001916815260200194505050505060206040516020810390808403906000865af1151561102857600080fd5b505060206040510351905061103c8161126a565b151561104457fe5b82806001019350508180600101925050610f6a565b82935050505095945050505050565b6000809054906101000a900473ffffffffffffffffffffffffffffffffffffffff1673ffffffffffffffffffffffffffffffffffffffff163373ffffffffffffffffffffffffffffffffffffffff161415156110c357600080fd5b8060ff16600154101515156110d757600080fd5b80600060146101000a81548160ff021916908360ff16021790555050565b6000809054906101000a900473ffffffffffffffffffffffffffffffffffffffff1673ffffffffffffffffffffffffffffffffffffffff163373ffffffffffffffffffffffffffffffffffffffff1614151561115057600080fd5b600073ffffffffffffffffffffffffffffffffffffffff168173ffffffffffffffffffffffffffffffffffffffff161415151561118c57600080fd5b8073ffffffffffffffffffffffffffffffffffffffff166000809054906101000a900473ffffffffffffffffffffffffffffffffffffffff1673ffffffffffffffffffffffffffffffffffffffff167f8be0079c531659141344cd1fd0a4f28419497f9722a3daafe3b4186f6b6457e060405160405180910390a3806000806101000a81548173ffffffffffffffffffffffffffffffffffffffff021916908373ffffffffffffffffffffffffffffffffffffffff16021790555050565b60026020528060005260406000206000915054906101000a900460ff1681565b600060011515600260008473ffffffffffffffffffffffffffffffffffffffff1673ffffffffffffffffffffffffffffffffffffffff16815260200190815260200160002060009054906101000a900460ff161515149050919050565b60008282111515156112d557fe5b8183039050929150505600a165627a7a723058206785262e12a3d2441b1f4d9b9c74b77c4acbc3fc04b081dfc4f1d6d6d1924be00029",
  "source": "pragma solidity ^0.4.18;\n\nimport 'openzeppelin-solidity/contracts/token/ERC20/ERC20Basic.sol';\nimport 'openzeppelin-solidity/contracts/ownership/Ownable.sol';\nimport 'openzeppelin-solidity/contracts/math/SafeMath.sol';\n\nimport './Validatable.sol';\n\ncontract HomeERC20Bridge is Validatable {\n\tusing SafeMath for uint256;\n\n\tmapping(bytes32=>bool) usedHashes;\n\t\n\tevent BridgeETH(address from, uint256 value);\n\n\tfunction HomeERC20Bridge(uint8 _requiredValidators,address[] _initialValidators) Validatable(_requiredValidators,_initialValidators) public {\n\n\t}\n\n\t// ETH deposit\n\tfunction() public payable {\n\t\tBridgeETH(msg.sender,msg.value);\n\t}\n\n\tevent EmitHash(bytes32 _hash);\n\n\tfunction checkValidations(\n\t\tbytes32 _hash,\n\t\tuint256 _length,\n\t\tuint8[] _v,\n\t\tbytes32[] _r,\n\t\tbytes32[] _s) public view returns(uint8){\n\t\tuint8 approvals = 0;\n        for (uint i = 0; i < _length ; i++) {\n        \taddress validator = ecrecover(_hash, _v[i], _r[i], _s[i]);\n        \tassert(isValidator(validator));\n        \tapprovals++;\n        }\n        return approvals;\n\t}\n\n\tfunction withdraw(\n\t\taddress _token,\n\t\taddress _recipient,\n\t\tuint256 _amount,\n\t\tuint256 _withdrawblock,\n\t\tuint256 _reward,\n\t\tuint8[] _v,\n\t\tbytes32[] _r,\n\t\tbytes32[] _s) public{\n\n\t\tbytes32 hash = sha256(_token,_recipient,_amount,_withdrawblock);\n\n\t\t// the hash should not have been used before\n\t\tassert(usedHashes[hash] == false);\n\n\t\t// mark hash as used\n\t\tusedHashes[hash] = true;\n\n\t\t// the time-lock should have passed\n        assert(_withdrawblock <= block.number);\t\t\n\n\t\t// verify the provided signatures\n\t\tassert(_v.length > 0);\n\n        if (_reward > 0) {\n\t        assert(_reward < _amount);\n\t\t\t// verify if the threshold of required signatures is met\n    \t    assert(checkValidations(hash,_v.length-1,_v,_r,_s) >= requiredValidators);\n\t\t    // check if the reward has been signed off by the receiver ( last signature ) ...\n    \t\tbytes32 rewardHash = sha256(hash,_token,_recipient,_amount,_withdrawblock,_reward);\n    \t\tassert(ecrecover(rewardHash, _v[_v.length-1], _r[_v.length-1], _s[_v.length-1]) == _recipient);\n\t\t\t// all OK. mark hash as used & Transfer tokens + reward\n\t\t\tif (_token == 0x0){\n\t\t\t\t// ETH transfer\n\t\t\t\t_recipient.transfer(_amount.sub(_reward));\n\t\t\t\tmsg.sender.transfer(_reward);\n\t\t\t}else{\n\t\t\t\t// ERC-20 transfer\n\t\t\t\tassert(ERC20Basic(_token).transfer(_recipient,_amount.sub(_reward)));\n\t\t\t\tassert(ERC20Basic(_token).transfer(msg.sender,_reward));\n\t\t\t}\t\t\n        }else{\n\t\t\t// verify if the threshold of required signatures is met\n    \t    assert(checkValidations(hash,_v.length,_v,_r,_s) >= requiredValidators);\n\t\t\tif (_token == 0x0){\n\t\t\t\t// ETH transfer\n\t\t\t\t_recipient.transfer(_amount);\n\t\t\t}else{\n\t\t\t\t// ERC-20 transfer\n\t\t\t\tassert(ERC20Basic(_token).transfer(_recipient,_amount));\n\t\t\t}\n        }\n\t}\t\n\n\n}\n\n",
  "sourcePath": "/Users/sponnet/Documents/projects/dbdao/erc20-bridge/contracts/HomeERC20Bridge.sol",
  "compiler": {
    "name": "solc",
    "version": "0.4.21+commit.dfe3193c.Emscripten.clang"
  },
  "schemaVersion": "2.0.0",
  "updatedAt": "2018-05-29T12:21:14.165Z"
}