{
  "contractName": "ReferenceToken",
  "abi": [
    {
      "constant": true,
      "inputs": [],
      "name": "owner",
      "outputs": [
        {
          "name": "",
          "type": "address"
        }
      ],
      "payable": false,
      "stateMutability": "view",
      "type": "function"
    },
    {
      "constant": false,
      "inputs": [
        {
          "name": "newOwner",
          "type": "address"
        }
      ],
      "name": "transferOwnership",
      "outputs": [],
      "payable": false,
      "stateMutability": "nonpayable",
      "type": "function"
    },
    {
      "inputs": [
        {
          "name": "_name",
          "type": "string"
        },
        {
          "name": "_symbol",
          "type": "string"
        },
        {
          "name": "_granularity",
          "type": "uint256"
        }
      ],
      "payable": false,
      "stateMutability": "nonpayable",
      "type": "constructor"
    },
    {
      "anonymous": false,
      "inputs": [
        {
          "indexed": true,
          "name": "operator",
          "type": "address"
        },
        {
          "indexed": true,
          "name": "from",
          "type": "address"
        },
        {
          "indexed": true,
          "name": "to",
          "type": "address"
        },
        {
          "indexed": false,
          "name": "amount",
          "type": "uint256"
        },
        {
          "indexed": false,
          "name": "userData",
          "type": "bytes"
        },
        {
          "indexed": false,
          "name": "operatorData",
          "type": "bytes"
        }
      ],
      "name": "Sent",
      "type": "event"
    },
    {
      "anonymous": false,
      "inputs": [
        {
          "indexed": true,
          "name": "operator",
          "type": "address"
        },
        {
          "indexed": true,
          "name": "to",
          "type": "address"
        },
        {
          "indexed": false,
          "name": "amount",
          "type": "uint256"
        },
        {
          "indexed": false,
          "name": "operatorData",
          "type": "bytes"
        }
      ],
      "name": "Minted",
      "type": "event"
    },
    {
      "anonymous": false,
      "inputs": [
        {
          "indexed": true,
          "name": "operator",
          "type": "address"
        },
        {
          "indexed": true,
          "name": "from",
          "type": "address"
        },
        {
          "indexed": false,
          "name": "amount",
          "type": "uint256"
        },
        {
          "indexed": false,
          "name": "userData",
          "type": "bytes"
        },
        {
          "indexed": false,
          "name": "operatorData",
          "type": "bytes"
        }
      ],
      "name": "Burned",
      "type": "event"
    },
    {
      "anonymous": false,
      "inputs": [
        {
          "indexed": true,
          "name": "operator",
          "type": "address"
        },
        {
          "indexed": true,
          "name": "tokenHolder",
          "type": "address"
        }
      ],
      "name": "AuthorizedOperator",
      "type": "event"
    },
    {
      "anonymous": false,
      "inputs": [
        {
          "indexed": true,
          "name": "operator",
          "type": "address"
        },
        {
          "indexed": true,
          "name": "tokenHolder",
          "type": "address"
        }
      ],
      "name": "RevokedOperator",
      "type": "event"
    },
    {
      "anonymous": false,
      "inputs": [
        {
          "indexed": true,
          "name": "from",
          "type": "address"
        },
        {
          "indexed": true,
          "name": "to",
          "type": "address"
        },
        {
          "indexed": false,
          "name": "amount",
          "type": "uint256"
        }
      ],
      "name": "Transfer",
      "type": "event"
    },
    {
      "anonymous": false,
      "inputs": [
        {
          "indexed": true,
          "name": "owner",
          "type": "address"
        },
        {
          "indexed": true,
          "name": "spender",
          "type": "address"
        },
        {
          "indexed": false,
          "name": "amount",
          "type": "uint256"
        }
      ],
      "name": "Approval",
      "type": "event"
    },
    {
      "anonymous": false,
      "inputs": [
        {
          "indexed": true,
          "name": "previousOwner",
          "type": "address"
        },
        {
          "indexed": true,
          "name": "newOwner",
          "type": "address"
        }
      ],
      "name": "OwnershipTransferred",
      "type": "event"
    },
    {
      "constant": true,
      "inputs": [],
      "name": "name",
      "outputs": [
        {
          "name": "",
          "type": "string"
        }
      ],
      "payable": false,
      "stateMutability": "view",
      "type": "function"
    },
    {
      "constant": true,
      "inputs": [],
      "name": "symbol",
      "outputs": [
        {
          "name": "",
          "type": "string"
        }
      ],
      "payable": false,
      "stateMutability": "view",
      "type": "function"
    },
    {
      "constant": true,
      "inputs": [],
      "name": "granularity",
      "outputs": [
        {
          "name": "",
          "type": "uint256"
        }
      ],
      "payable": false,
      "stateMutability": "view",
      "type": "function"
    },
    {
      "constant": true,
      "inputs": [],
      "name": "totalSupply",
      "outputs": [
        {
          "name": "",
          "type": "uint256"
        }
      ],
      "payable": false,
      "stateMutability": "view",
      "type": "function"
    },
    {
      "constant": true,
      "inputs": [
        {
          "name": "_tokenHolder",
          "type": "address"
        }
      ],
      "name": "balanceOf",
      "outputs": [
        {
          "name": "",
          "type": "uint256"
        }
      ],
      "payable": false,
      "stateMutability": "view",
      "type": "function"
    },
    {
      "constant": false,
      "inputs": [
        {
          "name": "_to",
          "type": "address"
        },
        {
          "name": "_amount",
          "type": "uint256"
        }
      ],
      "name": "send",
      "outputs": [],
      "payable": false,
      "stateMutability": "nonpayable",
      "type": "function"
    },
    {
      "constant": false,
      "inputs": [
        {
          "name": "_to",
          "type": "address"
        },
        {
          "name": "_amount",
          "type": "uint256"
        },
        {
          "name": "_userData",
          "type": "bytes"
        }
      ],
      "name": "send",
      "outputs": [],
      "payable": false,
      "stateMutability": "nonpayable",
      "type": "function"
    },
    {
      "constant": false,
      "inputs": [
        {
          "name": "_operator",
          "type": "address"
        }
      ],
      "name": "authorizeOperator",
      "outputs": [],
      "payable": false,
      "stateMutability": "nonpayable",
      "type": "function"
    },
    {
      "constant": false,
      "inputs": [
        {
          "name": "_operator",
          "type": "address"
        }
      ],
      "name": "revokeOperator",
      "outputs": [],
      "payable": false,
      "stateMutability": "nonpayable",
      "type": "function"
    },
    {
      "constant": true,
      "inputs": [
        {
          "name": "_operator",
          "type": "address"
        },
        {
          "name": "_tokenHolder",
          "type": "address"
        }
      ],
      "name": "isOperatorFor",
      "outputs": [
        {
          "name": "",
          "type": "bool"
        }
      ],
      "payable": false,
      "stateMutability": "view",
      "type": "function"
    },
    {
      "constant": false,
      "inputs": [
        {
          "name": "_from",
          "type": "address"
        },
        {
          "name": "_to",
          "type": "address"
        },
        {
          "name": "_amount",
          "type": "uint256"
        },
        {
          "name": "_userData",
          "type": "bytes"
        },
        {
          "name": "_operatorData",
          "type": "bytes"
        }
      ],
      "name": "operatorSend",
      "outputs": [],
      "payable": false,
      "stateMutability": "nonpayable",
      "type": "function"
    },
    {
      "constant": false,
      "inputs": [
        {
          "name": "_tokenHolder",
          "type": "address"
        },
        {
          "name": "_amount",
          "type": "uint256"
        },
        {
          "name": "_operatorData",
          "type": "bytes"
        }
      ],
      "name": "mint",
      "outputs": [],
      "payable": false,
      "stateMutability": "nonpayable",
      "type": "function"
    },
    {
      "constant": false,
      "inputs": [
        {
          "name": "_tokenHolder",
          "type": "address"
        },
        {
          "name": "_amount",
          "type": "uint256"
        },
        {
          "name": "_userData",
          "type": "bytes"
        },
        {
          "name": "_operatorData",
          "type": "bytes"
        }
      ],
      "name": "burn",
      "outputs": [],
      "payable": false,
      "stateMutability": "nonpayable",
      "type": "function"
    },
    {
      "constant": false,
      "inputs": [],
      "name": "disableERC20",
      "outputs": [],
      "payable": false,
      "stateMutability": "nonpayable",
      "type": "function"
    },
    {
      "constant": false,
      "inputs": [],
      "name": "enableERC20",
      "outputs": [],
      "payable": false,
      "stateMutability": "nonpayable",
      "type": "function"
    },
    {
      "constant": true,
      "inputs": [],
      "name": "decimals",
      "outputs": [
        {
          "name": "",
          "type": "uint8"
        }
      ],
      "payable": false,
      "stateMutability": "view",
      "type": "function"
    },
    {
      "constant": false,
      "inputs": [
        {
          "name": "_to",
          "type": "address"
        },
        {
          "name": "_amount",
          "type": "uint256"
        }
      ],
      "name": "transfer",
      "outputs": [
        {
          "name": "success",
          "type": "bool"
        }
      ],
      "payable": false,
      "stateMutability": "nonpayable",
      "type": "function"
    },
    {
      "constant": false,
      "inputs": [
        {
          "name": "_from",
          "type": "address"
        },
        {
          "name": "_to",
          "type": "address"
        },
        {
          "name": "_amount",
          "type": "uint256"
        }
      ],
      "name": "transferFrom",
      "outputs": [
        {
          "name": "success",
          "type": "bool"
        }
      ],
      "payable": false,
      "stateMutability": "nonpayable",
      "type": "function"
    },
    {
      "constant": false,
      "inputs": [
        {
          "name": "_spender",
          "type": "address"
        },
        {
          "name": "_amount",
          "type": "uint256"
        }
      ],
      "name": "approve",
      "outputs": [
        {
          "name": "success",
          "type": "bool"
        }
      ],
      "payable": false,
      "stateMutability": "nonpayable",
      "type": "function"
    },
    {
      "constant": true,
      "inputs": [
        {
          "name": "_owner",
          "type": "address"
        },
        {
          "name": "_spender",
          "type": "address"
        }
      ],
      "name": "allowance",
      "outputs": [
        {
          "name": "remaining",
          "type": "uint256"
        }
      ],
      "payable": false,
      "stateMutability": "view",
      "type": "function"
    }
  ],
  "bytecode": "0x606060405260018054600160a060020a03191673991a1bcb077599290d7305493c9a630c20f8b79817905534156200003657600080fd5b60405162001bd638038062001bd68339810160405280805182019190602001805182019190602001805160008054600160a060020a03191633600160a060020a0316179055915060029050838051620000949291602001906200026b565b506003828051620000aa9291602001906200026b565b5060006005556006805460ff19166001908117909155811015620000cd57600080fd5b60048190556200011f60408051908101604052600a81527f4552433230546f6b656e00000000000000000000000000000000000000000000602082015230640100000000620010336200017582021704565b6200016c60408051908101604052600b81527f455243373737546f6b656e000000000000000000000000000000000000000000602082015230640100000000620010336200017582021704565b50505062000310565b6000826040518082805190602001908083835b60208310620001a95780518252601f19909201916020918201910162000188565b6001836020036101000a0380198251168184511617909252505050919091019250604091505051908190039020600154909150600160a060020a03166329965a1d3083856040517c010000000000000000000000000000000000000000000000000000000063ffffffff8616028152600160a060020a03938416600482015260248101929092529091166044820152606401600060405180830381600087803b15156200025557600080fd5b5af115156200026357600080fd5b505050505050565b828054600181600116156101000203166002900490600052602060002090601f016020900481019282601f10620002ae57805160ff1916838001178555620002de565b82800160010185558215620002de579182015b82811115620002de578251825591602001919060010190620002c1565b50620002ec929150620002f0565b5090565b6200030d91905b80821115620002ec5760008155600101620002f7565b90565b6118b680620003206000396000f30060606040526004361061010e5763ffffffff60e060020a60003504166306fdde038114610113578063070c87f91461019d578063095ea7b3146101b257806318160ddd146101e8578063190a6aa91461020d57806323b872dd146102b4578063313ce567146102dc578063556f0dc71461030557806362ad1b831461031857806370a08231146103c65780638da5cb5b146103e557806394d008ef14610414578063959b8c3f1461047957806395d89b41146104985780639bd9bbc6146104ab578063a9059cbb14610510578063d0679d3414610532578063d95b637114610554578063dd62ed3e14610579578063f2fde38b1461059e578063f922f216146105bd578063fad8b32a146105d0575b600080fd5b341561011e57600080fd5b6101266105ef565b60405160208082528190810183818151815260200191508051906020019080838360005b8381101561016257808201518382015260200161014a565b50505050905090810190601f16801561018f5780820380516001836020036101000a031916815260200191505b509250505060405180910390f35b34156101a857600080fd5b6101b0610697565b005b34156101bd57600080fd5b6101d4600160a060020a03600435166024356106fe565b604051901515815260200160405180910390f35b34156101f357600080fd5b6101fb61077c565b60405190815260200160405180910390f35b341561021857600080fd5b6101b060048035600160a060020a03169060248035919060649060443590810190830135806020601f8201819004810201604051908101604052818152929190602084018383808284378201915050505050509190803590602001908201803590602001908080601f01602080910402602001604051908101604052818152929190602084018383808284375094965061078295505050505050565b34156102bf57600080fd5b6101d4600160a060020a036004358116906024351660443561098c565b34156102e757600080fd5b6102ef610a6e565b60405160ff909116815260200160405180910390f35b341561031057600080fd5b6101fb610a88565b341561032357600080fd5b6101b0600160a060020a036004803582169160248035909116916044359160849060643590810190830135806020601f8201819004810201604051908101604052818152929190602084018383808284378201915050505050509190803590602001908201803590602001908080601f016020809104026020016040519081016040528181529291906020840183838082843750949650610a8e95505050505050565b34156103d157600080fd5b6101fb600160a060020a0360043516610aba565b34156103f057600080fd5b6103f8610ad5565b604051600160a060020a03909116815260200160405180910390f35b341561041f57600080fd5b6101b060048035600160a060020a03169060248035919060649060443590810190830135806020601f82018190048102016040519081016040528181529291906020840183838082843750949650610ae495505050505050565b341561048457600080fd5b6101b0600160a060020a0360043516610c93565b34156104a357600080fd5b610126610d18565b34156104b657600080fd5b6101b060048035600160a060020a03169060248035919060649060443590810190830135806020601f82018190048102016040519081016040528181529291906020840183838082843750949650610d8b95505050505050565b341561051b57600080fd5b6101d4600160a060020a0360043516602435610da9565b341561053d57600080fd5b6101b0600160a060020a0360043516602435610df3565b341561055f57600080fd5b6101d4600160a060020a0360043581169060243516610e25565b341561058457600080fd5b6101fb600160a060020a0360043581169060243516610e73565b34156105a957600080fd5b6101b0600160a060020a0360043516610eb3565b34156105c857600080fd5b6101b0610f4e565b34156105db57600080fd5b6101b0600160a060020a0360043516610fb1565b6105f7611878565b60028054600181600116156101000203166002900480601f01602080910402602001604051908101604052809291908181526020018280546001816001161561010002031660029004801561068d5780601f106106625761010080835404028352916020019161068d565b820191906000526020600020905b81548152906001019060200180831161067057829003601f168201915b5050505050905090565b60005433600160a060020a039081169116146106b257600080fd5b6006805460ff191660011790556106fc60408051908101604052600a81527f4552433230546f6b656e00000000000000000000000000000000000000000000602082015230611033565b565b60065460009060ff16151561071257600080fd5b600160a060020a03338116600081815260096020908152604080832094881680845294909152908190208590557f8c5be1e5ebec7d5bd14f71427d1e84f3dd0314c0f7b2291e5b200ac8c7c3b9259085905190815260200160405180910390a35060015b92915050565b60055490565b60005433600160a060020a0390811691161461079d57600080fd5b6107a68361110c565b6107b53385600086868661113e565b826107bf85610aba565b10156107ca57600080fd5b600160a060020a0384166000908152600760205260409020546107f3908463ffffffff6112ef16565b600160a060020a03851660009081526007602052604090205560055461081f908463ffffffff6112ef16565b600555600160a060020a038085169033167fa78a9be3a7b862d26933ad85fb11d80ef66b8f972d7cbba06621d583943a4098858585604051808481526020018060200180602001838103835285818151815260200191508051906020019080838360005b8381101561089b578082015183820152602001610883565b50505050905090810190601f1680156108c85780820380516001836020036101000a031916815260200191505b50838103825284818151815260200191508051906020019080838360005b838110156108fe5780820151838201526020016108e6565b50505050905090810190601f16801561092b5780820380516001836020036101000a031916815260200191505b509550505050505060405180910390a360065460ff161561098657600084600160a060020a03167fddf252ad1be2c89b69c2b068fc378daa952ba7f163c4a11628f55a4df523b3ef8560405190815260200160405180910390a35b50505050565b60065460009060ff1615156109a057600080fd5b600160a060020a03808516600090815260096020908152604080832033909416835292905220548211156109d357600080fd5b600160a060020a0380851660009081526009602090815260408083203390941683529290522054610a0a908363ffffffff6112ef16565b600160a060020a0380861660009081526009602090815260408083203390941683529281529082902092909255610a6491869186918691519081016040528060008152503360206040519081016040526000808252611301565b5060019392505050565b60065460009060ff161515610a8257600080fd5b50601290565b60045490565b610a983386610e25565b1515610aa357600080fd5b610ab38585858533866001611301565b5050505050565b600160a060020a031660009081526007602052604090205490565b600054600160a060020a031681565b60005433600160a060020a03908116911614610aff57600080fd5b610b088261110c565b600554610b1b908363ffffffff61155d16565b600555600160a060020a038316600090815260076020526040902054610b47908363ffffffff61155d16565b6007600085600160a060020a0316600160a060020a0316815260200190815260200160002081905550610b8f336000858560206040519081016040526000815286600161156a565b82600160a060020a031633600160a060020a03167fbcd28e05e57d4bcd5bfcc92a4661d412893e6112c44a2e25d96cfdfc30d5f22e848460405182815260406020820181815290820183818151815260200191508051906020019080838360005b83811015610c08578082015183820152602001610bf0565b50505050905090810190601f168015610c355780820380516001836020036101000a031916815260200191505b50935050505060405180910390a360065460ff1615610c8e5782600160a060020a031660007fddf252ad1be2c89b69c2b068fc378daa952ba7f163c4a11628f55a4df523b3ef8460405190815260200160405180910390a35b505050565b33600160a060020a031681600160a060020a031614151515610cb457600080fd5b600160a060020a038082166000818152600860209081526040808320339095168084529490915290819020805460ff191660011790557ff4caeb2d6ca8932a215a353d0703c326ec2d81fc68170f320eb2ab49e9df61f9905160405180910390a350565b610d20611878565b60038054600181600116156101000203166002900480601f01602080910402602001604051908101604052809291908181526020018280546001816001161561010002031660029004801561068d5780601f106106625761010080835404028352916020019161068d565b610c8e33848484336020604051908101604052600081526001611301565b60065460009060ff161515610dbd57600080fd5b610dea33848460206040519081016040528060008152503360206040519081016040526000808252611301565b50600192915050565b610e213383836020604051908101604052806000815250336020604051908101604052600081526001611301565b5050565b600081600160a060020a031683600160a060020a03161480610e6c5750600160a060020a0380841660009081526008602090815260408083209386168352929052205460ff165b9392505050565b60065460009060ff161515610e8757600080fd5b50600160a060020a03918216600090815260096020908152604080832093909416825291909152205490565b60005433600160a060020a03908116911614610ece57600080fd5b600160a060020a0381161515610ee357600080fd5b600054600160a060020a0380831691167f8be0079c531659141344cd1fd0a4f28419497f9722a3daafe3b4186f6b6457e060405160405180910390a36000805473ffffffffffffffffffffffffffffffffffffffff1916600160a060020a0392909216919091179055565b60005433600160a060020a03908116911614610f6957600080fd5b6006805460ff191690556106fc60408051908101604052600a81527f4552433230546f6b656e0000000000000000000000000000000000000000000060208201526000611033565b33600160a060020a031681600160a060020a031614151515610fd257600080fd5b600160a060020a038082166000818152600860209081526040808320339095168084529490915290819020805460ff191690557f50546e66e5f44d728365dc3908c63bc5cfeeab470722c1677e3073a6ac294aa1905160405180910390a350565b6000826040518082805190602001908083835b602083106110655780518252601f199092019160209182019101611046565b6001836020036101000a0380198251168184511617909252505050919091019250604091505051908190039020600154909150600160a060020a03166329965a1d30838560405160e060020a63ffffffff8616028152600160a060020a03938416600482015260248101929092529091166044820152606401600060405180830381600087803b15156110f757600080fd5b5af1151561110457600080fd5b505050505050565b600454819061113190611125838263ffffffff61173916565b9063ffffffff61174e16565b1461113b57600080fd5b50565b600061117d8660408051908101604052601281527f455243373737546f6b656e7353656e64657200000000000000000000000000006020820152611777565b9050600160a060020a038116156112e65780600160a060020a03166375ab978288888888888860405160e060020a63ffffffff8916028152600160a060020a0380881660048301908152878216602484015290861660448301526064820185905260c060848301908152909160a481019060c40185818151815260200191508051906020019080838360005b83811015611221578082015183820152602001611209565b50505050905090810190601f16801561124e5780820380516001836020036101000a031916815260200191505b50838103825284818151815260200191508051906020019080838360005b8381101561128457808201518382015260200161126c565b50505050905090810190601f1680156112b15780820380516001836020036101000a031916815260200191505b5098505050505050505050600060405180830381600087803b15156112d557600080fd5b5af115156112e257600080fd5b5050505b50505050505050565b6000828211156112fb57fe5b50900390565b61130a8561110c565b61131883888888888761113e565b600160a060020a038616151561132d57600080fd5b600160a060020a0387166000908152600760205260409020548590101561135357600080fd5b600160a060020a03871660009081526007602052604090205461137c908663ffffffff6112ef16565b600160a060020a0380891660009081526007602052604080822093909355908816815220546113b1908663ffffffff61155d16565b600160a060020a0387166000908152600760205260409020556113d98388888888878761156a565b85600160a060020a031687600160a060020a031684600160a060020a03167f06b541ddaa720db2b10a4d0cdac39b8d360425fc073085fac19bc82614677987888887604051808481526020018060200180602001838103835285818151815260200191508051906020019080838360005b8381101561146257808201518382015260200161144a565b50505050905090810190601f16801561148f5780820380516001836020036101000a031916815260200191505b50838103825284818151815260200191508051906020019080838360005b838110156114c55780820151838201526020016114ad565b50505050905090810190601f1680156114f25780820380516001836020036101000a031916815260200191505b509550505050505060405180910390a460065460ff16156112e65785600160a060020a031687600160a060020a03167fddf252ad1be2c89b69c2b068fc378daa952ba7f163c4a11628f55a4df523b3ef8760405190815260200160405180910390a350505050505050565b8181018281101561077657fe5b60006115a98660408051908101604052601581527f455243373737546f6b656e73526563697069656e7400000000000000000000006020820152611777565b9050600160a060020a038116156117155780600160a060020a03166223de2989898989898960405160e060020a63ffffffff8916028152600160a060020a0380881660048301908152878216602484015290861660448301526064820185905260c060848301908152909160a481019060c40185818151815260200191508051906020019080838360005b8381101561164c578082015183820152602001611634565b50505050905090810190601f1680156116795780820380516001836020036101000a031916815260200191505b50838103825284818151815260200191508051906020019080838360005b838110156116af578082015183820152602001611697565b50505050905090810190601f1680156116dc5780820380516001836020036101000a031916815260200191505b5098505050505050505050600060405180830381600087803b151561170057600080fd5b5af1151561170d57600080fd5b50505061172f565b811561172f576117248661184e565b151561172f57600080fd5b5050505050505050565b6000818381151561174657fe5b049392505050565b600082151561175f57506000610776565b5081810281838281151561176f57fe5b041461077657fe5b600080826040518082805190602001908083835b602083106117aa5780518252601f19909201916020918201910161178b565b6001836020036101000a0380198251168184511617909252505050919091019250604091505051908190039020600154909150600160a060020a031663aabbb8ca858360405160e060020a63ffffffff8516028152600160a060020a0390921660048301526024820152604401602060405180830381600087803b151561183057600080fd5b5af1151561183d57600080fd5b505050604051805195945050505050565b600080600160a060020a038316151561186a5760009150611872565b5050803b8015905b50919050565b602060405190810160405260008152905600a165627a7a723058200da5b5c6025d133b78e9171aee31b4cebb8270d096950b54c06893eec989c5350029",
  "source": "/* This Source Code Form is subject to the terms of the Mozilla Public\n * License, v. 2.0. If a copy of the MPL was not distributed with this\n * file, You can obtain one at http://mozilla.org/MPL/2.0/. */\npragma solidity 0.4.21;\n\n/// @title ERC777 ReferenceToken Contract\n/// @author Jordi Baylina, Jacques Dafflon\n/// @dev This token contract's goal is to give an example implementation\n///  of ERC777 with ERC20 compatible.\n///  This contract does not define any standard, but can be taken as a reference\n///  implementation in case of any ambiguity into the standard\n\nimport \"eip820/contracts/ERC820Implementer.sol\";\nimport \"openzeppelin-solidity/contracts/ownership/Ownable.sol\";\nimport \"openzeppelin-solidity/contracts/math/SafeMath.sol\";\nimport \"../ERC20Token.sol\";\nimport \"../ERC777Token.sol\";\nimport \"../ERC777TokensSender.sol\";\nimport \"../ERC777TokensRecipient.sol\";\n\n\ncontract ReferenceToken is Ownable, ERC20Token, ERC777Token, ERC820Implementer {\n    using SafeMath for uint256;\n\n    string private mName;\n    string private mSymbol;\n    uint256 private mGranularity;\n    uint256 private mTotalSupply;\n\n    bool private mErc20compatible;\n\n    mapping(address => uint) private mBalances;\n    mapping(address => mapping(address => bool)) private mAuthorized;\n    mapping(address => mapping(address => uint256)) private mAllowed;\n\n    /* -- Constructor -- */\n    //\n    /// @notice Constructor to create a ReferenceToken\n    /// @param _name Name of the new token\n    /// @param _symbol Symbol of the new token.\n    /// @param _granularity Minimum transferable chunk.\n    function ReferenceToken(\n        string _name,\n        string _symbol,\n        uint256 _granularity\n    )\n        public\n    {\n        mName = _name;\n        mSymbol = _symbol;\n        mTotalSupply = 0;\n        mErc20compatible = true;\n        require(_granularity >= 1);\n        mGranularity = _granularity;\n\n        setInterfaceImplementation(\"ERC20Token\", this);\n        setInterfaceImplementation(\"ERC777Token\", this);\n    }\n\n    /* -- ERC777 Interface Implementation -- */\n    //\n    /// @return the name of the token\n    function name() public constant returns (string) { return mName; }\n\n    /// @return the symbol of the token\n    function symbol() public constant returns (string) { return mSymbol; }\n\n    /// @return the granularity of the token\n    function granularity() public constant returns (uint256) { return mGranularity; }\n\n    /// @return the total supply of the token\n    function totalSupply() public constant returns (uint256) { return mTotalSupply; }\n\n    /// @notice Return the account balance of some account\n    /// @param _tokenHolder Address for which the balance is returned\n    /// @return the balance of `_tokenAddress`.\n    function balanceOf(address _tokenHolder) public constant returns (uint256) { return mBalances[_tokenHolder]; }\n\n    /// @notice Send `_amount` of tokens to address `_to`\n    /// @param _to The address of the recipient\n    /// @param _amount The number of tokens to be sent\n    function send(address _to, uint256 _amount) public {\n        doSend(msg.sender, _to, _amount, \"\", msg.sender, \"\", true);\n    }\n\n    /// @notice Send `_amount` of tokens to address `_to` passing `_userData` to the recipient\n    /// @param _to The address of the recipient\n    /// @param _amount The number of tokens to be sent\n    function send(address _to, uint256 _amount, bytes _userData) public {\n        doSend(msg.sender, _to, _amount, _userData, msg.sender, \"\", true);\n    }\n\n    /// @notice Authorize a third party `_operator` to manage (send) `msg.sender`'s tokens.\n    /// @param _operator The operator that wants to be Authorized\n    function authorizeOperator(address _operator) public {\n        require(_operator != msg.sender);\n        mAuthorized[_operator][msg.sender] = true;\n        AuthorizedOperator(_operator, msg.sender);\n    }\n\n    /// @notice Revoke a third party `_operator`'s rights to manage (send) `msg.sender`'s tokens.\n    /// @param _operator The operator that wants to be Revoked\n    function revokeOperator(address _operator) public {\n        require(_operator != msg.sender);\n        mAuthorized[_operator][msg.sender] = false;\n        RevokedOperator(_operator, msg.sender);\n    }\n\n    /// @notice Check whether the `_operator` address is allowed to manage the tokens held by `_tokenHolder` address.\n    /// @param _operator address to check if it has the right to manage the tokens\n    /// @param _tokenHolder address which holds the tokens to be managed\n    /// @return `true` if `_operator` is authorized for `_tokenHolder`\n    function isOperatorFor(address _operator, address _tokenHolder) public constant returns (bool) {\n        return _operator == _tokenHolder || mAuthorized[_operator][_tokenHolder];\n    }\n\n    /// @notice Send `_amount` of tokens on behalf of the address `from` to the address `to`.\n    /// @param _from The address holding the tokens being sent\n    /// @param _to The address of the recipient\n    /// @param _amount The number of tokens to be sent\n    /// @param _userData Data generated by the user to be sent to the recipient\n    /// @param _operatorData Data generated by the operator to be sent to the recipient\n    function operatorSend(address _from, address _to, uint256 _amount, bytes _userData, bytes _operatorData) public {\n        require(isOperatorFor(msg.sender, _from));\n        doSend(_from, _to, _amount, _userData, msg.sender, _operatorData, true);\n    }\n\n    /* -- Mint And Burn Functions (not part of the ERC777 standard, only the Events/tokensReceived are) -- */\n    //\n    /// @notice Generates `_amount` tokens to be assigned to `_tokenHolder`\n    ///  Sample mint function to showcase the use of the `Minted` event and the logic to notify the recipient.\n    /// @param _tokenHolder The address that will be assigned the new tokens\n    /// @param _amount The quantity of tokens generated\n    /// @param _operatorData Data that will be passed to the recipient as a first transfer\n    function mint(address _tokenHolder, uint256 _amount, bytes _operatorData) public onlyOwner {\n        requireMultiple(_amount);\n        mTotalSupply = mTotalSupply.add(_amount);\n        mBalances[_tokenHolder] = mBalances[_tokenHolder].add(_amount);\n\n        callRecipient(msg.sender, 0x0, _tokenHolder, _amount, \"\", _operatorData, true);\n\n        Minted(msg.sender, _tokenHolder, _amount, _operatorData);\n        if (mErc20compatible) { Transfer(0x0, _tokenHolder, _amount); }\n    }\n\n    /// @notice Burns `_amount` tokens from `_tokenHolder`\n    ///  Sample burn function to showcase the use of the `Burned` event.\n    /// @param _tokenHolder The address that will lose the tokens\n    /// @param _amount The quantity of tokens to burn\n    function burn(address _tokenHolder, uint256 _amount, bytes _userData, bytes _operatorData) public onlyOwner {\n        requireMultiple(_amount);\n\n        callSender(msg.sender, _tokenHolder, 0x0, _amount, _userData, _operatorData);\n\n        require(balanceOf(_tokenHolder) >= _amount);\n\n        mBalances[_tokenHolder] = mBalances[_tokenHolder].sub(_amount);\n        mTotalSupply = mTotalSupply.sub(_amount);\n\n        Burned(msg.sender, _tokenHolder, _amount, _userData, _operatorData);\n        if (mErc20compatible) { Transfer(_tokenHolder, 0x0, _amount); }\n    }\n\n    /* -- ERC20 Compatible Methods -- */\n    //\n    /// @notice This modifier is applied to erc20 obsolete methods that are\n    ///  implemented only to maintain backwards compatibility. When the erc20\n    ///  compatibility is disabled, this methods will fail.\n    modifier erc20 () {\n        require(mErc20compatible);\n        _;\n    }\n\n    /// @notice Disables the ERC20 interface. This function can only be called\n    ///  by the owner.\n    function disableERC20() public onlyOwner {\n        mErc20compatible = false;\n        setInterfaceImplementation(\"ERC20Token\", 0x0);\n    }\n\n    /// @notice Re enables the ERC20 interface. This function can only be called\n    ///  by the owner.\n    function enableERC20() public onlyOwner {\n        mErc20compatible = true;\n        setInterfaceImplementation(\"ERC20Token\", this);\n    }\n\n    /// @notice For Backwards compatibility\n    /// @return The decimls of the token. Forced to 18 in ERC777.\n    function decimals() public erc20 constant returns (uint8) { return uint8(18); }\n\n    /// @notice ERC20 backwards compatible transfer.\n    /// @param _to The address of the recipient\n    /// @param _amount The number of tokens to be transferred\n    /// @return `true`, if the transfer can't be done, it should fail.\n    function transfer(address _to, uint256 _amount) public erc20 returns (bool success) {\n        doSend(msg.sender, _to, _amount, \"\", msg.sender, \"\", false);\n        return true;\n    }\n\n    /// @notice ERC20 backwards compatible transferFrom.\n    /// @param _from The address holding the tokens being transferred\n    /// @param _to The address of the recipient\n    /// @param _amount The number of tokens to be transferred\n    /// @return `true`, if the transfer can't be done, it should fail.\n    function transferFrom(address _from, address _to, uint256 _amount) public erc20 returns (bool success) {\n        require(_amount <= mAllowed[_from][msg.sender]);\n\n        // Cannot be after doSend because of tokensReceived re-entry\n        mAllowed[_from][msg.sender] = mAllowed[_from][msg.sender].sub(_amount);\n        doSend(_from, _to, _amount, \"\", msg.sender, \"\", false);\n        return true;\n    }\n\n    /// @notice ERC20 backwards compatible approve.\n    ///  `msg.sender` approves `_spender` to spend `_amount` tokens on its behalf.\n    /// @param _spender The address of the account able to transfer the tokens\n    /// @param _amount The number of tokens to be approved for transfer\n    /// @return `true`, if the approve can't be done, it should fail.\n    function approve(address _spender, uint256 _amount) public erc20 returns (bool success) {\n        mAllowed[msg.sender][_spender] = _amount;\n        Approval(msg.sender, _spender, _amount);\n        return true;\n    }\n\n    /// @notice ERC20 backwards compatible allowance.\n    ///  This function makes it easy to read the `allowed[]` map\n    /// @param _owner The address of the account that owns the token\n    /// @param _spender The address of the account able to transfer the tokens\n    /// @return Amount of remaining tokens of _owner that _spender is allowed\n    ///  to spend\n    function allowance(address _owner, address _spender) public erc20 constant returns (uint256 remaining) {\n        return mAllowed[_owner][_spender];\n    }\n\n    /* -- Helper Functions -- */\n    //\n    /// @notice Internal function that ensures `_amount` is multiple of the granularity\n    /// @param _amount The quantity that want's to be checked\n    function requireMultiple(uint256 _amount) internal view {\n        require(_amount.div(mGranularity).mul(mGranularity) == _amount);\n    }\n\n    /// @notice Check whether an address is a regular address or not.\n    /// @param _addr Address of the contract that has to be checked\n    /// @return `true` if `_addr` is a regular address (not a contract)\n    function isRegularAddress(address _addr) internal constant returns(bool) {\n        if (_addr == 0) { return false; }\n        uint size;\n        assembly { size := extcodesize(_addr) } // solhint-disable-line no-inline-assembly\n        return size == 0;\n    }\n\n    /// @notice Helper function actually performing the sending of tokens.\n    /// @param _from The address holding the tokens being sent\n    /// @param _to The address of the recipient\n    /// @param _amount The number of tokens to be sent\n    /// @param _userData Data generated by the user to be passed to the recipient\n    /// @param _operatorData Data generated by the operator to be passed to the recipient\n    /// @param _preventLocking `true` if you want this function to throw when tokens are sent to a contract not\n    ///  implementing `erc777_tokenHolder`.\n    ///  ERC777 native Send functions MUST set this parameter to `true`, and backwards compatible ERC20 transfer\n    ///  functions SHOULD set this parameter to `false`.\n    function doSend(\n        address _from,\n        address _to,\n        uint256 _amount,\n        bytes _userData,\n        address _operator,\n        bytes _operatorData,\n        bool _preventLocking\n    )\n        private\n    {\n        requireMultiple(_amount);\n\n        callSender(_operator, _from, _to, _amount, _userData, _operatorData);\n\n        require(_to != address(0));          // forbid sending to 0x0 (=burning)\n        require(mBalances[_from] >= _amount); // ensure enough funds\n\n        mBalances[_from] = mBalances[_from].sub(_amount);\n        mBalances[_to] = mBalances[_to].add(_amount);\n\n        callRecipient(_operator, _from, _to, _amount, _userData, _operatorData, _preventLocking);\n\n        Sent(_operator, _from, _to, _amount, _userData, _operatorData);\n        if (mErc20compatible) { Transfer(_from, _to, _amount); }\n    }\n\n    /// @notice Helper function that checks for ERC777TokensRecipient on the recipient and calls it.\n    ///  May throw according to `_preventLocking`\n    /// @param _from The address holding the tokens being sent\n    /// @param _to The address of the recipient\n    /// @param _amount The number of tokens to be sent\n    /// @param _userData Data generated by the user to be passed to the recipient\n    /// @param _operatorData Data generated by the operator to be passed to the recipient\n    /// @param _preventLocking `true` if you want this function to throw when tokens are sent to a contract not\n    ///  implementing `ERC777TokensRecipient`.\n    ///  ERC777 native Send functions MUST set this parameter to `true`, and backwards compatible ERC20 transfer\n    ///  functions SHOULD set this parameter to `false`.\n    function callRecipient(\n        address _operator,\n        address _from,\n        address _to,\n        uint256 _amount,\n        bytes _userData,\n        bytes _operatorData,\n        bool _preventLocking\n    ) private {\n        address recipientImplementation = interfaceAddr(_to, \"ERC777TokensRecipient\");\n        if (recipientImplementation != 0) {\n            ERC777TokensRecipient(recipientImplementation).tokensReceived(\n                _operator, _from, _to, _amount, _userData, _operatorData);\n        } else if (_preventLocking) {\n            require(isRegularAddress(_to));\n        }\n    }\n\n    /// @notice Helper function that checks for ERC777TokensSender on the sender and calls it.\n    ///  May throw according to `_preventLocking`\n    /// @param _from The address holding the tokens being sent\n    /// @param _to The address of the recipient\n    /// @param _amount The amount of tokens to be sent\n    /// @param _userData Data generated by the user to be passed to the recipient\n    /// @param _operatorData Data generated by the operator to be passed to the recipient\n    ///  implementing `ERC777TokensSender`.\n    ///  ERC777 native Send functions MUST set this parameter to `true`, and backwards compatible ERC20 transfer\n    ///  functions SHOULD set this parameter to `false`.\n    function callSender(\n        address _operator,\n        address _from,\n        address _to,\n        uint256 _amount,\n        bytes _userData,\n        bytes _operatorData\n    ) private {\n        address senderImplementation = interfaceAddr(_from, \"ERC777TokensSender\");\n        if (senderImplementation != 0) {\n            ERC777TokensSender(senderImplementation).tokensToSend(\n                _operator, _from, _to, _amount, _userData, _operatorData);\n        }\n    }\n}\n",
  "sourcePath": "erc777/contracts/examples/ReferenceToken.sol",
  "compiler": {
    "name": "solc",
    "version": "0.4.21+commit.dfe3193c.Emscripten.clang"
  },
  "schemaVersion": "2.0.0",
  "updatedAt": "2018-06-12T12:09:38.612Z"
}