{
  "contractName": "ReferenceToken",
  "abi": [
    {
      "constant": true,
      "inputs": [],
      "name": "owner",
      "outputs": [
        {
          "name": "",
          "type": "address"
        }
      ],
      "payable": false,
      "stateMutability": "view",
      "type": "function"
    },
    {
      "constant": false,
      "inputs": [
        {
          "name": "newOwner",
          "type": "address"
        }
      ],
      "name": "transferOwnership",
      "outputs": [],
      "payable": false,
      "stateMutability": "nonpayable",
      "type": "function"
    },
    {
      "inputs": [
        {
          "name": "_name",
          "type": "string"
        },
        {
          "name": "_symbol",
          "type": "string"
        },
        {
          "name": "_granularity",
          "type": "uint256"
        }
      ],
      "payable": false,
      "stateMutability": "nonpayable",
      "type": "constructor"
    },
    {
      "anonymous": false,
      "inputs": [
        {
          "indexed": true,
          "name": "operator",
          "type": "address"
        },
        {
          "indexed": true,
          "name": "from",
          "type": "address"
        },
        {
          "indexed": true,
          "name": "to",
          "type": "address"
        },
        {
          "indexed": false,
          "name": "amount",
          "type": "uint256"
        },
        {
          "indexed": false,
          "name": "userData",
          "type": "bytes"
        },
        {
          "indexed": false,
          "name": "operatorData",
          "type": "bytes"
        }
      ],
      "name": "Sent",
      "type": "event"
    },
    {
      "anonymous": false,
      "inputs": [
        {
          "indexed": true,
          "name": "operator",
          "type": "address"
        },
        {
          "indexed": true,
          "name": "to",
          "type": "address"
        },
        {
          "indexed": false,
          "name": "amount",
          "type": "uint256"
        },
        {
          "indexed": false,
          "name": "operatorData",
          "type": "bytes"
        }
      ],
      "name": "Minted",
      "type": "event"
    },
    {
      "anonymous": false,
      "inputs": [
        {
          "indexed": true,
          "name": "operator",
          "type": "address"
        },
        {
          "indexed": true,
          "name": "from",
          "type": "address"
        },
        {
          "indexed": false,
          "name": "amount",
          "type": "uint256"
        },
        {
          "indexed": false,
          "name": "userData",
          "type": "bytes"
        },
        {
          "indexed": false,
          "name": "operatorData",
          "type": "bytes"
        }
      ],
      "name": "Burned",
      "type": "event"
    },
    {
      "anonymous": false,
      "inputs": [
        {
          "indexed": true,
          "name": "operator",
          "type": "address"
        },
        {
          "indexed": true,
          "name": "tokenHolder",
          "type": "address"
        }
      ],
      "name": "AuthorizedOperator",
      "type": "event"
    },
    {
      "anonymous": false,
      "inputs": [
        {
          "indexed": true,
          "name": "operator",
          "type": "address"
        },
        {
          "indexed": true,
          "name": "tokenHolder",
          "type": "address"
        }
      ],
      "name": "RevokedOperator",
      "type": "event"
    },
    {
      "anonymous": false,
      "inputs": [
        {
          "indexed": true,
          "name": "from",
          "type": "address"
        },
        {
          "indexed": true,
          "name": "to",
          "type": "address"
        },
        {
          "indexed": false,
          "name": "amount",
          "type": "uint256"
        }
      ],
      "name": "Transfer",
      "type": "event"
    },
    {
      "anonymous": false,
      "inputs": [
        {
          "indexed": true,
          "name": "owner",
          "type": "address"
        },
        {
          "indexed": true,
          "name": "spender",
          "type": "address"
        },
        {
          "indexed": false,
          "name": "amount",
          "type": "uint256"
        }
      ],
      "name": "Approval",
      "type": "event"
    },
    {
      "anonymous": false,
      "inputs": [
        {
          "indexed": true,
          "name": "previousOwner",
          "type": "address"
        },
        {
          "indexed": true,
          "name": "newOwner",
          "type": "address"
        }
      ],
      "name": "OwnershipTransferred",
      "type": "event"
    },
    {
      "constant": true,
      "inputs": [],
      "name": "name",
      "outputs": [
        {
          "name": "",
          "type": "string"
        }
      ],
      "payable": false,
      "stateMutability": "view",
      "type": "function"
    },
    {
      "constant": true,
      "inputs": [],
      "name": "symbol",
      "outputs": [
        {
          "name": "",
          "type": "string"
        }
      ],
      "payable": false,
      "stateMutability": "view",
      "type": "function"
    },
    {
      "constant": true,
      "inputs": [],
      "name": "granularity",
      "outputs": [
        {
          "name": "",
          "type": "uint256"
        }
      ],
      "payable": false,
      "stateMutability": "view",
      "type": "function"
    },
    {
      "constant": true,
      "inputs": [],
      "name": "totalSupply",
      "outputs": [
        {
          "name": "",
          "type": "uint256"
        }
      ],
      "payable": false,
      "stateMutability": "view",
      "type": "function"
    },
    {
      "constant": true,
      "inputs": [
        {
          "name": "_tokenHolder",
          "type": "address"
        }
      ],
      "name": "balanceOf",
      "outputs": [
        {
          "name": "",
          "type": "uint256"
        }
      ],
      "payable": false,
      "stateMutability": "view",
      "type": "function"
    },
    {
      "constant": false,
      "inputs": [
        {
          "name": "_to",
          "type": "address"
        },
        {
          "name": "_amount",
          "type": "uint256"
        }
      ],
      "name": "send",
      "outputs": [],
      "payable": false,
      "stateMutability": "nonpayable",
      "type": "function"
    },
    {
      "constant": false,
      "inputs": [
        {
          "name": "_to",
          "type": "address"
        },
        {
          "name": "_amount",
          "type": "uint256"
        },
        {
          "name": "_userData",
          "type": "bytes"
        }
      ],
      "name": "send",
      "outputs": [],
      "payable": false,
      "stateMutability": "nonpayable",
      "type": "function"
    },
    {
      "constant": false,
      "inputs": [
        {
          "name": "_operator",
          "type": "address"
        }
      ],
      "name": "authorizeOperator",
      "outputs": [],
      "payable": false,
      "stateMutability": "nonpayable",
      "type": "function"
    },
    {
      "constant": false,
      "inputs": [
        {
          "name": "_operator",
          "type": "address"
        }
      ],
      "name": "revokeOperator",
      "outputs": [],
      "payable": false,
      "stateMutability": "nonpayable",
      "type": "function"
    },
    {
      "constant": true,
      "inputs": [
        {
          "name": "_operator",
          "type": "address"
        },
        {
          "name": "_tokenHolder",
          "type": "address"
        }
      ],
      "name": "isOperatorFor",
      "outputs": [
        {
          "name": "",
          "type": "bool"
        }
      ],
      "payable": false,
      "stateMutability": "view",
      "type": "function"
    },
    {
      "constant": false,
      "inputs": [
        {
          "name": "_from",
          "type": "address"
        },
        {
          "name": "_to",
          "type": "address"
        },
        {
          "name": "_amount",
          "type": "uint256"
        },
        {
          "name": "_userData",
          "type": "bytes"
        },
        {
          "name": "_operatorData",
          "type": "bytes"
        }
      ],
      "name": "operatorSend",
      "outputs": [],
      "payable": false,
      "stateMutability": "nonpayable",
      "type": "function"
    },
    {
      "constant": false,
      "inputs": [
        {
          "name": "_tokenHolder",
          "type": "address"
        },
        {
          "name": "_amount",
          "type": "uint256"
        },
        {
          "name": "_operatorData",
          "type": "bytes"
        }
      ],
      "name": "mint",
      "outputs": [],
      "payable": false,
      "stateMutability": "nonpayable",
      "type": "function"
    },
    {
      "constant": false,
      "inputs": [
        {
          "name": "_tokenHolder",
          "type": "address"
        },
        {
          "name": "_amount",
          "type": "uint256"
        },
        {
          "name": "_userData",
          "type": "bytes"
        },
        {
          "name": "_operatorData",
          "type": "bytes"
        }
      ],
      "name": "burn",
      "outputs": [],
      "payable": false,
      "stateMutability": "nonpayable",
      "type": "function"
    },
    {
      "constant": false,
      "inputs": [],
      "name": "disableERC20",
      "outputs": [],
      "payable": false,
      "stateMutability": "nonpayable",
      "type": "function"
    },
    {
      "constant": false,
      "inputs": [],
      "name": "enableERC20",
      "outputs": [],
      "payable": false,
      "stateMutability": "nonpayable",
      "type": "function"
    },
    {
      "constant": true,
      "inputs": [],
      "name": "decimals",
      "outputs": [
        {
          "name": "",
          "type": "uint8"
        }
      ],
      "payable": false,
      "stateMutability": "view",
      "type": "function"
    },
    {
      "constant": false,
      "inputs": [
        {
          "name": "_to",
          "type": "address"
        },
        {
          "name": "_amount",
          "type": "uint256"
        }
      ],
      "name": "transfer",
      "outputs": [
        {
          "name": "success",
          "type": "bool"
        }
      ],
      "payable": false,
      "stateMutability": "nonpayable",
      "type": "function"
    },
    {
      "constant": false,
      "inputs": [
        {
          "name": "_from",
          "type": "address"
        },
        {
          "name": "_to",
          "type": "address"
        },
        {
          "name": "_amount",
          "type": "uint256"
        }
      ],
      "name": "transferFrom",
      "outputs": [
        {
          "name": "success",
          "type": "bool"
        }
      ],
      "payable": false,
      "stateMutability": "nonpayable",
      "type": "function"
    },
    {
      "constant": false,
      "inputs": [
        {
          "name": "_spender",
          "type": "address"
        },
        {
          "name": "_amount",
          "type": "uint256"
        }
      ],
      "name": "approve",
      "outputs": [
        {
          "name": "success",
          "type": "bool"
        }
      ],
      "payable": false,
      "stateMutability": "nonpayable",
      "type": "function"
    },
    {
      "constant": true,
      "inputs": [
        {
          "name": "_owner",
          "type": "address"
        },
        {
          "name": "_spender",
          "type": "address"
        }
      ],
      "name": "allowance",
      "outputs": [
        {
          "name": "remaining",
          "type": "uint256"
        }
      ],
      "payable": false,
      "stateMutability": "view",
      "type": "function"
    }
  ],
  "bytecode": "0x606060405273991a1bcb077599290d7305493c9a630c20f8b798600160006101000a81548173ffffffffffffffffffffffffffffffffffffffff021916908373ffffffffffffffffffffffffffffffffffffffff16021790555034156200006557600080fd5b60405162002bcc38038062002bcc83398101604052808051820191906020018051820191906020018051906020019091905050336000806101000a81548173ffffffffffffffffffffffffffffffffffffffff021916908373ffffffffffffffffffffffffffffffffffffffff1602179055508260029080519060200190620000f092919062000378565b5081600390805190602001906200010992919062000378565b5060006005819055506001600660006101000a81548160ff021916908315150217905550600181101515156200013e57600080fd5b806004819055506200019a6040805190810160405280600a81526020017f4552433230546f6b656e0000000000000000000000000000000000000000000081525030620001f86401000000000262001af7176401000000009004565b620001ef6040805190810160405280600b81526020017f455243373737546f6b656e00000000000000000000000000000000000000000081525030620001f86401000000000262001af7176401000000009004565b50505062000427565b6000826040518082805190602001908083835b6020831015156200023257805182526020820191506020810190506020830392506200020b565b6001836020036101000a03801982511681845116808217855250505050505090500191505060405180910390209050600160009054906101000a900473ffffffffffffffffffffffffffffffffffffffff1673ffffffffffffffffffffffffffffffffffffffff166329965a1d3083856040518463ffffffff167c0100000000000000000000000000000000000000000000000000000000028152600401808473ffffffffffffffffffffffffffffffffffffffff1673ffffffffffffffffffffffffffffffffffffffff16815260200183600019166000191681526020018273ffffffffffffffffffffffffffffffffffffffff1673ffffffffffffffffffffffffffffffffffffffff1681526020019350505050600060405180830381600087803b15156200036257600080fd5b5af115156200037057600080fd5b505050505050565b828054600181600116156101000203166002900490600052602060002090601f016020900481019282601f10620003bb57805160ff1916838001178555620003ec565b82800160010185558215620003ec579182015b82811115620003eb578251825591602001919060010190620003ce565b5b509050620003fb9190620003ff565b5090565b6200042491905b808211156200042057600081600090555060010162000406565b5090565b90565b61279580620004376000396000f300606060405260043610610128576000357c0100000000000000000000000000000000000000000000000000000000900463ffffffff16806306fdde031461012d578063070c87f9146101bb578063095ea7b3146101d057806318160ddd1461022a578063190a6aa91461025357806323b872dd1461031b578063313ce56714610394578063556f0dc7146103c357806362ad1b83146103ec57806370a08231146104d35780638da5cb5b1461052057806394d008ef14610575578063959b8c3f146105fa57806395d89b41146106335780639bd9bbc6146106c1578063a9059cbb14610746578063d0679d34146107a0578063d95b6371146107e2578063dd62ed3e14610852578063f2fde38b146108be578063f922f216146108f7578063fad8b32a1461090c575b600080fd5b341561013857600080fd5b610140610945565b6040518080602001828103825283818151815260200191508051906020019080838360005b83811015610180578082015181840152602081019050610165565b50505050905090810190601f1680156101ad5780820380516001836020036101000a031916815260200191505b509250505060405180910390f35b34156101c657600080fd5b6101ce6109ed565b005b34156101db57600080fd5b610210600480803573ffffffffffffffffffffffffffffffffffffffff16906020019091908035906020019091905050610aa4565b604051808215151515815260200191505060405180910390f35b341561023557600080fd5b61023d610bb1565b6040518082815260200191505060405180910390f35b341561025e57600080fd5b610319600480803573ffffffffffffffffffffffffffffffffffffffff1690602001909190803590602001909190803590602001908201803590602001908080601f0160208091040260200160405190810160405280939291908181526020018383808284378201915050505050509190803590602001908201803590602001908080601f01602080910402602001604051908101604052809392919081815260200183838082843782019150505050505091905050610bbb565b005b341561032657600080fd5b61037a600480803573ffffffffffffffffffffffffffffffffffffffff1690602001909190803573ffffffffffffffffffffffffffffffffffffffff16906020019091908035906020019091905050610ea0565b604051808215151515815260200191505060405180910390f35b341561039f57600080fd5b6103a7611092565b604051808260ff1660ff16815260200191505060405180910390f35b34156103ce57600080fd5b6103d66110b6565b6040518082815260200191505060405180910390f35b34156103f757600080fd5b6104d1600480803573ffffffffffffffffffffffffffffffffffffffff1690602001909190803573ffffffffffffffffffffffffffffffffffffffff1690602001909190803590602001909190803590602001908201803590602001908080601f0160208091040260200160405190810160405280939291908181526020018383808284378201915050505050509190803590602001908201803590602001908080601f016020809104026020016040519081016040528093929190818152602001838380828437820191505050505050919050506110c0565b005b34156104de57600080fd5b61050a600480803573ffffffffffffffffffffffffffffffffffffffff169060200190919050506110ec565b6040518082815260200191505060405180910390f35b341561052b57600080fd5b610533611135565b604051808273ffffffffffffffffffffffffffffffffffffffff1673ffffffffffffffffffffffffffffffffffffffff16815260200191505060405180910390f35b341561058057600080fd5b6105f8600480803573ffffffffffffffffffffffffffffffffffffffff1690602001909190803590602001909190803590602001908201803590602001908080601f0160208091040260200160405190810160405280939291908181526020018383808284378201915050505050509190505061115a565b005b341561060557600080fd5b610631600480803573ffffffffffffffffffffffffffffffffffffffff169060200190919050506113cc565b005b341561063e57600080fd5b6106466114f9565b6040518080602001828103825283818151815260200191508051906020019080838360005b8381101561068657808201518184015260208101905061066b565b50505050905090810190601f1680156106b35780820380516001836020036101000a031916815260200191505b509250505060405180910390f35b34156106cc57600080fd5b610744600480803573ffffffffffffffffffffffffffffffffffffffff1690602001909190803590602001909190803590602001908201803590602001908080601f016020809104026020016040519081016040528093929190818152602001838380828437820191505050505050919050506115a1565b005b341561075157600080fd5b610786600480803573ffffffffffffffffffffffffffffffffffffffff169060200190919080359060200190919050506115c6565b604051808215151515815260200191505060405180910390f35b34156107ab57600080fd5b6107e0600480803573ffffffffffffffffffffffffffffffffffffffff1690602001909190803590602001909190505061161d565b005b34156107ed57600080fd5b610838600480803573ffffffffffffffffffffffffffffffffffffffff1690602001909190803573ffffffffffffffffffffffffffffffffffffffff16906020019091905050611651565b604051808215151515815260200191505060405180910390f35b341561085d57600080fd5b6108a8600480803573ffffffffffffffffffffffffffffffffffffffff1690602001909190803573ffffffffffffffffffffffffffffffffffffffff1690602001909190505061171b565b6040518082815260200191505060405180910390f35b34156108c957600080fd5b6108f5600480803573ffffffffffffffffffffffffffffffffffffffff169060200190919050506117bd565b005b341561090257600080fd5b61090a611912565b005b341561091757600080fd5b610943600480803573ffffffffffffffffffffffffffffffffffffffff169060200190919050506119ca565b005b61094d612755565b60028054600181600116156101000203166002900480601f0160208091040260200160405190810160405280929190818152602001828054600181600116156101000203166002900480156109e35780601f106109b8576101008083540402835291602001916109e3565b820191906000526020600020905b8154815290600101906020018083116109c657829003601f168201915b5050505050905090565b6000809054906101000a900473ffffffffffffffffffffffffffffffffffffffff1673ffffffffffffffffffffffffffffffffffffffff163373ffffffffffffffffffffffffffffffffffffffff16141515610a4857600080fd5b6001600660006101000a81548160ff021916908315150217905550610aa26040805190810160405280600a81526020017f4552433230546f6b656e0000000000000000000000000000000000000000000081525030611af7565b565b6000600660009054906101000a900460ff161515610ac157600080fd5b81600960003373ffffffffffffffffffffffffffffffffffffffff1673ffffffffffffffffffffffffffffffffffffffff16815260200190815260200160002060008573ffffffffffffffffffffffffffffffffffffffff1673ffffffffffffffffffffffffffffffffffffffff168152602001908152602001600020819055508273ffffffffffffffffffffffffffffffffffffffff163373ffffffffffffffffffffffffffffffffffffffff167f8c5be1e5ebec7d5bd14f71427d1e84f3dd0314c0f7b2291e5b200ac8c7c3b925846040518082815260200191505060405180910390a36001905092915050565b6000600554905090565b6000809054906101000a900473ffffffffffffffffffffffffffffffffffffffff1673ffffffffffffffffffffffffffffffffffffffff163373ffffffffffffffffffffffffffffffffffffffff16141515610c1657600080fd5b610c1f83611c73565b610c2e33856000868686611cac565b82610c38856110ec565b10151515610c4557600080fd5b610c9783600760008773ffffffffffffffffffffffffffffffffffffffff1673ffffffffffffffffffffffffffffffffffffffff16815260200190815260200160002054611f0d90919063ffffffff16565b600760008673ffffffffffffffffffffffffffffffffffffffff1673ffffffffffffffffffffffffffffffffffffffff16815260200190815260200160002081905550610cef83600554611f0d90919063ffffffff16565b6005819055508373ffffffffffffffffffffffffffffffffffffffff163373ffffffffffffffffffffffffffffffffffffffff167fa78a9be3a7b862d26933ad85fb11d80ef66b8f972d7cbba06621d583943a4098858585604051808481526020018060200180602001838103835285818151815260200191508051906020019080838360005b83811015610d91578082015181840152602081019050610d76565b50505050905090810190601f168015610dbe5780820380516001836020036101000a031916815260200191505b50838103825284818151815260200191508051906020019080838360005b83811015610df7578082015181840152602081019050610ddc565b50505050905090810190601f168015610e245780820380516001836020036101000a031916815260200191505b509550505050505060405180910390a3600660009054906101000a900460ff1615610e9a5760008473ffffffffffffffffffffffffffffffffffffffff167fddf252ad1be2c89b69c2b068fc378daa952ba7f163c4a11628f55a4df523b3ef856040518082815260200191505060405180910390a35b50505050565b6000600660009054906101000a900460ff161515610ebd57600080fd5b600960008573ffffffffffffffffffffffffffffffffffffffff1673ffffffffffffffffffffffffffffffffffffffff16815260200190815260200160002060003373ffffffffffffffffffffffffffffffffffffffff1673ffffffffffffffffffffffffffffffffffffffff168152602001908152602001600020548211151515610f4857600080fd5b610fd782600960008773ffffffffffffffffffffffffffffffffffffffff1673ffffffffffffffffffffffffffffffffffffffff16815260200190815260200160002060003373ffffffffffffffffffffffffffffffffffffffff1673ffffffffffffffffffffffffffffffffffffffff16815260200190815260200160002054611f0d90919063ffffffff16565b600960008673ffffffffffffffffffffffffffffffffffffffff1673ffffffffffffffffffffffffffffffffffffffff16815260200190815260200160002060003373ffffffffffffffffffffffffffffffffffffffff1673ffffffffffffffffffffffffffffffffffffffff1681526020019081526020016000208190555061108784848460206040519081016040528060008152503360206040519081016040528060008152506000611f26565b600190509392505050565b6000600660009054906101000a900460ff1615156110af57600080fd5b6012905090565b6000600454905090565b6110ca3386611651565b15156110d557600080fd5b6110e58585858533866001611f26565b5050505050565b6000600760008373ffffffffffffffffffffffffffffffffffffffff1673ffffffffffffffffffffffffffffffffffffffff168152602001908152602001600020549050919050565b6000809054906101000a900473ffffffffffffffffffffffffffffffffffffffff1681565b6000809054906101000a900473ffffffffffffffffffffffffffffffffffffffff1673ffffffffffffffffffffffffffffffffffffffff163373ffffffffffffffffffffffffffffffffffffffff161415156111b557600080fd5b6111be82611c73565b6111d3826005546122da90919063ffffffff16565b60058190555061122b82600760008673ffffffffffffffffffffffffffffffffffffffff1673ffffffffffffffffffffffffffffffffffffffff168152602001908152602001600020546122da90919063ffffffff16565b600760008573ffffffffffffffffffffffffffffffffffffffff1673ffffffffffffffffffffffffffffffffffffffff1681526020019081526020016000208190555061128f336000858560206040519081016040528060008152508660016122f6565b8273ffffffffffffffffffffffffffffffffffffffff163373ffffffffffffffffffffffffffffffffffffffff167fbcd28e05e57d4bcd5bfcc92a4661d412893e6112c44a2e25d96cfdfc30d5f22e84846040518083815260200180602001828103825283818151815260200191508051906020019080838360005b8381101561132657808201518184015260208101905061130b565b50505050905090810190601f1680156113535780820380516001836020036101000a031916815260200191505b50935050505060405180910390a3600660009054906101000a900460ff16156113c7578273ffffffffffffffffffffffffffffffffffffffff1660007fddf252ad1be2c89b69c2b068fc378daa952ba7f163c4a11628f55a4df523b3ef846040518082815260200191505060405180910390a35b505050565b3373ffffffffffffffffffffffffffffffffffffffff168173ffffffffffffffffffffffffffffffffffffffff161415151561140757600080fd5b6001600860008373ffffffffffffffffffffffffffffffffffffffff1673ffffffffffffffffffffffffffffffffffffffff16815260200190815260200160002060003373ffffffffffffffffffffffffffffffffffffffff1673ffffffffffffffffffffffffffffffffffffffff16815260200190815260200160002060006101000a81548160ff0219169083151502179055503373ffffffffffffffffffffffffffffffffffffffff168173ffffffffffffffffffffffffffffffffffffffff167ff4caeb2d6ca8932a215a353d0703c326ec2d81fc68170f320eb2ab49e9df61f960405160405180910390a350565b611501612755565b60038054600181600116156101000203166002900480601f0160208091040260200160405190810160405280929190818152602001828054600181600116156101000203166002900480156115975780601f1061156c57610100808354040283529160200191611597565b820191906000526020600020905b81548152906001019060200180831161157a57829003601f168201915b5050505050905090565b6115c1338484843360206040519081016040528060008152506001611f26565b505050565b6000600660009054906101000a900460ff1615156115e357600080fd5b61161333848460206040519081016040528060008152503360206040519081016040528060008152506000611f26565b6001905092915050565b61164d33838360206040519081016040528060008152503360206040519081016040528060008152506001611f26565b5050565b60008173ffffffffffffffffffffffffffffffffffffffff168373ffffffffffffffffffffffffffffffffffffffff1614806117135750600860008473ffffffffffffffffffffffffffffffffffffffff1673ffffffffffffffffffffffffffffffffffffffff16815260200190815260200160002060008373ffffffffffffffffffffffffffffffffffffffff1673ffffffffffffffffffffffffffffffffffffffff16815260200190815260200160002060009054906101000a900460ff165b905092915050565b6000600660009054906101000a900460ff16151561173857600080fd5b600960008473ffffffffffffffffffffffffffffffffffffffff1673ffffffffffffffffffffffffffffffffffffffff16815260200190815260200160002060008373ffffffffffffffffffffffffffffffffffffffff1673ffffffffffffffffffffffffffffffffffffffff16815260200190815260200160002054905092915050565b6000809054906101000a900473ffffffffffffffffffffffffffffffffffffffff1673ffffffffffffffffffffffffffffffffffffffff163373ffffffffffffffffffffffffffffffffffffffff1614151561181857600080fd5b600073ffffffffffffffffffffffffffffffffffffffff168173ffffffffffffffffffffffffffffffffffffffff161415151561185457600080fd5b8073ffffffffffffffffffffffffffffffffffffffff166000809054906101000a900473ffffffffffffffffffffffffffffffffffffffff1673ffffffffffffffffffffffffffffffffffffffff167f8be0079c531659141344cd1fd0a4f28419497f9722a3daafe3b4186f6b6457e060405160405180910390a3806000806101000a81548173ffffffffffffffffffffffffffffffffffffffff021916908373ffffffffffffffffffffffffffffffffffffffff16021790555050565b6000809054906101000a900473ffffffffffffffffffffffffffffffffffffffff1673ffffffffffffffffffffffffffffffffffffffff163373ffffffffffffffffffffffffffffffffffffffff1614151561196d57600080fd5b6000600660006101000a81548160ff0219169083151502179055506119c86040805190810160405280600a81526020017f4552433230546f6b656e000000000000000000000000000000000000000000008152506000611af7565b565b3373ffffffffffffffffffffffffffffffffffffffff168173ffffffffffffffffffffffffffffffffffffffff1614151515611a0557600080fd5b6000600860008373ffffffffffffffffffffffffffffffffffffffff1673ffffffffffffffffffffffffffffffffffffffff16815260200190815260200160002060003373ffffffffffffffffffffffffffffffffffffffff1673ffffffffffffffffffffffffffffffffffffffff16815260200190815260200160002060006101000a81548160ff0219169083151502179055503373ffffffffffffffffffffffffffffffffffffffff168173ffffffffffffffffffffffffffffffffffffffff167f50546e66e5f44d728365dc3908c63bc5cfeeab470722c1677e3073a6ac294aa160405160405180910390a350565b6000826040518082805190602001908083835b602083101515611b2f5780518252602082019150602081019050602083039250611b0a565b6001836020036101000a03801982511681845116808217855250505050505090500191505060405180910390209050600160009054906101000a900473ffffffffffffffffffffffffffffffffffffffff1673ffffffffffffffffffffffffffffffffffffffff166329965a1d3083856040518463ffffffff167c0100000000000000000000000000000000000000000000000000000000028152600401808473ffffffffffffffffffffffffffffffffffffffff1673ffffffffffffffffffffffffffffffffffffffff16815260200183600019166000191681526020018273ffffffffffffffffffffffffffffffffffffffff1673ffffffffffffffffffffffffffffffffffffffff1681526020019350505050600060405180830381600087803b1515611c5e57600080fd5b5af11515611c6b57600080fd5b505050505050565b80611c9d600454611c8f6004548561257790919063ffffffff16565b61258d90919063ffffffff16565b141515611ca957600080fd5b50565b6000611ced866040805190810160405280601281526020017f455243373737546f6b656e7353656e64657200000000000000000000000000008152506125c5565b905060008173ffffffffffffffffffffffffffffffffffffffff16141515611f04578073ffffffffffffffffffffffffffffffffffffffff166375ab97828888888888886040518763ffffffff167c0100000000000000000000000000000000000000000000000000000000028152600401808773ffffffffffffffffffffffffffffffffffffffff1673ffffffffffffffffffffffffffffffffffffffff1681526020018673ffffffffffffffffffffffffffffffffffffffff1673ffffffffffffffffffffffffffffffffffffffff1681526020018573ffffffffffffffffffffffffffffffffffffffff1673ffffffffffffffffffffffffffffffffffffffff1681526020018481526020018060200180602001838103835285818151815260200191508051906020019080838360005b83811015611e3c578082015181840152602081019050611e21565b50505050905090810190601f168015611e695780820380516001836020036101000a031916815260200191505b50838103825284818151815260200191508051906020019080838360005b83811015611ea2578082015181840152602081019050611e87565b50505050905090810190601f168015611ecf5780820380516001836020036101000a031916815260200191505b5098505050505050505050600060405180830381600087803b1515611ef357600080fd5b5af11515611f0057600080fd5b5050505b50505050505050565b6000828211151515611f1b57fe5b818303905092915050565b611f2f85611c73565b611f3d838888888887611cac565b600073ffffffffffffffffffffffffffffffffffffffff168673ffffffffffffffffffffffffffffffffffffffff1614151515611f7957600080fd5b84600760008973ffffffffffffffffffffffffffffffffffffffff1673ffffffffffffffffffffffffffffffffffffffff1681526020019081526020016000205410151515611fc757600080fd5b61201985600760008a73ffffffffffffffffffffffffffffffffffffffff1673ffffffffffffffffffffffffffffffffffffffff16815260200190815260200160002054611f0d90919063ffffffff16565b600760008973ffffffffffffffffffffffffffffffffffffffff1673ffffffffffffffffffffffffffffffffffffffff168152602001908152602001600020819055506120ae85600760008973ffffffffffffffffffffffffffffffffffffffff1673ffffffffffffffffffffffffffffffffffffffff168152602001908152602001600020546122da90919063ffffffff16565b600760008873ffffffffffffffffffffffffffffffffffffffff1673ffffffffffffffffffffffffffffffffffffffff16815260200190815260200160002081905550612100838888888887876122f6565b8573ffffffffffffffffffffffffffffffffffffffff168773ffffffffffffffffffffffffffffffffffffffff168473ffffffffffffffffffffffffffffffffffffffff167f06b541ddaa720db2b10a4d0cdac39b8d360425fc073085fac19bc82614677987888887604051808481526020018060200180602001838103835285818151815260200191508051906020019080838360005b838110156121b3578082015181840152602081019050612198565b50505050905090810190601f1680156121e05780820380516001836020036101000a031916815260200191505b50838103825284818151815260200191508051906020019080838360005b838110156122195780820151818401526020810190506121fe565b50505050905090810190601f1680156122465780820380516001836020036101000a031916815260200191505b509550505050505060405180910390a4600660009054906101000a900460ff16156122d1578573ffffffffffffffffffffffffffffffffffffffff168773ffffffffffffffffffffffffffffffffffffffff167fddf252ad1be2c89b69c2b068fc378daa952ba7f163c4a11628f55a4df523b3ef876040518082815260200191505060405180910390a35b50505050505050565b600081830190508281101515156122ed57fe5b80905092915050565b6000612337866040805190810160405280601581526020017f455243373737546f6b656e73526563697069656e7400000000000000000000008152506125c5565b905060008173ffffffffffffffffffffffffffffffffffffffff16141515612551578073ffffffffffffffffffffffffffffffffffffffff166223de298989898989896040518763ffffffff167c0100000000000000000000000000000000000000000000000000000000028152600401808773ffffffffffffffffffffffffffffffffffffffff1673ffffffffffffffffffffffffffffffffffffffff1681526020018673ffffffffffffffffffffffffffffffffffffffff1673ffffffffffffffffffffffffffffffffffffffff1681526020018573ffffffffffffffffffffffffffffffffffffffff1673ffffffffffffffffffffffffffffffffffffffff1681526020018481526020018060200180602001838103835285818151815260200191508051906020019080838360005b8381101561248557808201518184015260208101905061246a565b50505050905090810190601f1680156124b25780820380516001836020036101000a031916815260200191505b50838103825284818151815260200191508051906020019080838360005b838110156124eb5780820151818401526020810190506124d0565b50505050905090810190601f1680156125185780820380516001836020036101000a031916815260200191505b5098505050505050505050600060405180830381600087803b151561253c57600080fd5b5af1151561254957600080fd5b50505061256d565b811561256c5761256086612719565b151561256b57600080fd5b5b5b5050505050505050565b6000818381151561258457fe5b04905092915050565b6000808314156125a057600090506125bf565b81830290508183828115156125b157fe5b041415156125bb57fe5b8090505b92915050565b600080826040518082805190602001908083835b6020831015156125fe57805182526020820191506020810190506020830392506125d9565b6001836020036101000a03801982511681845116808217855250505050505090500191505060405180910390209050600160009054906101000a900473ffffffffffffffffffffffffffffffffffffffff1673ffffffffffffffffffffffffffffffffffffffff1663aabbb8ca85836040518363ffffffff167c0100000000000000000000000000000000000000000000000000000000028152600401808373ffffffffffffffffffffffffffffffffffffffff1673ffffffffffffffffffffffffffffffffffffffff168152602001826000191660001916815260200192505050602060405180830381600087803b15156126f957600080fd5b5af1151561270657600080fd5b5050506040518051905091505092915050565b60008060008373ffffffffffffffffffffffffffffffffffffffff161415612744576000915061274f565b823b90506000811491505b50919050565b6020604051908101604052806000815250905600a165627a7a72305820a2d4c59f4ae7ae72f17604ee184765709eb43d2e40ef975409b96bad6e2b1c230029",
  "source": "/* This Source Code Form is subject to the terms of the Mozilla Public\n * License, v. 2.0. If a copy of the MPL was not distributed with this\n * file, You can obtain one at http://mozilla.org/MPL/2.0/. */\npragma solidity 0.4.21;\n\n/// @title ERC777 ReferenceToken Contract\n/// @author Jordi Baylina, Jacques Dafflon\n/// @dev This token contract's goal is to give an example implementation\n///  of ERC777 with ERC20 compatible.\n///  This contract does not define any standard, but can be taken as a reference\n///  implementation in case of any ambiguity into the standard\n\nimport \"eip820/contracts/ERC820Implementer.sol\";\nimport \"openzeppelin-solidity/contracts/ownership/Ownable.sol\";\nimport \"openzeppelin-solidity/contracts/math/SafeMath.sol\";\nimport \"../ERC20Token.sol\";\nimport \"../ERC777Token.sol\";\nimport \"../ERC777TokensSender.sol\";\nimport \"../ERC777TokensRecipient.sol\";\n\n\ncontract ReferenceToken is Ownable, ERC20Token, ERC777Token, ERC820Implementer {\n    using SafeMath for uint256;\n\n    string private mName;\n    string private mSymbol;\n    uint256 private mGranularity;\n    uint256 private mTotalSupply;\n\n    bool private mErc20compatible;\n\n    mapping(address => uint) private mBalances;\n    mapping(address => mapping(address => bool)) private mAuthorized;\n    mapping(address => mapping(address => uint256)) private mAllowed;\n\n    /* -- Constructor -- */\n    //\n    /// @notice Constructor to create a ReferenceToken\n    /// @param _name Name of the new token\n    /// @param _symbol Symbol of the new token.\n    /// @param _granularity Minimum transferable chunk.\n    function ReferenceToken(\n        string _name,\n        string _symbol,\n        uint256 _granularity\n    )\n        public\n    {\n        mName = _name;\n        mSymbol = _symbol;\n        mTotalSupply = 0;\n        mErc20compatible = true;\n        require(_granularity >= 1);\n        mGranularity = _granularity;\n\n        setInterfaceImplementation(\"ERC20Token\", this);\n        setInterfaceImplementation(\"ERC777Token\", this);\n    }\n\n    /* -- ERC777 Interface Implementation -- */\n    //\n    /// @return the name of the token\n    function name() public constant returns (string) { return mName; }\n\n    /// @return the symbol of the token\n    function symbol() public constant returns (string) { return mSymbol; }\n\n    /// @return the granularity of the token\n    function granularity() public constant returns (uint256) { return mGranularity; }\n\n    /// @return the total supply of the token\n    function totalSupply() public constant returns (uint256) { return mTotalSupply; }\n\n    /// @notice Return the account balance of some account\n    /// @param _tokenHolder Address for which the balance is returned\n    /// @return the balance of `_tokenAddress`.\n    function balanceOf(address _tokenHolder) public constant returns (uint256) { return mBalances[_tokenHolder]; }\n\n    /// @notice Send `_amount` of tokens to address `_to`\n    /// @param _to The address of the recipient\n    /// @param _amount The number of tokens to be sent\n    function send(address _to, uint256 _amount) public {\n        doSend(msg.sender, _to, _amount, \"\", msg.sender, \"\", true);\n    }\n\n    /// @notice Send `_amount` of tokens to address `_to` passing `_userData` to the recipient\n    /// @param _to The address of the recipient\n    /// @param _amount The number of tokens to be sent\n    function send(address _to, uint256 _amount, bytes _userData) public {\n        doSend(msg.sender, _to, _amount, _userData, msg.sender, \"\", true);\n    }\n\n    /// @notice Authorize a third party `_operator` to manage (send) `msg.sender`'s tokens.\n    /// @param _operator The operator that wants to be Authorized\n    function authorizeOperator(address _operator) public {\n        require(_operator != msg.sender);\n        mAuthorized[_operator][msg.sender] = true;\n        AuthorizedOperator(_operator, msg.sender);\n    }\n\n    /// @notice Revoke a third party `_operator`'s rights to manage (send) `msg.sender`'s tokens.\n    /// @param _operator The operator that wants to be Revoked\n    function revokeOperator(address _operator) public {\n        require(_operator != msg.sender);\n        mAuthorized[_operator][msg.sender] = false;\n        RevokedOperator(_operator, msg.sender);\n    }\n\n    /// @notice Check whether the `_operator` address is allowed to manage the tokens held by `_tokenHolder` address.\n    /// @param _operator address to check if it has the right to manage the tokens\n    /// @param _tokenHolder address which holds the tokens to be managed\n    /// @return `true` if `_operator` is authorized for `_tokenHolder`\n    function isOperatorFor(address _operator, address _tokenHolder) public constant returns (bool) {\n        return _operator == _tokenHolder || mAuthorized[_operator][_tokenHolder];\n    }\n\n    /// @notice Send `_amount` of tokens on behalf of the address `from` to the address `to`.\n    /// @param _from The address holding the tokens being sent\n    /// @param _to The address of the recipient\n    /// @param _amount The number of tokens to be sent\n    /// @param _userData Data generated by the user to be sent to the recipient\n    /// @param _operatorData Data generated by the operator to be sent to the recipient\n    function operatorSend(address _from, address _to, uint256 _amount, bytes _userData, bytes _operatorData) public {\n        require(isOperatorFor(msg.sender, _from));\n        doSend(_from, _to, _amount, _userData, msg.sender, _operatorData, true);\n    }\n\n    /* -- Mint And Burn Functions (not part of the ERC777 standard, only the Events/tokensReceived are) -- */\n    //\n    /// @notice Generates `_amount` tokens to be assigned to `_tokenHolder`\n    ///  Sample mint function to showcase the use of the `Minted` event and the logic to notify the recipient.\n    /// @param _tokenHolder The address that will be assigned the new tokens\n    /// @param _amount The quantity of tokens generated\n    /// @param _operatorData Data that will be passed to the recipient as a first transfer\n    function mint(address _tokenHolder, uint256 _amount, bytes _operatorData) public onlyOwner {\n        requireMultiple(_amount);\n        mTotalSupply = mTotalSupply.add(_amount);\n        mBalances[_tokenHolder] = mBalances[_tokenHolder].add(_amount);\n\n        callRecipient(msg.sender, 0x0, _tokenHolder, _amount, \"\", _operatorData, true);\n\n        Minted(msg.sender, _tokenHolder, _amount, _operatorData);\n        if (mErc20compatible) { Transfer(0x0, _tokenHolder, _amount); }\n    }\n\n    /// @notice Burns `_amount` tokens from `_tokenHolder`\n    ///  Sample burn function to showcase the use of the `Burned` event.\n    /// @param _tokenHolder The address that will lose the tokens\n    /// @param _amount The quantity of tokens to burn\n    function burn(address _tokenHolder, uint256 _amount, bytes _userData, bytes _operatorData) public onlyOwner {\n        requireMultiple(_amount);\n\n        callSender(msg.sender, _tokenHolder, 0x0, _amount, _userData, _operatorData);\n\n        require(balanceOf(_tokenHolder) >= _amount);\n\n        mBalances[_tokenHolder] = mBalances[_tokenHolder].sub(_amount);\n        mTotalSupply = mTotalSupply.sub(_amount);\n\n        Burned(msg.sender, _tokenHolder, _amount, _userData, _operatorData);\n        if (mErc20compatible) { Transfer(_tokenHolder, 0x0, _amount); }\n    }\n\n    /* -- ERC20 Compatible Methods -- */\n    //\n    /// @notice This modifier is applied to erc20 obsolete methods that are\n    ///  implemented only to maintain backwards compatibility. When the erc20\n    ///  compatibility is disabled, this methods will fail.\n    modifier erc20 () {\n        require(mErc20compatible);\n        _;\n    }\n\n    /// @notice Disables the ERC20 interface. This function can only be called\n    ///  by the owner.\n    function disableERC20() public onlyOwner {\n        mErc20compatible = false;\n        setInterfaceImplementation(\"ERC20Token\", 0x0);\n    }\n\n    /// @notice Re enables the ERC20 interface. This function can only be called\n    ///  by the owner.\n    function enableERC20() public onlyOwner {\n        mErc20compatible = true;\n        setInterfaceImplementation(\"ERC20Token\", this);\n    }\n\n    /// @notice For Backwards compatibility\n    /// @return The decimls of the token. Forced to 18 in ERC777.\n    function decimals() public erc20 constant returns (uint8) { return uint8(18); }\n\n    /// @notice ERC20 backwards compatible transfer.\n    /// @param _to The address of the recipient\n    /// @param _amount The number of tokens to be transferred\n    /// @return `true`, if the transfer can't be done, it should fail.\n    function transfer(address _to, uint256 _amount) public erc20 returns (bool success) {\n        doSend(msg.sender, _to, _amount, \"\", msg.sender, \"\", false);\n        return true;\n    }\n\n    /// @notice ERC20 backwards compatible transferFrom.\n    /// @param _from The address holding the tokens being transferred\n    /// @param _to The address of the recipient\n    /// @param _amount The number of tokens to be transferred\n    /// @return `true`, if the transfer can't be done, it should fail.\n    function transferFrom(address _from, address _to, uint256 _amount) public erc20 returns (bool success) {\n        require(_amount <= mAllowed[_from][msg.sender]);\n\n        // Cannot be after doSend because of tokensReceived re-entry\n        mAllowed[_from][msg.sender] = mAllowed[_from][msg.sender].sub(_amount);\n        doSend(_from, _to, _amount, \"\", msg.sender, \"\", false);\n        return true;\n    }\n\n    /// @notice ERC20 backwards compatible approve.\n    ///  `msg.sender` approves `_spender` to spend `_amount` tokens on its behalf.\n    /// @param _spender The address of the account able to transfer the tokens\n    /// @param _amount The number of tokens to be approved for transfer\n    /// @return `true`, if the approve can't be done, it should fail.\n    function approve(address _spender, uint256 _amount) public erc20 returns (bool success) {\n        mAllowed[msg.sender][_spender] = _amount;\n        Approval(msg.sender, _spender, _amount);\n        return true;\n    }\n\n    /// @notice ERC20 backwards compatible allowance.\n    ///  This function makes it easy to read the `allowed[]` map\n    /// @param _owner The address of the account that owns the token\n    /// @param _spender The address of the account able to transfer the tokens\n    /// @return Amount of remaining tokens of _owner that _spender is allowed\n    ///  to spend\n    function allowance(address _owner, address _spender) public erc20 constant returns (uint256 remaining) {\n        return mAllowed[_owner][_spender];\n    }\n\n    /* -- Helper Functions -- */\n    //\n    /// @notice Internal function that ensures `_amount` is multiple of the granularity\n    /// @param _amount The quantity that want's to be checked\n    function requireMultiple(uint256 _amount) internal view {\n        require(_amount.div(mGranularity).mul(mGranularity) == _amount);\n    }\n\n    /// @notice Check whether an address is a regular address or not.\n    /// @param _addr Address of the contract that has to be checked\n    /// @return `true` if `_addr` is a regular address (not a contract)\n    function isRegularAddress(address _addr) internal constant returns(bool) {\n        if (_addr == 0) { return false; }\n        uint size;\n        assembly { size := extcodesize(_addr) } // solhint-disable-line no-inline-assembly\n        return size == 0;\n    }\n\n    /// @notice Helper function actually performing the sending of tokens.\n    /// @param _from The address holding the tokens being sent\n    /// @param _to The address of the recipient\n    /// @param _amount The number of tokens to be sent\n    /// @param _userData Data generated by the user to be passed to the recipient\n    /// @param _operatorData Data generated by the operator to be passed to the recipient\n    /// @param _preventLocking `true` if you want this function to throw when tokens are sent to a contract not\n    ///  implementing `erc777_tokenHolder`.\n    ///  ERC777 native Send functions MUST set this parameter to `true`, and backwards compatible ERC20 transfer\n    ///  functions SHOULD set this parameter to `false`.\n    function doSend(\n        address _from,\n        address _to,\n        uint256 _amount,\n        bytes _userData,\n        address _operator,\n        bytes _operatorData,\n        bool _preventLocking\n    )\n        private\n    {\n        requireMultiple(_amount);\n\n        callSender(_operator, _from, _to, _amount, _userData, _operatorData);\n\n        require(_to != address(0));          // forbid sending to 0x0 (=burning)\n        require(mBalances[_from] >= _amount); // ensure enough funds\n\n        mBalances[_from] = mBalances[_from].sub(_amount);\n        mBalances[_to] = mBalances[_to].add(_amount);\n\n        callRecipient(_operator, _from, _to, _amount, _userData, _operatorData, _preventLocking);\n\n        Sent(_operator, _from, _to, _amount, _userData, _operatorData);\n        if (mErc20compatible) { Transfer(_from, _to, _amount); }\n    }\n\n    /// @notice Helper function that checks for ERC777TokensRecipient on the recipient and calls it.\n    ///  May throw according to `_preventLocking`\n    /// @param _from The address holding the tokens being sent\n    /// @param _to The address of the recipient\n    /// @param _amount The number of tokens to be sent\n    /// @param _userData Data generated by the user to be passed to the recipient\n    /// @param _operatorData Data generated by the operator to be passed to the recipient\n    /// @param _preventLocking `true` if you want this function to throw when tokens are sent to a contract not\n    ///  implementing `ERC777TokensRecipient`.\n    ///  ERC777 native Send functions MUST set this parameter to `true`, and backwards compatible ERC20 transfer\n    ///  functions SHOULD set this parameter to `false`.\n    function callRecipient(\n        address _operator,\n        address _from,\n        address _to,\n        uint256 _amount,\n        bytes _userData,\n        bytes _operatorData,\n        bool _preventLocking\n    ) private {\n        address recipientImplementation = interfaceAddr(_to, \"ERC777TokensRecipient\");\n        if (recipientImplementation != 0) {\n            ERC777TokensRecipient(recipientImplementation).tokensReceived(\n                _operator, _from, _to, _amount, _userData, _operatorData);\n        } else if (_preventLocking) {\n            require(isRegularAddress(_to));\n        }\n    }\n\n    /// @notice Helper function that checks for ERC777TokensSender on the sender and calls it.\n    ///  May throw according to `_preventLocking`\n    /// @param _from The address holding the tokens being sent\n    /// @param _to The address of the recipient\n    /// @param _amount The amount of tokens to be sent\n    /// @param _userData Data generated by the user to be passed to the recipient\n    /// @param _operatorData Data generated by the operator to be passed to the recipient\n    ///  implementing `ERC777TokensSender`.\n    ///  ERC777 native Send functions MUST set this parameter to `true`, and backwards compatible ERC20 transfer\n    ///  functions SHOULD set this parameter to `false`.\n    function callSender(\n        address _operator,\n        address _from,\n        address _to,\n        uint256 _amount,\n        bytes _userData,\n        bytes _operatorData\n    ) private {\n        address senderImplementation = interfaceAddr(_from, \"ERC777TokensSender\");\n        if (senderImplementation != 0) {\n            ERC777TokensSender(senderImplementation).tokensToSend(\n                _operator, _from, _to, _amount, _userData, _operatorData);\n        }\n    }\n}\n",
  "sourcePath": "erc777/contracts/examples/ReferenceToken.sol",
  "compiler": {
    "name": "solc",
    "version": "0.4.21+commit.dfe3193c.Emscripten.clang"
  },
  "schemaVersion": "2.0.0",
  "updatedAt": "2018-05-29T12:21:14.190Z"
}