{
  "contractName": "SidechainToken",
  "abi": [
    {
      "constant": true,
      "inputs": [],
      "name": "name",
      "outputs": [
        {
          "name": "",
          "type": "string"
        }
      ],
      "payable": false,
      "stateMutability": "view",
      "type": "function"
    },
    {
      "constant": false,
      "inputs": [],
      "name": "enableERC20",
      "outputs": [],
      "payable": false,
      "stateMutability": "nonpayable",
      "type": "function"
    },
    {
      "constant": false,
      "inputs": [
        {
          "name": "_spender",
          "type": "address"
        },
        {
          "name": "_amount",
          "type": "uint256"
        }
      ],
      "name": "approve",
      "outputs": [
        {
          "name": "success",
          "type": "bool"
        }
      ],
      "payable": false,
      "stateMutability": "nonpayable",
      "type": "function"
    },
    {
      "constant": true,
      "inputs": [],
      "name": "totalSupply",
      "outputs": [
        {
          "name": "",
          "type": "uint256"
        }
      ],
      "payable": false,
      "stateMutability": "view",
      "type": "function"
    },
    {
      "constant": false,
      "inputs": [
        {
          "name": "_tokenHolder",
          "type": "address"
        },
        {
          "name": "_amount",
          "type": "uint256"
        },
        {
          "name": "_userData",
          "type": "bytes"
        },
        {
          "name": "_operatorData",
          "type": "bytes"
        }
      ],
      "name": "burn",
      "outputs": [],
      "payable": false,
      "stateMutability": "nonpayable",
      "type": "function"
    },
    {
      "constant": false,
      "inputs": [
        {
          "name": "_from",
          "type": "address"
        },
        {
          "name": "_to",
          "type": "address"
        },
        {
          "name": "_amount",
          "type": "uint256"
        }
      ],
      "name": "transferFrom",
      "outputs": [
        {
          "name": "success",
          "type": "bool"
        }
      ],
      "payable": false,
      "stateMutability": "nonpayable",
      "type": "function"
    },
    {
      "constant": true,
      "inputs": [],
      "name": "decimals",
      "outputs": [
        {
          "name": "",
          "type": "uint8"
        }
      ],
      "payable": false,
      "stateMutability": "view",
      "type": "function"
    },
    {
      "constant": true,
      "inputs": [],
      "name": "granularity",
      "outputs": [
        {
          "name": "",
          "type": "uint256"
        }
      ],
      "payable": false,
      "stateMutability": "view",
      "type": "function"
    },
    {
      "constant": false,
      "inputs": [
        {
          "name": "_from",
          "type": "address"
        },
        {
          "name": "_to",
          "type": "address"
        },
        {
          "name": "_amount",
          "type": "uint256"
        },
        {
          "name": "_userData",
          "type": "bytes"
        },
        {
          "name": "_operatorData",
          "type": "bytes"
        }
      ],
      "name": "operatorSend",
      "outputs": [],
      "payable": false,
      "stateMutability": "nonpayable",
      "type": "function"
    },
    {
      "constant": true,
      "inputs": [
        {
          "name": "_tokenHolder",
          "type": "address"
        }
      ],
      "name": "balanceOf",
      "outputs": [
        {
          "name": "",
          "type": "uint256"
        }
      ],
      "payable": false,
      "stateMutability": "view",
      "type": "function"
    },
    {
      "constant": true,
      "inputs": [],
      "name": "owner",
      "outputs": [
        {
          "name": "",
          "type": "address"
        }
      ],
      "payable": false,
      "stateMutability": "view",
      "type": "function"
    },
    {
      "constant": false,
      "inputs": [
        {
          "name": "_tokenHolder",
          "type": "address"
        },
        {
          "name": "_amount",
          "type": "uint256"
        },
        {
          "name": "_operatorData",
          "type": "bytes"
        }
      ],
      "name": "mint",
      "outputs": [],
      "payable": false,
      "stateMutability": "nonpayable",
      "type": "function"
    },
    {
      "constant": false,
      "inputs": [
        {
          "name": "_operator",
          "type": "address"
        }
      ],
      "name": "authorizeOperator",
      "outputs": [],
      "payable": false,
      "stateMutability": "nonpayable",
      "type": "function"
    },
    {
      "constant": true,
      "inputs": [],
      "name": "symbol",
      "outputs": [
        {
          "name": "",
          "type": "string"
        }
      ],
      "payable": false,
      "stateMutability": "view",
      "type": "function"
    },
    {
      "constant": false,
      "inputs": [
        {
          "name": "_to",
          "type": "address"
        },
        {
          "name": "_amount",
          "type": "uint256"
        },
        {
          "name": "_userData",
          "type": "bytes"
        }
      ],
      "name": "send",
      "outputs": [],
      "payable": false,
      "stateMutability": "nonpayable",
      "type": "function"
    },
    {
      "constant": true,
      "inputs": [],
      "name": "bridgeAddress",
      "outputs": [
        {
          "name": "",
          "type": "address"
        }
      ],
      "payable": false,
      "stateMutability": "view",
      "type": "function"
    },
    {
      "constant": false,
      "inputs": [
        {
          "name": "_to",
          "type": "address"
        },
        {
          "name": "_amount",
          "type": "uint256"
        }
      ],
      "name": "transfer",
      "outputs": [
        {
          "name": "success",
          "type": "bool"
        }
      ],
      "payable": false,
      "stateMutability": "nonpayable",
      "type": "function"
    },
    {
      "constant": false,
      "inputs": [
        {
          "name": "_to",
          "type": "address"
        },
        {
          "name": "_amount",
          "type": "uint256"
        }
      ],
      "name": "send",
      "outputs": [],
      "payable": false,
      "stateMutability": "nonpayable",
      "type": "function"
    },
    {
      "constant": true,
      "inputs": [
        {
          "name": "_operator",
          "type": "address"
        },
        {
          "name": "_tokenHolder",
          "type": "address"
        }
      ],
      "name": "isOperatorFor",
      "outputs": [
        {
          "name": "",
          "type": "bool"
        }
      ],
      "payable": false,
      "stateMutability": "view",
      "type": "function"
    },
    {
      "constant": true,
      "inputs": [
        {
          "name": "_owner",
          "type": "address"
        },
        {
          "name": "_spender",
          "type": "address"
        }
      ],
      "name": "allowance",
      "outputs": [
        {
          "name": "remaining",
          "type": "uint256"
        }
      ],
      "payable": false,
      "stateMutability": "view",
      "type": "function"
    },
    {
      "constant": false,
      "inputs": [
        {
          "name": "newOwner",
          "type": "address"
        }
      ],
      "name": "transferOwnership",
      "outputs": [],
      "payable": false,
      "stateMutability": "nonpayable",
      "type": "function"
    },
    {
      "constant": false,
      "inputs": [],
      "name": "disableERC20",
      "outputs": [],
      "payable": false,
      "stateMutability": "nonpayable",
      "type": "function"
    },
    {
      "constant": false,
      "inputs": [
        {
          "name": "_operator",
          "type": "address"
        }
      ],
      "name": "revokeOperator",
      "outputs": [],
      "payable": false,
      "stateMutability": "nonpayable",
      "type": "function"
    },
    {
      "inputs": [
        {
          "name": "_bridgeAddress",
          "type": "address"
        },
        {
          "name": "_name",
          "type": "string"
        },
        {
          "name": "_symbol",
          "type": "string"
        },
        {
          "name": "_granularity",
          "type": "uint256"
        }
      ],
      "payable": false,
      "stateMutability": "nonpayable",
      "type": "constructor"
    },
    {
      "anonymous": false,
      "inputs": [
        {
          "indexed": true,
          "name": "operator",
          "type": "address"
        },
        {
          "indexed": true,
          "name": "from",
          "type": "address"
        },
        {
          "indexed": true,
          "name": "to",
          "type": "address"
        },
        {
          "indexed": false,
          "name": "amount",
          "type": "uint256"
        },
        {
          "indexed": false,
          "name": "userData",
          "type": "bytes"
        },
        {
          "indexed": false,
          "name": "operatorData",
          "type": "bytes"
        }
      ],
      "name": "Sent",
      "type": "event"
    },
    {
      "anonymous": false,
      "inputs": [
        {
          "indexed": true,
          "name": "operator",
          "type": "address"
        },
        {
          "indexed": true,
          "name": "to",
          "type": "address"
        },
        {
          "indexed": false,
          "name": "amount",
          "type": "uint256"
        },
        {
          "indexed": false,
          "name": "operatorData",
          "type": "bytes"
        }
      ],
      "name": "Minted",
      "type": "event"
    },
    {
      "anonymous": false,
      "inputs": [
        {
          "indexed": true,
          "name": "operator",
          "type": "address"
        },
        {
          "indexed": true,
          "name": "from",
          "type": "address"
        },
        {
          "indexed": false,
          "name": "amount",
          "type": "uint256"
        },
        {
          "indexed": false,
          "name": "userData",
          "type": "bytes"
        },
        {
          "indexed": false,
          "name": "operatorData",
          "type": "bytes"
        }
      ],
      "name": "Burned",
      "type": "event"
    },
    {
      "anonymous": false,
      "inputs": [
        {
          "indexed": true,
          "name": "operator",
          "type": "address"
        },
        {
          "indexed": true,
          "name": "tokenHolder",
          "type": "address"
        }
      ],
      "name": "AuthorizedOperator",
      "type": "event"
    },
    {
      "anonymous": false,
      "inputs": [
        {
          "indexed": true,
          "name": "operator",
          "type": "address"
        },
        {
          "indexed": true,
          "name": "tokenHolder",
          "type": "address"
        }
      ],
      "name": "RevokedOperator",
      "type": "event"
    },
    {
      "anonymous": false,
      "inputs": [
        {
          "indexed": true,
          "name": "from",
          "type": "address"
        },
        {
          "indexed": true,
          "name": "to",
          "type": "address"
        },
        {
          "indexed": false,
          "name": "amount",
          "type": "uint256"
        }
      ],
      "name": "Transfer",
      "type": "event"
    },
    {
      "anonymous": false,
      "inputs": [
        {
          "indexed": true,
          "name": "owner",
          "type": "address"
        },
        {
          "indexed": true,
          "name": "spender",
          "type": "address"
        },
        {
          "indexed": false,
          "name": "amount",
          "type": "uint256"
        }
      ],
      "name": "Approval",
      "type": "event"
    },
    {
      "anonymous": false,
      "inputs": [
        {
          "indexed": true,
          "name": "previousOwner",
          "type": "address"
        },
        {
          "indexed": true,
          "name": "newOwner",
          "type": "address"
        }
      ],
      "name": "OwnershipTransferred",
      "type": "event"
    },
    {
      "constant": false,
      "inputs": [
        {
          "name": "_recepient",
          "type": "address"
        },
        {
          "name": "_amount",
          "type": "uint256"
        },
        {
          "name": "_operatorData",
          "type": "bytes"
        }
      ],
      "name": "mintFromBridge",
      "outputs": [],
      "payable": false,
      "stateMutability": "nonpayable",
      "type": "function"
    }
  ],
  "bytecode": "0x606060405260018054600160a060020a03191673991a1bcb077599290d7305493c9a630c20f8b79817905534156200003657600080fd5b60405162001ccb38038062001ccb833981016040528080519190602001805182019190602001805182019190602001805160008054600160a060020a03191633600160a060020a0316179055915084905083838360028380516200009f9291602001906200029c565b506003828051620000b59291602001906200029c565b5060006005556006805460ff19166001908117909155811015620000d857600080fd5b60048190556200012a60408051908101604052600a81527f4552433230546f6b656e00000000000000000000000000000000000000000000602082015230640100000000620010f7620001a682021704565b6200017760408051908101604052600b81527f455243373737546f6b656e000000000000000000000000000000000000000000602082015230640100000000620010f7620001a682021704565b5050600a8054600160a060020a031916600160a060020a03939093169290921790915550620003419350505050565b6000826040518082805190602001908083835b60208310620001da5780518252601f199092019160209182019101620001b9565b6001836020036101000a0380198251168184511617909252505050919091019250604091505051908190039020600154909150600160a060020a03166329965a1d3083856040517c010000000000000000000000000000000000000000000000000000000063ffffffff8616028152600160a060020a03938416600482015260248101929092529091166044820152606401600060405180830381600087803b15156200028657600080fd5b5af115156200029457600080fd5b505050505050565b828054600181600116156101000203166002900490600052602060002090601f016020900481019282601f10620002df57805160ff19168380011785556200030f565b828001600101855582156200030f579182015b828111156200030f578251825591602001919060010190620002f2565b506200031d92915062000321565b5090565b6200033e91905b808211156200031d576000815560010162000328565b90565b61197a80620003516000396000f3006060604052600436106101245763ffffffff60e060020a60003504166306fdde038114610129578063070c87f9146101b3578063095ea7b3146101c85780630cad1263146101fe57806318160ddd14610263578063190a6aa91461028857806323b872dd1461032f578063313ce56714610357578063556f0dc71461038057806362ad1b831461039357806370a08231146104415780638da5cb5b1461046057806394d008ef1461048f578063959b8c3f146104f457806395d89b41146105135780639bd9bbc614610526578063a3c573eb1461058b578063a9059cbb1461059e578063d0679d34146105c0578063d95b6371146105e2578063dd62ed3e14610607578063f2fde38b1461062c578063f922f2161461064b578063fad8b32a1461065e575b600080fd5b341561013457600080fd5b61013c61067d565b60405160208082528190810183818151815260200191508051906020019080838360005b83811015610178578082015183820152602001610160565b50505050905090810190601f1680156101a55780820380516001836020036101000a031916815260200191505b509250505060405180910390f35b34156101be57600080fd5b6101c6610725565b005b34156101d357600080fd5b6101ea600160a060020a036004351660243561078c565b604051901515815260200160405180910390f35b341561020957600080fd5b6101c660048035600160a060020a03169060248035919060649060443590810190830135806020601f8201819004810201604051908101604052818152929190602084018383808284375094965061080a95505050505050565b341561026e57600080fd5b610276610832565b60405190815260200160405180910390f35b341561029357600080fd5b6101c660048035600160a060020a03169060248035919060649060443590810190830135806020601f8201819004810201604051908101604052818152929190602084018383808284378201915050505050509190803590602001908201803590602001908080601f01602080910402602001604051908101604052818152929190602084018383808284375094965061083895505050505050565b341561033a57600080fd5b6101ea600160a060020a0360043581169060243516604435610a42565b341561036257600080fd5b61036a610b24565b60405160ff909116815260200160405180910390f35b341561038b57600080fd5b610276610b3e565b341561039e57600080fd5b6101c6600160a060020a036004803582169160248035909116916044359160849060643590810190830135806020601f8201819004810201604051908101604052818152929190602084018383808284378201915050505050509190803590602001908201803590602001908080601f016020809104026020016040519081016040528181529291906020840183838082843750949650610b4495505050505050565b341561044c57600080fd5b610276600160a060020a0360043516610b70565b341561046b57600080fd5b610473610b8b565b604051600160a060020a03909116815260200160405180910390f35b341561049a57600080fd5b6101c660048035600160a060020a03169060248035919060649060443590810190830135806020601f82018190048102016040519081016040528181529291906020840183838082843750949650610b9a95505050505050565b34156104ff57600080fd5b6101c6600160a060020a0360043516610d48565b341561051e57600080fd5b61013c610dcd565b341561053157600080fd5b6101c660048035600160a060020a03169060248035919060649060443590810190830135806020601f82018190048102016040519081016040528181529291906020840183838082843750949650610e4095505050505050565b341561059657600080fd5b610473610e5e565b34156105a957600080fd5b6101ea600160a060020a0360043516602435610e6d565b34156105cb57600080fd5b6101c6600160a060020a0360043516602435610eb7565b34156105ed57600080fd5b6101ea600160a060020a0360043581169060243516610ee9565b341561061257600080fd5b610276600160a060020a0360043581169060243516610f37565b341561063757600080fd5b6101c6600160a060020a0360043516610f77565b341561065657600080fd5b6101c6611012565b341561066957600080fd5b6101c6600160a060020a0360043516611075565b61068561193c565b60028054600181600116156101000203166002900480601f01602080910402602001604051908101604052809291908181526020018280546001816001161561010002031660029004801561071b5780601f106106f05761010080835404028352916020019161071b565b820191906000526020600020905b8154815290600101906020018083116106fe57829003601f168201915b5050505050905090565b60005433600160a060020a0390811691161461074057600080fd5b6006805460ff1916600117905561078a60408051908101604052600a81527f4552433230546f6b656e000000000000000000000000000000000000000000006020820152306110f7565b565b60065460009060ff1615156107a057600080fd5b600160a060020a03338116600081815260096020908152604080832094881680845294909152908190208590557f8c5be1e5ebec7d5bd14f71427d1e84f3dd0314c0f7b2291e5b200ac8c7c3b9259085905190815260200160405180910390a35060015b92915050565b600a5433600160a060020a0390811691161461082257fe5b61082d838383610b9a565b505050565b60055490565b60005433600160a060020a0390811691161461085357600080fd5b61085c836111d0565b61086b33856000868686611202565b8261087585610b70565b101561088057600080fd5b600160a060020a0384166000908152600760205260409020546108a9908463ffffffff6113b316565b600160a060020a0385166000908152600760205260409020556005546108d5908463ffffffff6113b316565b600555600160a060020a038085169033167fa78a9be3a7b862d26933ad85fb11d80ef66b8f972d7cbba06621d583943a4098858585604051808481526020018060200180602001838103835285818151815260200191508051906020019080838360005b83811015610951578082015183820152602001610939565b50505050905090810190601f16801561097e5780820380516001836020036101000a031916815260200191505b50838103825284818151815260200191508051906020019080838360005b838110156109b457808201518382015260200161099c565b50505050905090810190601f1680156109e15780820380516001836020036101000a031916815260200191505b509550505050505060405180910390a360065460ff1615610a3c57600084600160a060020a03167fddf252ad1be2c89b69c2b068fc378daa952ba7f163c4a11628f55a4df523b3ef8560405190815260200160405180910390a35b50505050565b60065460009060ff161515610a5657600080fd5b600160a060020a0380851660009081526009602090815260408083203390941683529290522054821115610a8957600080fd5b600160a060020a0380851660009081526009602090815260408083203390941683529290522054610ac0908363ffffffff6113b316565b600160a060020a0380861660009081526009602090815260408083203390941683529281529082902092909255610b1a918691869186915190810160405280600081525033602060405190810160405260008082526113c5565b5060019392505050565b60065460009060ff161515610b3857600080fd5b50601290565b60045490565b610b4e3386610ee9565b1515610b5957600080fd5b610b6985858585338660016113c5565b5050505050565b600160a060020a031660009081526007602052604090205490565b600054600160a060020a031681565b60005433600160a060020a03908116911614610bb557600080fd5b610bbe826111d0565b600554610bd1908363ffffffff61162116565b600555600160a060020a038316600090815260076020526040902054610bfd908363ffffffff61162116565b6007600085600160a060020a0316600160a060020a0316815260200190815260200160002081905550610c45336000858560206040519081016040526000815286600161162e565b82600160a060020a031633600160a060020a03167fbcd28e05e57d4bcd5bfcc92a4661d412893e6112c44a2e25d96cfdfc30d5f22e848460405182815260406020820181815290820183818151815260200191508051906020019080838360005b83811015610cbe578082015183820152602001610ca6565b50505050905090810190601f168015610ceb5780820380516001836020036101000a031916815260200191505b50935050505060405180910390a360065460ff161561082d5782600160a060020a031660007fddf252ad1be2c89b69c2b068fc378daa952ba7f163c4a11628f55a4df523b3ef8460405190815260200160405180910390a3505050565b33600160a060020a031681600160a060020a031614151515610d6957600080fd5b600160a060020a038082166000818152600860209081526040808320339095168084529490915290819020805460ff191660011790557ff4caeb2d6ca8932a215a353d0703c326ec2d81fc68170f320eb2ab49e9df61f9905160405180910390a350565b610dd561193c565b60038054600181600116156101000203166002900480601f01602080910402602001604051908101604052809291908181526020018280546001816001161561010002031660029004801561071b5780601f106106f05761010080835404028352916020019161071b565b61082d338484843360206040519081016040526000815260016113c5565b600a54600160a060020a031681565b60065460009060ff161515610e8157600080fd5b610eae338484602060405190810160405280600081525033602060405190810160405260008082526113c5565b50600192915050565b610ee533838360206040519081016040528060008152503360206040519081016040526000815260016113c5565b5050565b600081600160a060020a031683600160a060020a03161480610f305750600160a060020a0380841660009081526008602090815260408083209386168352929052205460ff165b9392505050565b60065460009060ff161515610f4b57600080fd5b50600160a060020a03918216600090815260096020908152604080832093909416825291909152205490565b60005433600160a060020a03908116911614610f9257600080fd5b600160a060020a0381161515610fa757600080fd5b600054600160a060020a0380831691167f8be0079c531659141344cd1fd0a4f28419497f9722a3daafe3b4186f6b6457e060405160405180910390a36000805473ffffffffffffffffffffffffffffffffffffffff1916600160a060020a0392909216919091179055565b60005433600160a060020a0390811691161461102d57600080fd5b6006805460ff1916905561078a60408051908101604052600a81527f4552433230546f6b656e00000000000000000000000000000000000000000000602082015260006110f7565b33600160a060020a031681600160a060020a03161415151561109657600080fd5b600160a060020a038082166000818152600860209081526040808320339095168084529490915290819020805460ff191690557f50546e66e5f44d728365dc3908c63bc5cfeeab470722c1677e3073a6ac294aa1905160405180910390a350565b6000826040518082805190602001908083835b602083106111295780518252601f19909201916020918201910161110a565b6001836020036101000a0380198251168184511617909252505050919091019250604091505051908190039020600154909150600160a060020a03166329965a1d30838560405160e060020a63ffffffff8616028152600160a060020a03938416600482015260248101929092529091166044820152606401600060405180830381600087803b15156111bb57600080fd5b5af115156111c857600080fd5b505050505050565b60045481906111f5906111e9838263ffffffff6117fd16565b9063ffffffff61181216565b146111ff57600080fd5b50565b60006112418660408051908101604052601281527f455243373737546f6b656e7353656e6465720000000000000000000000000000602082015261183b565b9050600160a060020a038116156113aa5780600160a060020a03166375ab978288888888888860405160e060020a63ffffffff8916028152600160a060020a0380881660048301908152878216602484015290861660448301526064820185905260c060848301908152909160a481019060c40185818151815260200191508051906020019080838360005b838110156112e55780820151838201526020016112cd565b50505050905090810190601f1680156113125780820380516001836020036101000a031916815260200191505b50838103825284818151815260200191508051906020019080838360005b83811015611348578082015183820152602001611330565b50505050905090810190601f1680156113755780820380516001836020036101000a031916815260200191505b5098505050505050505050600060405180830381600087803b151561139957600080fd5b5af115156113a657600080fd5b5050505b50505050505050565b6000828211156113bf57fe5b50900390565b6113ce856111d0565b6113dc838888888887611202565b600160a060020a03861615156113f157600080fd5b600160a060020a0387166000908152600760205260409020548590101561141757600080fd5b600160a060020a038716600090815260076020526040902054611440908663ffffffff6113b316565b600160a060020a038089166000908152600760205260408082209390935590881681522054611475908663ffffffff61162116565b600160a060020a03871660009081526007602052604090205561149d8388888888878761162e565b85600160a060020a031687600160a060020a031684600160a060020a03167f06b541ddaa720db2b10a4d0cdac39b8d360425fc073085fac19bc82614677987888887604051808481526020018060200180602001838103835285818151815260200191508051906020019080838360005b8381101561152657808201518382015260200161150e565b50505050905090810190601f1680156115535780820380516001836020036101000a031916815260200191505b50838103825284818151815260200191508051906020019080838360005b83811015611589578082015183820152602001611571565b50505050905090810190601f1680156115b65780820380516001836020036101000a031916815260200191505b509550505050505060405180910390a460065460ff16156113aa5785600160a060020a031687600160a060020a03167fddf252ad1be2c89b69c2b068fc378daa952ba7f163c4a11628f55a4df523b3ef8760405190815260200160405180910390a350505050505050565b8181018281101561080457fe5b600061166d8660408051908101604052601581527f455243373737546f6b656e73526563697069656e740000000000000000000000602082015261183b565b9050600160a060020a038116156117d95780600160a060020a03166223de2989898989898960405160e060020a63ffffffff8916028152600160a060020a0380881660048301908152878216602484015290861660448301526064820185905260c060848301908152909160a481019060c40185818151815260200191508051906020019080838360005b838110156117105780820151838201526020016116f8565b50505050905090810190601f16801561173d5780820380516001836020036101000a031916815260200191505b50838103825284818151815260200191508051906020019080838360005b8381101561177357808201518382015260200161175b565b50505050905090810190601f1680156117a05780820380516001836020036101000a031916815260200191505b5098505050505050505050600060405180830381600087803b15156117c457600080fd5b5af115156117d157600080fd5b5050506117f3565b81156117f3576117e886611912565b15156117f357600080fd5b5050505050505050565b6000818381151561180a57fe5b049392505050565b600082151561182357506000610804565b5081810281838281151561183357fe5b041461080457fe5b600080826040518082805190602001908083835b6020831061186e5780518252601f19909201916020918201910161184f565b6001836020036101000a0380198251168184511617909252505050919091019250604091505051908190039020600154909150600160a060020a031663aabbb8ca858360405160e060020a63ffffffff8516028152600160a060020a0390921660048301526024820152604401602060405180830381600087803b15156118f457600080fd5b5af1151561190157600080fd5b505050604051805195945050505050565b600080600160a060020a038316151561192e5760009150611936565b5050803b8015905b50919050565b602060405190810160405260008152905600a165627a7a7230582075b8d55de626e56e629037e0ec3b5b87229ce687dbe375d6624f1da4b2e55c8f0029",
  "source": "pragma solidity ^0.4.18;\n\nimport 'erc777/contracts/examples/ReferenceToken.sol';\nimport './Bridgeable.sol';\n\ncontract SidechainToken is ReferenceToken,Bridgeable {\n\n\tfunction SidechainToken(\n\t\taddress _bridgeAddress,\n\t\tstring _name,\n        string _symbol,\n        uint256 _granularity\n    ) Bridgeable(_bridgeAddress) ReferenceToken(_name,_symbol,_granularity)\n    \tpublic\n    {}\n\n\tfunction mintFromBridge(address _recepient,uint256 _amount, bytes _operatorData) public onlyBridge {\n\t\tmint(_recepient,_amount, _operatorData);\n\t}\n}\n",
  "sourcePath": "/Users/sponnet/Documents/projects/dbdao/erc20-bridge/contracts/SidechainToken.sol",
  "compiler": {
    "name": "solc",
    "version": "0.4.21+commit.dfe3193c.Emscripten.clang"
  },
  "schemaVersion": "2.0.0",
  "updatedAt": "2018-06-12T12:09:38.575Z"
}