{
  "contractName": "Validatable",
  "abi": [
    {
      "constant": true,
      "inputs": [],
      "name": "validatorCount",
      "outputs": [
        {
          "name": "",
          "type": "uint256"
        }
      ],
      "payable": false,
      "stateMutability": "view",
      "type": "function"
    },
    {
      "constant": true,
      "inputs": [],
      "name": "owner",
      "outputs": [
        {
          "name": "",
          "type": "address"
        }
      ],
      "payable": false,
      "stateMutability": "view",
      "type": "function"
    },
    {
      "constant": false,
      "inputs": [
        {
          "name": "newOwner",
          "type": "address"
        }
      ],
      "name": "transferOwnership",
      "outputs": [],
      "payable": false,
      "stateMutability": "nonpayable",
      "type": "function"
    },
    {
      "constant": true,
      "inputs": [
        {
          "name": "",
          "type": "address"
        }
      ],
      "name": "validators",
      "outputs": [
        {
          "name": "",
          "type": "bool"
        }
      ],
      "payable": false,
      "stateMutability": "view",
      "type": "function"
    },
    {
      "inputs": [
        {
          "name": "_requiredValidators",
          "type": "uint8"
        },
        {
          "name": "_initialValidators",
          "type": "address[]"
        }
      ],
      "payable": false,
      "stateMutability": "nonpayable",
      "type": "constructor"
    },
    {
      "anonymous": false,
      "inputs": [
        {
          "indexed": false,
          "name": "validator",
          "type": "address"
        }
      ],
      "name": "ValidatorAdded",
      "type": "event"
    },
    {
      "anonymous": false,
      "inputs": [
        {
          "indexed": false,
          "name": "validator",
          "type": "address"
        }
      ],
      "name": "ValidatorRemoved",
      "type": "event"
    },
    {
      "anonymous": false,
      "inputs": [
        {
          "indexed": true,
          "name": "previousOwner",
          "type": "address"
        },
        {
          "indexed": true,
          "name": "newOwner",
          "type": "address"
        }
      ],
      "name": "OwnershipTransferred",
      "type": "event"
    },
    {
      "constant": false,
      "inputs": [
        {
          "name": "_validator",
          "type": "address"
        }
      ],
      "name": "addValidator",
      "outputs": [],
      "payable": false,
      "stateMutability": "nonpayable",
      "type": "function"
    },
    {
      "constant": false,
      "inputs": [
        {
          "name": "_validator",
          "type": "address"
        }
      ],
      "name": "removeValidator",
      "outputs": [],
      "payable": false,
      "stateMutability": "nonpayable",
      "type": "function"
    },
    {
      "constant": false,
      "inputs": [
        {
          "name": "_requiredValidators",
          "type": "uint8"
        }
      ],
      "name": "setRequiredValidators",
      "outputs": [],
      "payable": false,
      "stateMutability": "nonpayable",
      "type": "function"
    },
    {
      "constant": true,
      "inputs": [
        {
          "name": "_validator",
          "type": "address"
        }
      ],
      "name": "isValidator",
      "outputs": [
        {
          "name": "",
          "type": "bool"
        }
      ],
      "payable": false,
      "stateMutability": "view",
      "type": "function"
    }
  ],
  "bytecode": "0x60606040526000805460a060020a60ff0219168155600155341561002257600080fd5b604051610723380380610723833981016040528080519190602001805160008054600160a060020a03191633600160a060020a0316178155920191905060ff8316151561006e57600080fd5b8260ff168251101561007f57600080fd5b5060005b8151811015610121576100b782828151811061009b57fe5b9060200190602002015164010000000061044a61014582021704565b1580156100e3575060008282815181106100cd57fe5b90602001906020020151600160a060020a031614155b15156100ee57600080fd5b6101198282815181106100fd57fe5b9060200190602002015164010000000061026a61016882021704565b600101610083565b6101378364010000000061032a61021982021704565b81516001555061027b915050565b600160a060020a031660009081526002602052604090205460ff16151560011490565b60005433600160a060020a0390811691161461018357600080fd5b600160a060020a03811660009081526002602052604090205460ff161515600114156101ab57fe5b600160a060020a03811660009081526002602052604090819020805460ff191660019081179091558054810190557fe366c1c0452ed8eec96861e9e54141ebff23c9ec89fe27b996b45f5ec388498790829051600160a060020a03909116815260200160405180910390a150565b60005433600160a060020a0390811691161461023457600080fd5b60015460ff821690101561024757600080fd5b6000805460ff909216740100000000000000000000000000000000000000000260a060020a60ff0219909216919091179055565b6104998061028a6000396000f30060606040526004361061008d5763ffffffff7c01000000000000000000000000000000000000000000000000000000006000350416630f43a677811461009257806340a141ff146100b75780634d238c8e146100d85780638da5cb5b146100f7578063d2ddc50914610126578063f2fde38b1461013f578063fa52c7d81461015e578063facd743b14610191575b600080fd5b341561009d57600080fd5b6100a56101b0565b60405190815260200160405180910390f35b34156100c257600080fd5b6100d6600160a060020a03600435166101b6565b005b34156100e357600080fd5b6100d6600160a060020a036004351661026a565b341561010257600080fd5b61010a61031b565b604051600160a060020a03909116815260200160405180910390f35b341561013157600080fd5b6100d660ff6004351661032a565b341561014a57600080fd5b6100d6600160a060020a036004351661039a565b341561016957600080fd5b61017d600160a060020a0360043516610435565b604051901515815260200160405180910390f35b341561019c57600080fd5b61017d600160a060020a036004351661044a565b60015481565b60005433600160a060020a039081169116146101d157600080fd5b6000546001547401000000000000000000000000000000000000000090910460ff1690116101fe57600080fd5b600160a060020a03811660009081526002602052604090819020805460ff19169055600180546000190190557fe1434e25d6611e0db941968fdc97811c982ac1602e951637d206f5fdda9dd8f190829051600160a060020a03909116815260200160405180910390a150565b60005433600160a060020a0390811691161461028557600080fd5b600160a060020a03811660009081526002602052604090205460ff161515600114156102ad57fe5b600160a060020a03811660009081526002602052604090819020805460ff191660019081179091558054810190557fe366c1c0452ed8eec96861e9e54141ebff23c9ec89fe27b996b45f5ec388498790829051600160a060020a03909116815260200160405180910390a150565b600054600160a060020a031681565b60005433600160a060020a0390811691161461034557600080fd5b60015460ff821690101561035857600080fd5b6000805460ff909216740100000000000000000000000000000000000000000274ff000000000000000000000000000000000000000019909216919091179055565b60005433600160a060020a039081169116146103b557600080fd5b600160a060020a03811615156103ca57600080fd5b600054600160a060020a0380831691167f8be0079c531659141344cd1fd0a4f28419497f9722a3daafe3b4186f6b6457e060405160405180910390a36000805473ffffffffffffffffffffffffffffffffffffffff1916600160a060020a0392909216919091179055565b60026020526000908152604090205460ff1681565b600160a060020a031660009081526002602052604090205460ff161515600114905600a165627a7a723058208787de1add29efc3834b43b9a584d7035db282ab661f14cbed37a23c9108bd9d0029",
  "source": "pragma solidity ^0.4.18;\n\nimport 'openzeppelin-solidity/contracts/ownership/Ownable.sol';\n\ncontract Validatable is Ownable {\n\n\t// Event created on validator gets added\n\tevent ValidatorAdded (address validator);\n\tevent ValidatorRemoved (address validator);\n\tuint8 requiredValidators = 0;\n\tuint256 public validatorCount = 0;\n\n\tmapping (address=>bool) public validators;\n\n\tfunction Validatable(uint8 _requiredValidators,address[] _initialValidators) public {\n\t\trequire(_requiredValidators != 0);\n\t\trequire(_initialValidators.length >= _requiredValidators);\n        \tfor (uint i = 0; i < _initialValidators.length; i++) {\n\t        \trequire(!isValidator(_initialValidators[i]) && _initialValidators[i] != address(0));\n\t        \taddValidator(_initialValidators[i]);\n\t        }\n        setRequiredValidators(_requiredValidators);\n\t\tvalidatorCount = _initialValidators.length;\n\t}\n\n\tfunction addValidator(address _validator)  public onlyOwner {\n\t\tassert(validators[_validator] != true);\n\t\tvalidators[_validator] = true;\n\t\tvalidatorCount++;\n\t\temit ValidatorAdded(_validator);\n\t}\n\n\tfunction removeValidator(address _validator) public onlyOwner {\n\t\trequire(validatorCount > requiredValidators);\n\t\tvalidators[_validator] = false;\n\t\tvalidatorCount--;\n\t\temit ValidatorRemoved(_validator);\n\t}\n\n\tfunction setRequiredValidators(uint8 _requiredValidators) public onlyOwner {\n\t\trequire(validatorCount >= _requiredValidators);\n\t\trequiredValidators = _requiredValidators;\n\t}\n\n\tfunction isValidator(address _validator) public view returns(bool) {\n\t\treturn (validators[_validator] == true);\n\t}\n\n\tmodifier onlyValidator(address _validator) {\n\t\tassert(validators[_validator] == true);\n\t\t_;\n\t}\t\n}\n",
  "sourcePath": "/Users/jodus/Projecten/settlemint/erc20-bridge/contracts/Validatable.sol",
  "compiler": {
    "name": "solc",
    "version": "0.4.21+commit.dfe3193c.Emscripten.clang"
  },
  "schemaVersion": "2.0.0",
  "updatedAt": "2018-07-11T16:33:44.877Z"
}