{
  "contractName": "Validatable",
  "abi": [
    {
      "constant": true,
      "inputs": [],
      "name": "validatorCount",
      "outputs": [
        {
          "name": "",
          "type": "uint256"
        }
      ],
      "payable": false,
      "stateMutability": "view",
      "type": "function"
    },
    {
      "constant": false,
      "inputs": [],
      "name": "renounceOwnership",
      "outputs": [],
      "payable": false,
      "stateMutability": "nonpayable",
      "type": "function"
    },
    {
      "constant": true,
      "inputs": [],
      "name": "owner",
      "outputs": [
        {
          "name": "",
          "type": "address"
        }
      ],
      "payable": false,
      "stateMutability": "view",
      "type": "function"
    },
    {
      "constant": true,
      "inputs": [],
      "name": "requiredValidators",
      "outputs": [
        {
          "name": "",
          "type": "uint8"
        }
      ],
      "payable": false,
      "stateMutability": "view",
      "type": "function"
    },
    {
      "constant": false,
      "inputs": [
        {
          "name": "_newOwner",
          "type": "address"
        }
      ],
      "name": "transferOwnership",
      "outputs": [],
      "payable": false,
      "stateMutability": "nonpayable",
      "type": "function"
    },
    {
      "constant": true,
      "inputs": [
        {
          "name": "",
          "type": "address"
        }
      ],
      "name": "validators",
      "outputs": [
        {
          "name": "",
          "type": "bool"
        }
      ],
      "payable": false,
      "stateMutability": "view",
      "type": "function"
    },
    {
      "inputs": [
        {
          "name": "_requiredValidators",
          "type": "uint8"
        },
        {
          "name": "_initialValidators",
          "type": "address[]"
        }
      ],
      "payable": false,
      "stateMutability": "nonpayable",
      "type": "constructor"
    },
    {
      "anonymous": false,
      "inputs": [
        {
          "indexed": false,
          "name": "validator",
          "type": "address"
        }
      ],
      "name": "ValidatorAdded",
      "type": "event"
    },
    {
      "anonymous": false,
      "inputs": [
        {
          "indexed": false,
          "name": "validator",
          "type": "address"
        }
      ],
      "name": "ValidatorRemoved",
      "type": "event"
    },
    {
      "anonymous": false,
      "inputs": [
        {
          "indexed": true,
          "name": "previousOwner",
          "type": "address"
        }
      ],
      "name": "OwnershipRenounced",
      "type": "event"
    },
    {
      "anonymous": false,
      "inputs": [
        {
          "indexed": true,
          "name": "previousOwner",
          "type": "address"
        },
        {
          "indexed": true,
          "name": "newOwner",
          "type": "address"
        }
      ],
      "name": "OwnershipTransferred",
      "type": "event"
    },
    {
      "constant": false,
      "inputs": [
        {
          "name": "_validator",
          "type": "address"
        }
      ],
      "name": "addValidator",
      "outputs": [],
      "payable": false,
      "stateMutability": "nonpayable",
      "type": "function"
    },
    {
      "constant": false,
      "inputs": [
        {
          "name": "_validator",
          "type": "address"
        }
      ],
      "name": "removeValidator",
      "outputs": [],
      "payable": false,
      "stateMutability": "nonpayable",
      "type": "function"
    },
    {
      "constant": false,
      "inputs": [
        {
          "name": "_requiredValidators",
          "type": "uint8"
        }
      ],
      "name": "setRequiredValidators",
      "outputs": [],
      "payable": false,
      "stateMutability": "nonpayable",
      "type": "function"
    },
    {
      "constant": true,
      "inputs": [
        {
          "name": "_validator",
          "type": "address"
        }
      ],
      "name": "isValidator",
      "outputs": [
        {
          "name": "",
          "type": "bool"
        }
      ],
      "payable": false,
      "stateMutability": "view",
      "type": "function"
    }
  ],
  "bytecode": "0x60806040526000805460a060020a60ff021916815560015534801561002357600080fd5b506040516107df3803806107df833981016040528051602082015160008054600160a060020a031916331781559192019060ff8316151561006357600080fd5b815160ff8416111561007457600080fd5b5060005b8151811015610121576100b0828281518110151561009257fe5b9060200190602002015161013e640100000000026401000000009004565b1580156100df575081516000908390839081106100c957fe5b90602001906020020151600160a060020a031614155b15156100ea57600080fd5b61011982828151811015156100fb57fe5b90602001906020020151610161640100000000026401000000009004565b600101610078565b61013383640100000000610204810204565b505160015550610261565b600160a060020a031660009081526002602052604090205460ff16151560011490565b600054600160a060020a0316331461017857600080fd5b600160a060020a03811660009081526002602052604090205460ff161515600114156101a057fe5b600160a060020a038116600081815260026020908152604091829020805460ff19166001908117909155805481019055815192835290517fe366c1c0452ed8eec96861e9e54141ebff23c9ec89fe27b996b45f5ec38849879281900390910190a150565b600054600160a060020a0316331461021b57600080fd5b60015460ff8216111561022d57600080fd5b6000805460ff909216740100000000000000000000000000000000000000000260a060020a60ff0219909216919091179055565b61056f806102706000396000f3006080604052600436106100a35763ffffffff7c01000000000000000000000000000000000000000000000000000000006000350416630f43a67781146100a857806340a141ff146100cf5780634d238c8e146100f2578063715018a6146101135780638da5cb5b1461012857806397c875dd14610159578063d2ddc50914610184578063f2fde38b1461019f578063fa52c7d8146101c0578063facd743b146101f5575b600080fd5b3480156100b457600080fd5b506100bd610216565b60408051918252519081900360200190f35b3480156100db57600080fd5b506100f0600160a060020a036004351661021c565b005b3480156100fe57600080fd5b506100f0600160a060020a03600435166102c1565b34801561011f57600080fd5b506100f0610364565b34801561013457600080fd5b5061013d6103d0565b60408051600160a060020a039092168252519081900360200190f35b34801561016557600080fd5b5061016e6103df565b6040805160ff9092168252519081900360200190f35b34801561019057600080fd5b506100f060ff60043516610400565b3480156101ab57600080fd5b506100f0600160a060020a036004351661046b565b3480156101cc57600080fd5b506101e1600160a060020a036004351661048e565b604080519115158252519081900360200190f35b34801561020157600080fd5b506101e1600160a060020a03600435166104a3565b60015481565b600054600160a060020a0316331461023357600080fd5b6000546001547401000000000000000000000000000000000000000090910460ff161061025f57600080fd5b600160a060020a038116600081815260026020908152604091829020805460ff1916905560018054600019019055815192835290517fe1434e25d6611e0db941968fdc97811c982ac1602e951637d206f5fdda9dd8f19281900390910190a150565b600054600160a060020a031633146102d857600080fd5b600160a060020a03811660009081526002602052604090205460ff1615156001141561030057fe5b600160a060020a038116600081815260026020908152604091829020805460ff19166001908117909155805481019055815192835290517fe366c1c0452ed8eec96861e9e54141ebff23c9ec89fe27b996b45f5ec38849879281900390910190a150565b600054600160a060020a0316331461037b57600080fd5b60008054604051600160a060020a03909116917ff8df31144d9c2f0f6b59d69b8b98abd5459d07f2742c4df920b25aae33c6482091a26000805473ffffffffffffffffffffffffffffffffffffffff19169055565b600054600160a060020a031681565b60005474010000000000000000000000000000000000000000900460ff1681565b600054600160a060020a0316331461041757600080fd5b60015460ff8216111561042957600080fd5b6000805460ff909216740100000000000000000000000000000000000000000274ff000000000000000000000000000000000000000019909216919091179055565b600054600160a060020a0316331461048257600080fd5b61048b816104c6565b50565b60026020526000908152604090205460ff1681565b600160a060020a031660009081526002602052604090205460ff16151560011490565b600160a060020a03811615156104db57600080fd5b60008054604051600160a060020a03808516939216917f8be0079c531659141344cd1fd0a4f28419497f9722a3daafe3b4186f6b6457e091a36000805473ffffffffffffffffffffffffffffffffffffffff1916600160a060020a03929092169190911790555600a165627a7a7230582038a49d96132bf77b538c18cc47f2642c45b989a1086b446c1367e6086e3cd1a00029",
  "source": "pragma solidity ^0.4.18;\n\nimport './external/Ownable.sol';\n\ncontract Validatable is Ownable {\n\n\t// Event created on validator gets added\n\tevent ValidatorAdded (address validator);\n\tevent ValidatorRemoved (address validator);\n\tuint8 public requiredValidators = 0;\n\tuint256 public validatorCount = 0;\n\n\tmapping (address=>bool) public validators;\n\n\tfunction Validatable(uint8 _requiredValidators,address[] _initialValidators) public {\n\t\trequire(_requiredValidators != 0);\n\t\trequire(_initialValidators.length >= _requiredValidators);\n        \tfor (uint i = 0; i < _initialValidators.length; i++) {\n\t        \trequire(!isValidator(_initialValidators[i]) && _initialValidators[i] != address(0));\n\t        \taddValidator(_initialValidators[i]);\n\t        }\n        setRequiredValidators(_requiredValidators);\n\t\tvalidatorCount = _initialValidators.length;\n\t}\n\n\tfunction addValidator(address _validator)  public onlyOwner {\n\t\tassert(validators[_validator] != true);\n\t\tvalidators[_validator] = true;\n\t\tvalidatorCount++;\n\t\temit ValidatorAdded(_validator);\n\t}\n\n\tfunction removeValidator(address _validator) public onlyOwner {\n\t\trequire(validatorCount > requiredValidators);\n\t\tvalidators[_validator] = false;\n\t\tvalidatorCount--;\n\t\temit ValidatorRemoved(_validator);\n\t}\n\n\tfunction setRequiredValidators(uint8 _requiredValidators) public onlyOwner {\n\t\trequire(validatorCount >= _requiredValidators);\n\t\trequiredValidators = _requiredValidators;\n\t}\n\n\tfunction isValidator(address _validator) public view returns(bool) {\n\t\treturn (validators[_validator] == true);\n\t}\n\n\tmodifier onlyValidator(address _validator) {\n\t\tassert(validators[_validator] == true);\n\t\t_;\n\t}\t\n}\n",
  "sourcePath": "/Users/thomas/Projecten/bridge/erc20-bridge/contracts/Validatable.sol",
  "compiler": {
    "name": "solc",
    "version": "0.4.24+commit.e67f0147.Emscripten.clang"
  },
  "schemaVersion": "2.0.1",
  "updatedAt": "2018-08-02T09:45:03.827Z"
}