{
  "contractName": "Validatable",
  "abi": [
    {
      "constant": true,
      "inputs": [],
      "name": "validatorCount",
      "outputs": [
        {
          "name": "",
          "type": "uint256"
        }
      ],
      "payable": false,
      "stateMutability": "view",
      "type": "function"
    },
    {
      "constant": true,
      "inputs": [],
      "name": "owner",
      "outputs": [
        {
          "name": "",
          "type": "address"
        }
      ],
      "payable": false,
      "stateMutability": "view",
      "type": "function"
    },
    {
      "constant": true,
      "inputs": [],
      "name": "requiredValidators",
      "outputs": [
        {
          "name": "",
          "type": "uint8"
        }
      ],
      "payable": false,
      "stateMutability": "view",
      "type": "function"
    },
    {
      "constant": false,
      "inputs": [
        {
          "name": "newOwner",
          "type": "address"
        }
      ],
      "name": "transferOwnership",
      "outputs": [],
      "payable": false,
      "stateMutability": "nonpayable",
      "type": "function"
    },
    {
      "constant": true,
      "inputs": [
        {
          "name": "",
          "type": "address"
        }
      ],
      "name": "validators",
      "outputs": [
        {
          "name": "",
          "type": "bool"
        }
      ],
      "payable": false,
      "stateMutability": "view",
      "type": "function"
    },
    {
      "inputs": [
        {
          "name": "_requiredValidators",
          "type": "uint8"
        },
        {
          "name": "_initialValidators",
          "type": "address[]"
        }
      ],
      "payable": false,
      "stateMutability": "nonpayable",
      "type": "constructor"
    },
    {
      "anonymous": false,
      "inputs": [
        {
          "indexed": false,
          "name": "validator",
          "type": "address"
        }
      ],
      "name": "ValidatorAdded",
      "type": "event"
    },
    {
      "anonymous": false,
      "inputs": [
        {
          "indexed": false,
          "name": "validator",
          "type": "address"
        }
      ],
      "name": "ValidatorRemoved",
      "type": "event"
    },
    {
      "anonymous": false,
      "inputs": [
        {
          "indexed": true,
          "name": "previousOwner",
          "type": "address"
        },
        {
          "indexed": true,
          "name": "newOwner",
          "type": "address"
        }
      ],
      "name": "OwnershipTransferred",
      "type": "event"
    },
    {
      "constant": false,
      "inputs": [
        {
          "name": "_validator",
          "type": "address"
        }
      ],
      "name": "addValidator",
      "outputs": [],
      "payable": false,
      "stateMutability": "nonpayable",
      "type": "function"
    },
    {
      "constant": false,
      "inputs": [
        {
          "name": "_validator",
          "type": "address"
        }
      ],
      "name": "removeValidator",
      "outputs": [],
      "payable": false,
      "stateMutability": "nonpayable",
      "type": "function"
    },
    {
      "constant": false,
      "inputs": [
        {
          "name": "_requiredValidators",
          "type": "uint8"
        }
      ],
      "name": "setRequiredValidators",
      "outputs": [],
      "payable": false,
      "stateMutability": "nonpayable",
      "type": "function"
    },
    {
      "constant": true,
      "inputs": [
        {
          "name": "_validator",
          "type": "address"
        }
      ],
      "name": "isValidator",
      "outputs": [
        {
          "name": "",
          "type": "bool"
        }
      ],
      "payable": false,
      "stateMutability": "view",
      "type": "function"
    }
  ],
  "bytecode": "0x60606040526000805460a060020a60ff0219168155600155341561002257600080fd5b604051610778380380610778833981016040528080519190602001805160008054600160a060020a03191633600160a060020a0316178155920191905060ff8316151561006e57600080fd5b8260ff168251101561007f57600080fd5b5060005b8151811015610121576100b782828151811061009b57fe5b9060200190602002015164010000000061049f61014582021704565b1580156100e3575060008282815181106100cd57fe5b90602001906020020151600160a060020a031614155b15156100ee57600080fd5b6101198282815181106100fd57fe5b9060200190602002015164010000000061029e61016882021704565b600101610083565b6101378364010000000061037f61021982021704565b81516001555061027b915050565b600160a060020a031660009081526002602052604090205460ff16151560011490565b60005433600160a060020a0390811691161461018357600080fd5b600160a060020a03811660009081526002602052604090205460ff161515600114156101ab57fe5b600160a060020a03811660009081526002602052604090819020805460ff191660019081179091558054810190557fe366c1c0452ed8eec96861e9e54141ebff23c9ec89fe27b996b45f5ec388498790829051600160a060020a03909116815260200160405180910390a150565b60005433600160a060020a0390811691161461023457600080fd5b60015460ff821690101561024757600080fd5b6000805460ff909216740100000000000000000000000000000000000000000260a060020a60ff0219909216919091179055565b6104ee8061028a6000396000f3006060604052600436106100985763ffffffff7c01000000000000000000000000000000000000000000000000000000006000350416630f43a677811461009d57806340a141ff146100c25780634d238c8e146100e35780638da5cb5b1461010257806397c875dd14610131578063d2ddc5091461015a578063f2fde38b14610173578063fa52c7d814610192578063facd743b146101c5575b600080fd5b34156100a857600080fd5b6100b06101e4565b60405190815260200160405180910390f35b34156100cd57600080fd5b6100e1600160a060020a03600435166101ea565b005b34156100ee57600080fd5b6100e1600160a060020a036004351661029e565b341561010d57600080fd5b61011561034f565b604051600160a060020a03909116815260200160405180910390f35b341561013c57600080fd5b61014461035e565b60405160ff909116815260200160405180910390f35b341561016557600080fd5b6100e160ff6004351661037f565b341561017e57600080fd5b6100e1600160a060020a03600435166103ef565b341561019d57600080fd5b6101b1600160a060020a036004351661048a565b604051901515815260200160405180910390f35b34156101d057600080fd5b6101b1600160a060020a036004351661049f565b60015481565b60005433600160a060020a0390811691161461020557600080fd5b6000546001547401000000000000000000000000000000000000000090910460ff16901161023257600080fd5b600160a060020a03811660009081526002602052604090819020805460ff19169055600180546000190190557fe1434e25d6611e0db941968fdc97811c982ac1602e951637d206f5fdda9dd8f190829051600160a060020a03909116815260200160405180910390a150565b60005433600160a060020a039081169116146102b957600080fd5b600160a060020a03811660009081526002602052604090205460ff161515600114156102e157fe5b600160a060020a03811660009081526002602052604090819020805460ff191660019081179091558054810190557fe366c1c0452ed8eec96861e9e54141ebff23c9ec89fe27b996b45f5ec388498790829051600160a060020a03909116815260200160405180910390a150565b600054600160a060020a031681565b60005474010000000000000000000000000000000000000000900460ff1681565b60005433600160a060020a0390811691161461039a57600080fd5b60015460ff82169010156103ad57600080fd5b6000805460ff909216740100000000000000000000000000000000000000000274ff000000000000000000000000000000000000000019909216919091179055565b60005433600160a060020a0390811691161461040a57600080fd5b600160a060020a038116151561041f57600080fd5b600054600160a060020a0380831691167f8be0079c531659141344cd1fd0a4f28419497f9722a3daafe3b4186f6b6457e060405160405180910390a36000805473ffffffffffffffffffffffffffffffffffffffff1916600160a060020a0392909216919091179055565b60026020526000908152604090205460ff1681565b600160a060020a031660009081526002602052604090205460ff161515600114905600a165627a7a7230582099a153507f9955e00858ccefcade8382d4e5f7ac1e02217f438c306a532acc310029",
  "source": "pragma solidity ^0.4.18;\n\nimport 'openzeppelin-solidity/contracts/ownership/Ownable.sol';\n\ncontract Validatable is Ownable {\n\n\t// Event created on validator gets added\n\tevent ValidatorAdded (address validator);\n\tevent ValidatorRemoved (address validator);\n\tuint8 public requiredValidators = 0;\n\tuint256 public validatorCount = 0;\n\n\tmapping (address=>bool) public validators;\n\n\tfunction Validatable(uint8 _requiredValidators,address[] _initialValidators) public {\n\t\trequire(_requiredValidators != 0);\n\t\trequire(_initialValidators.length >= _requiredValidators);\n        \tfor (uint i = 0; i < _initialValidators.length; i++) {\n\t        \trequire(!isValidator(_initialValidators[i]) && _initialValidators[i] != address(0));\n\t        \taddValidator(_initialValidators[i]);\n\t        }\n        setRequiredValidators(_requiredValidators);\n\t\tvalidatorCount = _initialValidators.length;\n\t}\n\n\tfunction addValidator(address _validator)  public onlyOwner {\n\t\tassert(validators[_validator] != true);\n\t\tvalidators[_validator] = true;\n\t\tvalidatorCount++;\n\t\temit ValidatorAdded(_validator);\n\t}\n\n\tfunction removeValidator(address _validator) public onlyOwner {\n\t\trequire(validatorCount > requiredValidators);\n\t\tvalidators[_validator] = false;\n\t\tvalidatorCount--;\n\t\temit ValidatorRemoved(_validator);\n\t}\n\n\tfunction setRequiredValidators(uint8 _requiredValidators) public onlyOwner {\n\t\trequire(validatorCount >= _requiredValidators);\n\t\trequiredValidators = _requiredValidators;\n\t}\n\n\tfunction isValidator(address _validator) public view returns(bool) {\n\t\treturn (validators[_validator] == true);\n\t}\n\n\tmodifier onlyValidator(address _validator) {\n\t\tassert(validators[_validator] == true);\n\t\t_;\n\t}\t\n}\n",
  "sourcePath": "/Users/thomas/Projecten/bridge/erc20-bridge/contracts/Validatable.sol",
  "compiler": {
    "name": "solc",
    "version": "0.4.21+commit.dfe3193c.Emscripten.clang"
  },
  "schemaVersion": "2.0.0",
  "updatedAt": "2018-07-20T07:25:21.216Z"
}