{
  "contractName": "Validatable",
  "abi": [
    {
      "constant": true,
      "inputs": [],
      "name": "validatorCount",
      "outputs": [
        {
          "name": "",
          "type": "uint256"
        }
      ],
      "payable": false,
      "stateMutability": "view",
      "type": "function"
    },
    {
      "constant": true,
      "inputs": [],
      "name": "owner",
      "outputs": [
        {
          "name": "",
          "type": "address"
        }
      ],
      "payable": false,
      "stateMutability": "view",
      "type": "function"
    },
    {
      "constant": false,
      "inputs": [
        {
          "name": "newOwner",
          "type": "address"
        }
      ],
      "name": "transferOwnership",
      "outputs": [],
      "payable": false,
      "stateMutability": "nonpayable",
      "type": "function"
    },
    {
      "constant": true,
      "inputs": [
        {
          "name": "",
          "type": "address"
        }
      ],
      "name": "validators",
      "outputs": [
        {
          "name": "",
          "type": "bool"
        }
      ],
      "payable": false,
      "stateMutability": "view",
      "type": "function"
    },
    {
      "inputs": [
        {
          "name": "_requiredValidators",
          "type": "uint8"
        },
        {
          "name": "_initialValidators",
          "type": "address[]"
        }
      ],
      "payable": false,
      "stateMutability": "nonpayable",
      "type": "constructor"
    },
    {
      "anonymous": false,
      "inputs": [
        {
          "indexed": false,
          "name": "validator",
          "type": "address"
        }
      ],
      "name": "ValidatorAdded",
      "type": "event"
    },
    {
      "anonymous": false,
      "inputs": [
        {
          "indexed": false,
          "name": "validator",
          "type": "address"
        }
      ],
      "name": "ValidatorRemoved",
      "type": "event"
    },
    {
      "anonymous": false,
      "inputs": [
        {
          "indexed": true,
          "name": "previousOwner",
          "type": "address"
        },
        {
          "indexed": true,
          "name": "newOwner",
          "type": "address"
        }
      ],
      "name": "OwnershipTransferred",
      "type": "event"
    },
    {
      "constant": false,
      "inputs": [
        {
          "name": "_validator",
          "type": "address"
        }
      ],
      "name": "addValidator",
      "outputs": [],
      "payable": false,
      "stateMutability": "nonpayable",
      "type": "function"
    },
    {
      "constant": false,
      "inputs": [
        {
          "name": "_validator",
          "type": "address"
        }
      ],
      "name": "removeValidator",
      "outputs": [],
      "payable": false,
      "stateMutability": "nonpayable",
      "type": "function"
    },
    {
      "constant": false,
      "inputs": [
        {
          "name": "_requiredValidators",
          "type": "uint8"
        }
      ],
      "name": "setRequiredValidators",
      "outputs": [],
      "payable": false,
      "stateMutability": "nonpayable",
      "type": "function"
    },
    {
      "constant": true,
      "inputs": [
        {
          "name": "_validator",
          "type": "address"
        }
      ],
      "name": "isValidator",
      "outputs": [
        {
          "name": "",
          "type": "bool"
        }
      ],
      "payable": false,
      "stateMutability": "view",
      "type": "function"
    }
  ],
  "bytecode": "0x606060405260008060146101000a81548160ff021916908360ff1602179055506000600155341561002f57600080fd5b604051610c56380380610c56833981016040528080519060200190919080518201919050506000336000806101000a81548173ffffffffffffffffffffffffffffffffffffffff021916908373ffffffffffffffffffffffffffffffffffffffff16021790555060008360ff16141515156100a957600080fd5b8260ff168251101515156100bc57600080fd5b600090505b8151811015610199576100fd82828151811015156100db57fe5b906020019060200201516101c564010000000002610787176401000000009004565b15801561014e5750600073ffffffffffffffffffffffffffffffffffffffff16828281518110151561012b57fe5b9060200190602002015173ffffffffffffffffffffffffffffffffffffffff1614155b151561015957600080fd5b61018c828281518110151561016a57fe5b90602001906020020151610222640100000000026103d8176401000000009004565b80806001019150506100c1565b6101b5836103aa64010000000002610585176401000000009004565b8151600181905550505050610437565b600060011515600260008473ffffffffffffffffffffffffffffffffffffffff1673ffffffffffffffffffffffffffffffffffffffff16815260200190815260200160002060009054906101000a900460ff161515149050919050565b6000809054906101000a900473ffffffffffffffffffffffffffffffffffffffff1673ffffffffffffffffffffffffffffffffffffffff163373ffffffffffffffffffffffffffffffffffffffff1614151561027d57600080fd5b60011515600260008373ffffffffffffffffffffffffffffffffffffffff1673ffffffffffffffffffffffffffffffffffffffff16815260200190815260200160002060009054906101000a900460ff161515141515156102da57fe5b6001600260008373ffffffffffffffffffffffffffffffffffffffff1673ffffffffffffffffffffffffffffffffffffffff16815260200190815260200160002060006101000a81548160ff0219169083151502179055506001600081548092919060010191905055507fe366c1c0452ed8eec96861e9e54141ebff23c9ec89fe27b996b45f5ec388498781604051808273ffffffffffffffffffffffffffffffffffffffff1673ffffffffffffffffffffffffffffffffffffffff16815260200191505060405180910390a150565b6000809054906101000a900473ffffffffffffffffffffffffffffffffffffffff1673ffffffffffffffffffffffffffffffffffffffff163373ffffffffffffffffffffffffffffffffffffffff1614151561040557600080fd5b8060ff166001541015151561041957600080fd5b80600060146101000a81548160ff021916908360ff16021790555050565b610810806104466000396000f30060606040526004361061008e576000357c0100000000000000000000000000000000000000000000000000000000900463ffffffff1680630f43a6771461009357806340a141ff146100bc5780634d238c8e146100f55780638da5cb5b1461012e578063d2ddc50914610183578063f2fde38b146101a9578063fa52c7d8146101e2578063facd743b14610233575b600080fd5b341561009e57600080fd5b6100a6610284565b6040518082815260200191505060405180910390f35b34156100c757600080fd5b6100f3600480803573ffffffffffffffffffffffffffffffffffffffff1690602001909190505061028a565b005b341561010057600080fd5b61012c600480803573ffffffffffffffffffffffffffffffffffffffff169060200190919050506103d8565b005b341561013957600080fd5b610141610560565b604051808273ffffffffffffffffffffffffffffffffffffffff1673ffffffffffffffffffffffffffffffffffffffff16815260200191505060405180910390f35b341561018e57600080fd5b6101a7600480803560ff16906020019091905050610585565b005b34156101b457600080fd5b6101e0600480803573ffffffffffffffffffffffffffffffffffffffff16906020019091905050610612565b005b34156101ed57600080fd5b610219600480803573ffffffffffffffffffffffffffffffffffffffff16906020019091905050610767565b604051808215151515815260200191505060405180910390f35b341561023e57600080fd5b61026a600480803573ffffffffffffffffffffffffffffffffffffffff16906020019091905050610787565b604051808215151515815260200191505060405180910390f35b60015481565b6000809054906101000a900473ffffffffffffffffffffffffffffffffffffffff1673ffffffffffffffffffffffffffffffffffffffff163373ffffffffffffffffffffffffffffffffffffffff161415156102e557600080fd5b600060149054906101000a900460ff1660ff1660015411151561030757600080fd5b6000600260008373ffffffffffffffffffffffffffffffffffffffff1673ffffffffffffffffffffffffffffffffffffffff16815260200190815260200160002060006101000a81548160ff021916908315150217905550600160008154809291906001900391905055507fe1434e25d6611e0db941968fdc97811c982ac1602e951637d206f5fdda9dd8f181604051808273ffffffffffffffffffffffffffffffffffffffff1673ffffffffffffffffffffffffffffffffffffffff16815260200191505060405180910390a150565b6000809054906101000a900473ffffffffffffffffffffffffffffffffffffffff1673ffffffffffffffffffffffffffffffffffffffff163373ffffffffffffffffffffffffffffffffffffffff1614151561043357600080fd5b60011515600260008373ffffffffffffffffffffffffffffffffffffffff1673ffffffffffffffffffffffffffffffffffffffff16815260200190815260200160002060009054906101000a900460ff1615151415151561049057fe5b6001600260008373ffffffffffffffffffffffffffffffffffffffff1673ffffffffffffffffffffffffffffffffffffffff16815260200190815260200160002060006101000a81548160ff0219169083151502179055506001600081548092919060010191905055507fe366c1c0452ed8eec96861e9e54141ebff23c9ec89fe27b996b45f5ec388498781604051808273ffffffffffffffffffffffffffffffffffffffff1673ffffffffffffffffffffffffffffffffffffffff16815260200191505060405180910390a150565b6000809054906101000a900473ffffffffffffffffffffffffffffffffffffffff1681565b6000809054906101000a900473ffffffffffffffffffffffffffffffffffffffff1673ffffffffffffffffffffffffffffffffffffffff163373ffffffffffffffffffffffffffffffffffffffff161415156105e057600080fd5b8060ff16600154101515156105f457600080fd5b80600060146101000a81548160ff021916908360ff16021790555050565b6000809054906101000a900473ffffffffffffffffffffffffffffffffffffffff1673ffffffffffffffffffffffffffffffffffffffff163373ffffffffffffffffffffffffffffffffffffffff1614151561066d57600080fd5b600073ffffffffffffffffffffffffffffffffffffffff168173ffffffffffffffffffffffffffffffffffffffff16141515156106a957600080fd5b8073ffffffffffffffffffffffffffffffffffffffff166000809054906101000a900473ffffffffffffffffffffffffffffffffffffffff1673ffffffffffffffffffffffffffffffffffffffff167f8be0079c531659141344cd1fd0a4f28419497f9722a3daafe3b4186f6b6457e060405160405180910390a3806000806101000a81548173ffffffffffffffffffffffffffffffffffffffff021916908373ffffffffffffffffffffffffffffffffffffffff16021790555050565b60026020528060005260406000206000915054906101000a900460ff1681565b600060011515600260008473ffffffffffffffffffffffffffffffffffffffff1673ffffffffffffffffffffffffffffffffffffffff16815260200190815260200160002060009054906101000a900460ff1615151490509190505600a165627a7a72305820f54730f91309c21b6b6c2e7daa7ca63b3d60ba4e69839ab91a6a25f163e3853a0029",
  "source": "pragma solidity ^0.4.18;\n\nimport 'openzeppelin-solidity/contracts/ownership/Ownable.sol';\n\ncontract Validatable is Ownable {\n\n\t// Event created on validator gets added\n\tevent ValidatorAdded (address validator);\n\tevent ValidatorRemoved (address validator);\n\tuint8 requiredValidators = 0;\n\tuint256 public validatorCount = 0;\n\n\tmapping (address=>bool) public validators;\n\n\tfunction Validatable(uint8 _requiredValidators,address[] _initialValidators) public {\n\t\trequire(_requiredValidators != 0);\n\t\trequire(_initialValidators.length >= _requiredValidators);\n        \tfor (uint i = 0; i < _initialValidators.length; i++) {\n\t        \trequire(!isValidator(_initialValidators[i]) && _initialValidators[i] != address(0));\n\t        \taddValidator(_initialValidators[i]);\n\t        }\n        setRequiredValidators(_requiredValidators);\n\t\tvalidatorCount = _initialValidators.length;\n\t}\n\n\tfunction addValidator(address _validator)  public onlyOwner {\n\t\tassert(validators[_validator] != true);\n\t\tvalidators[_validator] = true;\n\t\tvalidatorCount++;\n\t\temit ValidatorAdded(_validator);\n\t}\n\n\tfunction removeValidator(address _validator) public onlyOwner {\n\t\trequire(validatorCount > requiredValidators);\n\t\tvalidators[_validator] = false;\n\t\tvalidatorCount--;\n\t\temit ValidatorRemoved(_validator);\n\t}\n\n\tfunction setRequiredValidators(uint8 _requiredValidators) public onlyOwner {\n\t\trequire(validatorCount >= _requiredValidators);\n\t\trequiredValidators = _requiredValidators;\n\t}\n\n\tfunction isValidator(address _validator) public view returns(bool) {\n\t\treturn (validators[_validator] == true);\n\t}\n\n\tmodifier onlyValidator(address _validator) {\n\t\tassert(validators[_validator] == true);\n\t\t_;\n\t}\t\n}\n",
  "sourcePath": "/Users/sponnet/Documents/projects/dbdao/erc20-bridge/contracts/Validatable.sol",
  "compiler": {
    "name": "solc",
    "version": "0.4.21+commit.dfe3193c.Emscripten.clang"
  },
  "schemaVersion": "2.0.0",
  "updatedAt": "2018-05-29T12:21:14.169Z"
}